{
  "contractName": "EthLoan",
  "abi": [
    {
      "inputs": [],
      "payable": false,
      "stateMutability": "nonpayable",
      "type": "constructor"
    },
    {
      "constant": true,
      "inputs": [
        {
          "internalType": "uint256",
          "name": "",
          "type": "uint256"
        }
      ],
      "name": "borrowList",
      "outputs": [
        {
          "internalType": "address",
          "name": "",
          "type": "address"
        }
      ],
      "payable": false,
      "stateMutability": "view",
      "type": "function"
    },
    {
      "constant": true,
      "inputs": [
        {
          "internalType": "uint256",
          "name": "",
          "type": "uint256"
        }
      ],
      "name": "lendList",
      "outputs": [
        {
          "internalType": "address",
          "name": "",
          "type": "address"
        }
      ],
      "payable": false,
      "stateMutability": "view",
      "type": "function"
    },
    {
      "constant": true,
      "inputs": [
        {
          "internalType": "uint256",
          "name": "",
          "type": "uint256"
        }
      ],
      "name": "pairing",
      "outputs": [
        {
          "internalType": "uint256",
          "name": "",
          "type": "uint256"
        }
      ],
      "payable": false,
      "stateMutability": "view",
      "type": "function"
    },
    {
      "constant": true,
      "inputs": [
        {
          "internalType": "uint256",
          "name": "",
          "type": "uint256"
        }
      ],
      "name": "transactionList",
      "outputs": [
        {
          "internalType": "address",
          "name": "",
          "type": "address"
        }
      ],
      "payable": false,
      "stateMutability": "view",
      "type": "function"
    },
    {
      "constant": true,
      "inputs": [
        {
          "internalType": "address",
          "name": "_baseCurry",
          "type": "address"
        },
        {
          "internalType": "address",
          "name": "_counterCurry",
          "type": "address"
        }
      ],
      "name": "checkExistsPairing",
      "outputs": [
        {
          "internalType": "uint8",
          "name": "",
          "type": "uint8"
        }
      ],
      "payable": false,
      "stateMutability": "view",
      "type": "function"
    },
    {
      "constant": false,
      "inputs": [
        {
          "internalType": "address",
          "name": "_baseCurry",
          "type": "address"
        },
        {
          "internalType": "address",
          "name": "_counterCurry",
          "type": "address"
        },
        {
          "internalType": "string",
          "name": "_desc",
          "type": "string"
        }
      ],
      "name": "addPairing",
      "outputs": [],
      "payable": false,
      "stateMutability": "nonpayable",
      "type": "function"
    },
    {
      "constant": true,
      "inputs": [],
      "name": "getNoPairing",
      "outputs": [
        {
          "internalType": "uint256",
          "name": "",
          "type": "uint256"
        }
      ],
      "payable": false,
      "stateMutability": "view",
      "type": "function"
    },
    {
      "constant": false,
      "inputs": [
        {
          "internalType": "uint256",
          "name": "_index",
          "type": "uint256"
        }
      ],
      "name": "deactivePairing",
      "outputs": [],
      "payable": false,
      "stateMutability": "nonpayable",
      "type": "function"
    },
    {
      "constant": true,
      "inputs": [],
      "name": "getNoPairingActive",
      "outputs": [
        {
          "internalType": "uint256",
          "name": "",
          "type": "uint256"
        }
      ],
      "payable": false,
      "stateMutability": "view",
      "type": "function"
    },
    {
      "constant": false,
      "inputs": [
        {
          "internalType": "uint256",
          "name": "_index",
          "type": "uint256"
        }
      ],
      "name": "activePairing",
      "outputs": [],
      "payable": false,
      "stateMutability": "nonpayable",
      "type": "function"
    },
    {
      "constant": true,
      "inputs": [],
      "name": "getBlock",
      "outputs": [
        {
          "internalType": "uint256",
          "name": "",
          "type": "uint256"
        }
      ],
      "payable": false,
      "stateMutability": "view",
      "type": "function"
    },
    {
      "constant": true,
      "inputs": [],
      "name": "getOwner",
      "outputs": [
        {
          "internalType": "address",
          "name": "",
          "type": "address"
        }
      ],
      "payable": false,
      "stateMutability": "view",
      "type": "function"
    },
    {
      "constant": true,
      "inputs": [],
      "name": "getContractBalance",
      "outputs": [
        {
          "internalType": "uint256",
          "name": "",
          "type": "uint256"
        }
      ],
      "payable": false,
      "stateMutability": "view",
      "type": "function"
    },
    {
      "constant": true,
      "inputs": [],
      "name": "getUniqueId",
      "outputs": [
        {
          "internalType": "address",
          "name": "",
          "type": "address"
        }
      ],
      "payable": false,
      "stateMutability": "view",
      "type": "function"
    },
    {
      "constant": true,
      "inputs": [
        {
          "internalType": "uint256[]",
          "name": "_pairingList",
          "type": "uint256[]"
        }
      ],
      "name": "checkPairing",
      "outputs": [
        {
          "internalType": "bool",
          "name": "",
          "type": "bool"
        }
      ],
      "payable": false,
      "stateMutability": "view",
      "type": "function"
    },
    {
      "constant": false,
      "inputs": [
        {
          "internalType": "uint256",
          "name": "_ltv",
          "type": "uint256"
        },
        {
          "internalType": "uint256",
          "name": "_interest",
          "type": "uint256"
        },
        {
          "internalType": "uint256",
          "name": "_issueAmt",
          "type": "uint256"
        },
        {
          "internalType": "enum EthLoan.PaymentTerm",
          "name": "_paymentTerm",
          "type": "uint8"
        },
        {
          "internalType": "uint256[]",
          "name": "_pairingList",
          "type": "uint256[]"
        }
      ],
      "name": "newLend",
      "outputs": [],
      "payable": true,
      "stateMutability": "payable",
      "type": "function"
    },
    {
      "constant": true,
      "inputs": [
        {
          "internalType": "address",
          "name": "_address",
          "type": "address"
        }
      ],
      "name": "checkLend",
      "outputs": [
        {
          "internalType": "address",
          "name": "",
          "type": "address"
        },
        {
          "internalType": "uint256",
          "name": "",
          "type": "uint256"
        },
        {
          "internalType": "uint256",
          "name": "",
          "type": "uint256"
        },
        {
          "internalType": "uint256",
          "name": "",
          "type": "uint256"
        },
        {
          "internalType": "uint256",
          "name": "",
          "type": "uint256"
        },
        {
          "internalType": "uint256",
          "name": "",
          "type": "uint256"
        },
        {
          "internalType": "uint256",
          "name": "",
          "type": "uint256"
        },
        {
          "internalType": "uint256",
          "name": "",
          "type": "uint256"
        },
        {
          "internalType": "uint256[]",
          "name": "",
          "type": "uint256[]"
        }
      ],
      "payable": false,
      "stateMutability": "view",
      "type": "function"
    },
    {
      "constant": true,
      "inputs": [],
      "name": "getAllLend",
      "outputs": [
        {
          "internalType": "address[]",
          "name": "",
          "type": "address[]"
        }
      ],
      "payable": false,
      "stateMutability": "view",
      "type": "function"
    },
    {
      "constant": true,
      "inputs": [
        {
          "internalType": "address",
          "name": "_address",
          "type": "address"
        }
      ],
      "name": "checkActiveBorrower",
      "outputs": [
        {
          "internalType": "bool",
          "name": "",
          "type": "bool"
        }
      ],
      "payable": false,
      "stateMutability": "view",
      "type": "function"
    },
    {
      "constant": false,
      "inputs": [
        {
          "internalType": "address",
          "name": "_lendId",
          "type": "address"
        }
      ],
      "name": "closeLend",
      "outputs": [],
      "payable": true,
      "stateMutability": "payable",
      "type": "function"
    },
    {
      "constant": true,
      "inputs": [
        {
          "internalType": "uint256",
          "name": "_epoch",
          "type": "uint256"
        }
      ],
      "name": "calcNextDay",
      "outputs": [
        {
          "internalType": "uint256",
          "name": "",
          "type": "uint256"
        }
      ],
      "payable": false,
      "stateMutability": "view",
      "type": "function"
    },
    {
      "constant": true,
      "inputs": [
        {
          "internalType": "uint256",
          "name": "_epoch",
          "type": "uint256"
        }
      ],
      "name": "calcStartDay",
      "outputs": [
        {
          "internalType": "uint256",
          "name": "",
          "type": "uint256"
        }
      ],
      "payable": false,
      "stateMutability": "view",
      "type": "function"
    },
    {
      "constant": true,
      "inputs": [
        {
          "internalType": "uint256",
          "name": "_epoch",
          "type": "uint256"
        },
        {
          "internalType": "uint256",
          "name": "_period",
          "type": "uint256"
        }
      ],
      "name": "calcNextCycle",
      "outputs": [
        {
          "internalType": "uint256",
          "name": "",
          "type": "uint256"
        }
      ],
      "payable": false,
      "stateMutability": "view",
      "type": "function"
    },
    {
      "constant": true,
      "inputs": [
        {
          "internalType": "uint256",
          "name": "_day",
          "type": "uint256"
        }
      ],
      "name": "convertDayToEpoch",
      "outputs": [
        {
          "internalType": "uint256",
          "name": "",
          "type": "uint256"
        }
      ],
      "payable": false,
      "stateMutability": "pure",
      "type": "function"
    },
    {
      "constant": true,
      "inputs": [
        {
          "internalType": "uint256",
          "name": "_lendAmt",
          "type": "uint256"
        },
        {
          "internalType": "uint256",
          "name": "_ltv",
          "type": "uint256"
        }
      ],
      "name": "calcCollatAmt",
      "outputs": [
        {
          "internalType": "uint256",
          "name": "",
          "type": "uint256"
        }
      ],
      "payable": false,
      "stateMutability": "pure",
      "type": "function"
    },
    {
      "constant": false,
      "inputs": [
        {
          "internalType": "address",
          "name": "_lendId",
          "type": "address"
        },
        {
          "internalType": "uint256",
          "name": "_lendAmt",
          "type": "uint256"
        },
        {
          "internalType": "uint256",
          "name": "_pairingId",
          "type": "uint256"
        }
      ],
      "name": "borrowLend",
      "outputs": [],
      "payable": true,
      "stateMutability": "payable",
      "type": "function"
    },
    {
      "constant": true,
      "inputs": [
        {
          "internalType": "uint256",
          "name": "_numerator",
          "type": "uint256"
        },
        {
          "internalType": "uint256",
          "name": "_denominator",
          "type": "uint256"
        }
      ],
      "name": "division",
      "outputs": [
        {
          "internalType": "uint256",
          "name": "",
          "type": "uint256"
        }
      ],
      "payable": false,
      "stateMutability": "view",
      "type": "function"
    },
    {
      "constant": true,
      "inputs": [
        {
          "internalType": "uint256",
          "name": "_interest",
          "type": "uint256"
        },
        {
          "internalType": "uint256",
          "name": "_payTerm",
          "type": "uint256"
        },
        {
          "internalType": "uint256",
          "name": "_borrowAmt",
          "type": "uint256"
        }
      ],
      "name": "interestAmt",
      "outputs": [
        {
          "internalType": "uint256",
          "name": "",
          "type": "uint256"
        }
      ],
      "payable": false,
      "stateMutability": "view",
      "type": "function"
    },
    {
      "constant": true,
      "inputs": [
        {
          "internalType": "uint256",
          "name": "_interest",
          "type": "uint256"
        },
        {
          "internalType": "uint256",
          "name": "_payTerm",
          "type": "uint256"
        },
        {
          "internalType": "uint256",
          "name": "_borrowAmt",
          "type": "uint256"
        },
        {
          "internalType": "uint256",
          "name": "_lastPaymentDate",
          "type": "uint256"
        }
      ],
      "name": "lateInterestAmt",
      "outputs": [
        {
          "internalType": "uint256",
          "name": "",
          "type": "uint256"
        }
      ],
      "payable": false,
      "stateMutability": "view",
      "type": "function"
    },
    {
      "constant": true,
      "inputs": [
        {
          "internalType": "uint256",
          "name": "_interest",
          "type": "uint256"
        },
        {
          "internalType": "uint256",
          "name": "_payTerm",
          "type": "uint256"
        },
        {
          "internalType": "uint256",
          "name": "_borrowAmt",
          "type": "uint256"
        },
        {
          "internalType": "uint256",
          "name": "_lastPaymentDate",
          "type": "uint256"
        }
      ],
      "name": "totalInterestAmt",
      "outputs": [
        {
          "internalType": "uint256",
          "name": "",
          "type": "uint256"
        }
      ],
      "payable": false,
      "stateMutability": "view",
      "type": "function"
    },
    {
      "constant": false,
      "inputs": [
        {
          "internalType": "address",
          "name": "_borrowId",
          "type": "address"
        }
      ],
      "name": "payInterest",
      "outputs": [],
      "payable": true,
      "stateMutability": "payable",
      "type": "function"
    },
    {
      "constant": false,
      "inputs": [
        {
          "internalType": "address",
          "name": "_borrowId",
          "type": "address"
        }
      ],
      "name": "closeBorrow",
      "outputs": [],
      "payable": true,
      "stateMutability": "payable",
      "type": "function"
    },
    {
      "constant": true,
      "inputs": [
        {
          "internalType": "address",
          "name": "_sender",
          "type": "address"
        }
      ],
      "name": "getMsgSenderBalance",
      "outputs": [
        {
          "internalType": "uint256",
          "name": "",
          "type": "uint256"
        }
      ],
      "payable": false,
      "stateMutability": "view",
      "type": "function"
    }
  ],
  "bytecode": "0x6080604052600a805461ffff60a01b1916750168000000000000000000000000000000000000000017905560c8600b5562015180600c553480156200004357600080fd5b506040805180820190915260118082527f636f6e7374727563746f722076616c756500000000000000000000000000000060209092019182526200008a91600091620000a8565b50600a80546001600160a01b031916331790556004600d556200014d565b828054600181600116156101000203166002900490600052602060002090601f016020900481019282601f10620000eb57805160ff19168380011785556200011b565b828001600101855582156200011b579182015b828111156200011b578251825591602001919060010190620000fe565b50620001299291506200012d565b5090565b6200014a91905b8082111562000129576000815560010162000134565b90565b6125a3806200015d6000396000f3fe6080604052600436106101ee5760003560e01c80637710442e1161010d578063c8707ef8116100a0578063e466532d1161006f578063e466532d14610924578063ec3e5bf414610960578063eda8d88714610993578063f4b901e8146109bd578063f5c0b4fc14610a0e576101ee565b8063c8707ef8146107d8578063cdc3290114610802578063d007c644146108ce578063e0068052146108f4576101ee565b8063920ab09f116100dc578063920ab09f146106ab5780639c9651bb146106d5578063ab63d7f214610793578063ae44bfc5146107a8576101ee565b80637710442e146105565780637d9cdf9a14610589578063855d63cc1461065a578063893d20e814610696576101ee565b80634ae1d90f116101855780636f2a9599116101545780636f2a9599146104255780636f9fb98a1461045757806371bfbd4e1461046c57806375c85c2414610492576101ee565b80634ae1d90f146103865780634c756b5e146103bc57806360b25893146103d15780636f0de9a0146103fb576101ee565b80632e97766d116101c15780632e97766d146102f05780633903a322146103175780633d9f5117146103475780634a57a64c1461035c576101ee565b806304ef5b21146101f35780631313a16114610239578063276d2a721461026557806329a9c258146102ca575b600080fd5b3480156101ff57600080fd5b5061021d6004803603602081101561021657600080fd5b5035610a38565b604080516001600160a01b039092168252519081900360200190f35b34801561024557600080fd5b506102636004803603602081101561025c57600080fd5b5035610a5f565b005b34801561027157600080fd5b5061027a610b16565b60408051602080825283518183015283519192839290830191858101910280838360005b838110156102b657818101518382015260200161029e565b505050509050019250505060405180910390f35b610263600480360360208110156102e057600080fd5b50356001600160a01b0316610b79565b3480156102fc57600080fd5b50610305610e39565b60408051918252519081900360200190f35b34801561032357600080fd5b506103056004803603604081101561033a57600080fd5b5080359060200135610e3d565b34801561035357600080fd5b50610305610e60565b34801561036857600080fd5b506103056004803603602081101561037f57600080fd5b5035610eeb565b34801561039257600080fd5b50610305600480360360608110156103a957600080fd5b5080359060208101359060400135610f05565b3480156103c857600080fd5b50610305610f69565b3480156103dd57600080fd5b50610263600480360360208110156103f457600080fd5b5035610f6f565b34801561040757600080fd5b506103056004803603602081101561041e57600080fd5b5035611022565b6102636004803603606081101561043b57600080fd5b506001600160a01b038135169060208101359060400135611041565b34801561046357600080fd5b506103056114f4565b6102636004803603602081101561048257600080fd5b50356001600160a01b03166114f9565b34801561049e57600080fd5b50610542600480360360208110156104b557600080fd5b8101906020810181356401000000008111156104d057600080fd5b8201836020820111156104e257600080fd5b8035906020019184602083028401116401000000008311171561050457600080fd5b9190808060200260200160405190810160405280939291908181526020018383602002808284376000920191909152509295506116c7945050505050565b604080519115158252519081900360200190f35b34801561056257600080fd5b506103056004803603602081101561057957600080fd5b50356001600160a01b0316611748565b34801561059557600080fd5b506105bc600480360360208110156105ac57600080fd5b50356001600160a01b0316611755565b604051808a6001600160a01b03166001600160a01b0316815260200189815260200188815260200187815260200186815260200185815260200184815260200183815260200180602001828103825283818151815260200191508051906020019060200280838360005b8381101561063e578181015183820152602001610626565b505050509050019a505050505050505050505060405180910390f35b34801561066657600080fd5b506103056004803603608081101561067d57600080fd5b50803590602081013590604081013590606001356118da565b3480156106a257600080fd5b5061021d61193a565b3480156106b757600080fd5b5061021d600480360360208110156106ce57600080fd5b5035611949565b610263600480360360a08110156106eb57600080fd5b81359160208101359160408201359160ff6060820135169181019060a08101608082013564010000000081111561072157600080fd5b82018360208201111561073357600080fd5b8035906020019184602083028401116401000000008311171561075557600080fd5b919080806020026020016040519081016040528093929190818152602001838360200280828437600092019190915250929550611956945050505050565b34801561079f57600080fd5b5061021d611bc6565b3480156107b457600080fd5b50610305600480360360408110156107cb57600080fd5b5080359060200135611c3b565b3480156107e457600080fd5b5061021d600480360360208110156107fb57600080fd5b5035611c6b565b34801561080e57600080fd5b506102636004803603606081101561082557600080fd5b6001600160a01b03823581169260208101359091169181019060608101604082013564010000000081111561085957600080fd5b82018360208201111561086b57600080fd5b8035906020019184600183028401116401000000008311171561088d57600080fd5b91908080601f016020809104026020016040519081016040528093929190818152602001838380828437600092019190915250929550611c78945050505050565b610263600480360360208110156108e457600080fd5b50356001600160a01b0316611dbb565b34801561090057600080fd5b506103056004803603604081101561091757600080fd5b5080359060200135611f5b565b34801561093057600080fd5b506103056004803603608081101561094757600080fd5b5080359060208101359060408101359060600135611f8d565b34801561096c57600080fd5b506105426004803603602081101561098357600080fd5b50356001600160a01b0316611fb0565b34801561099f57600080fd5b50610305600480360360208110156109b657600080fd5b503561211a565b3480156109c957600080fd5b506109f8600480360360408110156109e057600080fd5b506001600160a01b0381358116916020013516612122565b6040805160ff9092168252519081900360200190f35b348015610a1a57600080fd5b5061030560048036036020811015610a3157600080fd5b5035612196565b60078181548110610a4557fe5b6000918252602090912001546001600160a01b0316905081565b600a546001600160a01b03163314610aa85760405162461bcd60e51b815260040180806020018281038252602e8152602001806123e8602e913960400191505060405180910390fd5b600554811115610af8576040805162461bcd60e51b815260206004820152601660248201527524b73b30b634b2103830b4b934b7339034b73232bc1760511b604482015290519081900360640190fd5b6000908152600960205260409020600301805460ff19166001179055565b60606004805480602002602001604051908101604052809291908181526020018280548015610b6e57602002820191906000526020600020905b81546001600160a01b03168152600190910190602001808311610b50575b505050505090505b90565b6001600160a01b03818116600090815260016020526040902054163314610bd15760405162461bcd60e51b81526004018080602001828103825260238152602001806124896023913960400191505060405180910390fd5b60026001600160a01b03821660009081526001602052604090206009015460ff166003811115610bfd57fe5b1415610c43576040805162461bcd60e51b815260206004820152601060248201526f204c6f616e206e6f742061637469766560801b604482015290519081900360640190fd5b6001600160a01b03811660009081526001602052604081206009015460ff166003811115610c6d57fe5b148015610c9457506001600160a01b03811660009081526001602052604090206004015415155b15610d11576001600160a01b03811660009081526001602052604080822060098101805460ff1916600217905560040154905133926108fc831502929190818181858888f19350505050158015610cef573d6000803e3d6000fd5b506001600160a01b038116600090815260016020526040812060040155610e36565b60016001600160a01b03821660009081526001602052604090206009015460ff166003811115610d3d57fe5b1415610d6e576001600160a01b0381166000908152600160205260409020600901805460ff19166003179055610e36565b60036001600160a01b03821660009081526001602052604090206009015460ff166003811115610d9a57fe5b148015610dbd57506001600160a01b038116600090815260086020526040902054155b15610e36576001600160a01b03811660009081526001602052604080822060098101805460ff1916600217905560040154905133926108fc831502929190818181858888f19350505050158015610e18573d6000803e3d6000fd5b506001600160a01b0381166000908152600160205260408120600401555b50565b4290565b60006064838361271081610e4d57fe5b040281610e5657fe5b0490505b92915050565b600554600090610eab576040805162461bcd60e51b81526020600482015260116024820152704e6f2050616972696e672065786973747360781b604482015290519081900360640190fd5b6000805b600554811015610ee55760008181526009602052604090206003015460ff1660011415610edd576001909101905b600101610eaf565b50905090565b6000600c5480610ef757fe5b60008308820390505b919050565b600081610f1457506000610f62565b6000610f1f846121b4565b905060006402540be40084610f4884600a60149054906101000a900461ffff1661ffff16611f5b565b610f53896064611f5b565b020281610f5c57fe5b04925050505b9392505050565b60055490565b600a546001600160a01b03163314610fb85760405162461bcd60e51b81526004018080602001828103825260308152602001806125196030913960400191505060405180910390fd5b6005548110611007576040805162461bcd60e51b815260206004820152601660248201527524b73b30b634b2103830b4b934b7339034b73232bc1760511b604482015290519081900360640190fd5b6000908152600960205260409020600301805460ff19169055565b600080600c548061102f57fe5b60008408600c54930390920192915050565b6001600160a01b03831660009081526001602052604081206009015460ff16600381111561106b57fe5b14806110a0575060016001600160a01b03841660009081526001602052604090206009015460ff16600381111561109e57fe5b145b6110db5760405162461bcd60e51b81526004018080602001828103825260238152602001806124f66023913960400191505060405180910390fd5b6001600160a01b038316600090815260016020526040902060040154821180159061112157506001600160a01b0383166000908152600160205260409020600301548211155b61115c5760405162461bcd60e51b81526004018080602001828103825260408152602001806124166040913960400191505060405180910390fd5b6001600160a01b03831660009081526001602081905260409091200154611184908390610e3d565b3410156111c25760405162461bcd60e51b815260040180806020018281038252604a8152602001806124ac604a913960600191505060405180910390fd5b6111cc83826121ff565b1515600114611218576040805162461bcd60e51b815260206004820152601360248201527250616972696e67206d7573742065786973747360681b604482015290519081900360640190fd5b6001600160a01b03831660009081526001602052604081206009015460ff16600381111561124257fe5b1415611272576001600160a01b0383166000908152600160208190526040909120600901805460ff191690911790555b6001600160a01b0383166000908152600160205260408082206004018054859003905551339184156108fc02918591818181858888f193505050501580156112be573d6000803e3d6000fd5b504260006112ca611bc6565b9050604051806101600160405280336001600160a01b0316815260200160018152602001866001600160a01b031681526020018581526020018481526020016000600281111561131657fe5b8152602001838152602001637fffffff81526020018381526020016113838461137e600160008b6001600160a01b03166001600160a01b0316815260200190815260200160002060050160009054906101000a900460ff16600381111561137957fe5b6121b4565b611c3b565b81526020016113ba86600160008a6001600160a01b03166001600160a01b0316815260200190815260200160002060010154610e3d565b90526001600160a01b03808316600090815260026020818152604092839020855181549086166001600160a01b03199182161782559186015160018083019190915593860151818401805491909616921691909117909355606084015160038401556080840151600484015560a08401516005840180549193909260ff1990921691849081111561144757fe5b021790555060c082015160068083019190915560e08301516007830155610100830151600880840191909155610120840151600984015561014090930151600a90920191909155805460018181019092557ff652222313e28459528d920b65115c16c04f3efc82aaedc97be59f3f377c0d3f0180546001600160a01b039094166001600160a01b031990941684179055600092835260209190915260409091208054909101905550505050565b303190565b6001600160a01b03818116600090815260026020526040902054163314611567576040805162461bcd60e51b815260206004820152601960248201527f204d75737420626520626f72726f777320626f72726f77657200000000000000604482015290519081900360640190fd5b6001600160a01b0381166000908152600260205260409020600a01546115d4576040805162461bcd60e51b815260206004820152601a60248201527f20436f6c6c61746572616c20416d6f756e74206e6f206d6f7265000000000000604482015290519081900360640190fd5b6001600160a01b03808216600090815260026020818152604080842090920154909316825260089092522054611643576040805162461bcd60e51b815260206004820152600f60248201526e1027379030b1ba34bb32903637b0b760891b604482015290519081900360640190fd5b6001600160a01b038116600090815260026020526040808220600a01549051339282156108fc02929190818181858888f1935050505015801561168a573d6000803e3d6000fd5b506001600160a01b039081166000908152600260208181526040808420600a81018590559092015490931682526008909252208054600019019055565b6005546000908190158015906116dd5750825115155b15610e5a5760005b835181101561174157600960008583815181106116fe57fe5b60209081029190910181015182528101919091526040016000206003015460ff16600114156117305760019150611739565b60009150611741565b6001016116e5565b5092915050565b6001600160a01b03163190565b600080600080600080600080606061176b612273565b6001600160a01b03808c16600090815260016020818152604092839020835161014081018552815490951685529182015490840152600281015491830191909152600380820154606084015260048201546080840152600582015460a084019160ff909116908111156117da57fe5b60038111156117e557fe5b815260200160068201548152602001600782015481526020016008820180548060200260200160405190810160405280929190818152602001828054801561184c57602002820191906000526020600020905b815481526020019060010190808311611838575b5050509183525050600982015460209091019060ff16600381111561186d57fe5b600381111561187857fe5b815250509050806000015181602001518260400151836060015184608001518560a0015160038111156118a757fe5b8660c001518760e00151886101000151809050995099509950995099509950995099509950509193959799909294969850565b6000806118ee6118e9866121b4565b61211a565b905042818401111561192c57600b54600a5442859003830191869190890190600160a01b900461ffff16838161192057fe5b04020292505050611932565b60009150505b949350505050565b600a546001600160a01b031690565b60068181548110610a4557fe5b8234116119945760405162461bcd60e51b81526004018080602001828103825260338152602001806124566033913960400191505060405180910390fd5b606485106119d35760405162461bcd60e51b81526004018080602001828103825260268152602001806125496026913960400191505060405180910390fd5b6119dc816116c7565b1515600114611a24576040805162461bcd60e51b815260206004820152600f60248201526e496e76616c69642070616972696e6760881b604482015290519081900360640190fd5b6000611a2e611bc6565b9050604051806101400160405280336001600160a01b03168152602001878152602001868152602001858152602001858152602001846003811115611a6f57fe5b8152637fffffff602082015242604082015260608101849052608001600090526001600160a01b03828116600090815260016020818152604092839020855181546001600160a01b03191695169490941784558401518382015590830151600283015560608301516003808401919091556080840151600484015560a08401516005840180549193909260ff19909216918490811115611b0b57fe5b021790555060c0820151600682015560e082015160078201556101008201518051611b409160088401916020909101906122e4565b5061012082015160098201805460ff19166001836003811115611b5f57fe5b02179055505060048054600181019091557f8a35acfbc15ff81a39ae7d344fd709f28e8600b4aa8c65c6b64bfe7fe36bd19b0180546001600160a01b039093166001600160a01b031990931683179055506000908152600860205260408120555050505050565b604080513360601b6020808301919091524260348084019190915283518084039091018152605490920190925280519101206000908160135b6001810115611c3457600181601460ff16030360020260100a838260148110611c2457fe5b1a02919091019060001901611bff565b5091505090565b6000805b611c488361211a565b611c5185611022565b019050611c5d42610eeb565b811115611c3f579392505050565b60048181548110610a4557fe5b600a546001600160a01b03163314611cc15760405162461bcd60e51b81526004018080602001828103825260318152602001806123b76031913960400191505060405180910390fd5b600554801580611cdb5750611cd68484612122565b60ff16155b15611db557604080516080810182526001600160a01b038087168252858116602080840191825283850187815260016060860181905260008881526009845296909620855181549086166001600160a01b03199182161782559351968101805497909516969093169590951790925592518051929392611d61926002850192019061232f565b50606091909101516003909101805460ff191660ff909216919091179055600580546001810182556000919091527f036b6384b5eca791c62761152d0c79bb0604c104a5fb6f4eb0703f3154bb3db0018190555b50505050565b6001600160a01b038116600090815260026020819052604082206005015460ff1690811115611de657fe5b14611e29576040805162461bcd60e51b815260206004820152600e60248201526d496e76616c696420626f72726f7760901b604482015290519081900360640190fd5b6001600160a01b03818116600090815260026020818152604080842083015490941683526001905291902090810154600590910154611e99919060ff166003811115611e7157fe5b6001600160a01b03841660009081526002602052604090206003810154600890910154611f8d565b341015611ee4576040805162461bcd60e51b8152602060048201526014602482015273125b9cdd58da59999a58d95b9d08185b5bdd5b9d60621b604482015290519081900360640190fd5b6001600160a01b0380821660009081526002602081815260408084206009810154426008830181905591909401549095168452600190915290912060050154611f3790829060ff16600381111561137e57fe5b6001600160a01b039093166000908152600260205260409020600901929092555050565b600080600d54600101600a0a840290506000600a848381611f7857fe5b0460050181611f8357fe5b0495945050505050565b6000611f9b858585856118da565b611fa6868686610f05565b0195945050505050565b6000611fba612273565b6001600160a01b03808416600090815260016020818152604092839020835161014081018552815490951685529182015490840152600281015491830191909152600380820154606084015260048201546080840152600582015460a084019160ff9091169081111561202957fe5b600381111561203457fe5b815260200160068201548152602001600782015481526020016008820180548060200260200160405190810160405280929190818152602001828054801561209b57602002820191906000526020600020905b815481526020019060010190808311612087575b5050509183525050600982015460209091019060ff1660038111156120bc57fe5b60038111156120c757fe5b9052509050600181610120015160038111156120df57fe5b148061210257506001600160a01b03831660009081526008602052604090205415155b15612111576001915050610f00565b50600092915050565b620151800290565b6000805b60055481101561218c576000818152600960205260409020546001600160a01b03858116911614801561217557506000818152600960205260409020600101546001600160a01b038481169116145b15612184576001915050610e5a565b600101612126565b5060009392505050565b600581815481106121a357fe5b600091825260209091200154905081565b6000816121c357506007610f00565b81600114156121d45750601e610f00565b81600214156121e55750605a610f00565b81600314156121f6575060b4610f00565b50610168610f00565b6000805b6001600160a01b03841660009081526001602052604090206008015481101561218c576001600160a01b038416600090815260016020526040902060080180548491908390811061225057fe5b9060005260206000200154141561226b576001915050610e5a565b600101612203565b60405180610140016040528060006001600160a01b0316815260200160008152602001600081526020016000815260200160008152602001600060038111156122b857fe5b8152602001600081526020016000815260200160608152602001600060038111156122df57fe5b905290565b82805482825590600052602060002090810192821561231f579160200282015b8281111561231f578251825591602001919060010190612304565b5061232b92915061239c565b5090565b828054600181600116156101000203166002900490600052602060002090601f016020900481019282601f1061237057805160ff191683800117855561231f565b8280016001018555821561231f579182018281111561231f578251825591602001919060010190612304565b610b7691905b8082111561232b57600081556001016123a256fe4f6e6c7920636f6e7472616374206f776e65722063616e20616464206e657720737570706f727465642070616972696e674f6e6c7920636f6e7472616374206f776e65722063616e206163746976652070616972696e6720737570706f7274204c656e6420616d6f756e742063616e6e6f74206265206d6f7265207468616e20697373756520616d6f756e7420616e642063757272656e7420616d6f756e74204d6573736167652076616c75652073686f756c64206265206d6f7265207468616e2074686520697373756520616d6f756e744f6e6c79206c656e64206f776e65722063616e20636c6f736520746865206c6f616e2e4d6573736167652076616c7565206861766520746f206265206d6f7265207468616e20746865206c6f616e20746f2076616c756520616d6f756e74206f66206c656e6420616d6f756e74204c656e64206163636f756e7420697320696e6163746976652f73757370656e6465644f6e6c7920636f6e7472616374206f776e65722063616e2064656163746976652070616972696e6720737570706f7274204c54562073686f756c64206265206c657373207468616e20616e6420657175616c20313030a265627a7a72315820fb289ee113b266b4621d3e23637e299752772905bde3a5efb0a3b0b0377cc73964736f6c634300050c0032",
  "source": "pragma solidity ^0.5.12;\r\n\r\ncontract EthLoan {\r\n    string value;\r\n\r\n    enum PaymentTerm{WEEKLY,MONTHLY,QUARTERLY,YEARLY}\r\n    enum TransactionType{NEW,REPAY,CLOSE,UPDATE,DEFAULT}\r\n    enum BorrowStatus{ACTIVE,INACTIVE,LATE}\r\n    enum LendStatus{ACTIVE,RUNNING,INACTIVE,SUSPEND}\r\n\r\n    struct Pairing {\r\n        address baseCurry;\r\n        address counterCurry;\r\n        string desc;\r\n        uint8 active;\r\n    }\r\n\r\n    struct Lend{\r\n        address lendAddress;\r\n        uint ltv; //1-100\r\n        uint interest; // 100 basis point = 1 percent\r\n        uint issueAmt; // wei - 1 eth = 1,000,000,000,000,000,000 wei\r\n        uint currentAmt; // wei\r\n        PaymentTerm paymentTerm;\r\n        uint endDate;\r\n        uint startDate;\r\n        uint[] pairing;\r\n        LendStatus lendStatus;\r\n    }\r\n\r\n    struct Borrow{\r\n        address borrowAddress;\r\n        uint exchRate;\r\n        address lendId;\r\n        uint borrowAmt;\r\n        //Pairing pairing;\r\n        uint pairing;\r\n        BorrowStatus borrowStatus; //A - Active, I - Inactive, L - Late\r\n        uint borrowStartDate;\r\n        uint borrowEndDate;\r\n        uint lastPaymentDate;\r\n        uint nextPaymentDateBy;\r\n        uint collatAmt;\r\n    }\r\n\r\n    struct Transaction{\r\n        uint lendId;\r\n        uint borrowId;\r\n        uint exchRate;\r\n        TransactionType transactionType;\r\n        uint transactionAmt;\r\n        uint pairing;\r\n        //Pairing pairing;\r\n    }\r\n\r\n    mapping (address => Lend) lends;\r\n    //mapping (address => Pairing) pairs;\r\n    mapping (address => Borrow) borrows;\r\n    mapping (address => Transaction) transactions;\r\n    address[] public lendList;\r\n    uint[] public pairing;//address[] public pairing;\r\n    address[] public borrowList;\r\n    address[] public transactionList;\r\n    mapping (address => uint) activeLoan;\r\n    mapping (uint => Pairing) pair;\r\n\r\n    address owner;\r\n    uint16 dayCount = 360;\r\n    uint lateCharge = 200; // 200 basis point = 2 percent\r\n    uint epochDay = 86400; // 60 x 60 x 24 = Epoch day\r\n    uint precision;\r\n\r\n    constructor() public {\r\n        value = \"constructor value\";\r\n        owner = msg.sender;\r\n        precision = 4;\r\n       // pairing.push(Pairing(0x0000000000000000000000000000000000000000,0x0000000000000000000000000000000000000000,'ETH/ETH',1));\r\n    }\r\n\r\n    function checkExistsPairing(address _baseCurry, address _counterCurry) public view returns (uint8){\r\n        for (uint i; i < pairing.length;i++){\r\n            if (pair[i].baseCurry==_baseCurry && pair[i].counterCurry==_counterCurry)\r\n                return 1;\r\n        }\r\n        return 0;\r\n    }\r\n\r\n    function addPairing(address _baseCurry, address _counterCurry, string memory _desc) public {\r\n        require(msg.sender == owner,'Only contract owner can add new supported pairing');\r\n        uint noPair = pairing.length;\r\n        if(noPair == 0 || checkExistsPairing(_baseCurry,_counterCurry) == 0){\r\n            pair[noPair] = Pairing(_baseCurry,_counterCurry,_desc,1);\r\n            pairing.push(noPair);\r\n        }\r\n    }\r\n\r\n    function getNoPairing() public view returns(uint) {\r\n        return pairing.length;\r\n    }\r\n\r\n    function deactivePairing(uint _index) public {\r\n        require(msg.sender == owner,'Only contract owner can deactive pairing support');\r\n        require(pairing.length > _index, 'Invalid pairing index.');\r\n        pair[_index].active = 0;\r\n    }\r\n\r\n    function getNoPairingActive() public view returns(uint) {\r\n        require(pairing.length > 0,'No Pairing exists');\r\n        uint counter = 0;\r\n        for(uint i = 0;i<pairing.length;i++) {\r\n            if(pair[i].active == 1)\r\n                counter++;\r\n        }\r\n        return counter;\r\n    }\r\n\r\n    function activePairing(uint _index) public {\r\n        require(msg.sender == owner,'Only contract owner can active pairing support');\r\n        require(pairing.length >= _index, 'Invalid pairing index.');\r\n        pair[_index].active = 1;\r\n    }\r\n\r\n    function getBlock() public view returns (uint) {\r\n        return now;\r\n    }\r\n\r\n    function getOwner() public view returns(address){\r\n        return owner;\r\n    }\r\n\r\n    function getContractBalance() public view returns(uint){\r\n        return address(this).balance;\r\n    }\r\n\r\n    function getUniqueId() public view returns (address) {\r\n        bytes20 b = bytes20(keccak256(abi.encodePacked(msg.sender, now)));\r\n        uint addr = 0;\r\n        for (uint index = b.length-1; index+1 > 0; index--) {\r\n            addr += uint(uint8(b[index])) * ( 16 ** ((b.length - index - 1) * 2));\r\n        }\r\n        //to-do check if address exists\r\n\r\n        return address(addr);\r\n    }\r\n\r\n    function checkPairing(uint[] memory _pairingList) public view returns(bool) {\r\n        bool check = false;\r\n        if(pairing.length != 0 && _pairingList.length != 0){\r\n            for(uint i = 0; i<_pairingList.length;i++) {\r\n                if(pair[_pairingList[i]].active == 1)\r\n                    check = true;\r\n                else {\r\n                    check = false;\r\n                    break;\r\n                }\r\n            }\r\n        }\r\n        return check;\r\n    }\r\n\r\n    function newLend(uint _ltv,uint _interest, uint _issueAmt, PaymentTerm _paymentTerm, uint[] memory _pairingList ) public payable {\r\n        require(msg.value > _issueAmt,' Message value should be more than the issue amount');\r\n        require(_ltv < 100, ' LTV should be less than and equal 100');\r\n        require(checkPairing(_pairingList) == true, 'Invalid pairing');\r\n        address tempAddr = getUniqueId();\r\n\r\n        lends[tempAddr] = Lend(msg.sender,_ltv,_interest,_issueAmt,_issueAmt,_paymentTerm,2147483647,now,_pairingList,LendStatus.ACTIVE);\r\n\r\n        lendList.push(tempAddr);\r\n        activeLoan[tempAddr] = 0;\r\n    }\r\n\r\n    function checkLend(address _address) public view returns (address, uint,uint,uint,uint,uint,uint,uint,uint[] memory) {\r\n        //string memory retJSON = '{ '+'';\r\n        Lend memory tempLend = lends[_address];\r\n        return (tempLend.lendAddress,tempLend.ltv,tempLend.interest,tempLend.issueAmt,tempLend.currentAmt,uint(tempLend.paymentTerm),tempLend.endDate,tempLend.startDate,tempLend.pairing);\r\n    }\r\n\r\n    function getAllLend() external view returns (address[] memory) {\r\n        return lendList;\r\n    }\r\n\r\n    function checkActiveBorrower(address _address) public view returns(bool) {\r\n        Lend memory tempLend = lends[_address];\r\n        if(tempLend.lendStatus == LendStatus.RUNNING || activeLoan[_address] > 0) {\r\n            return true;\r\n        }\r\n        return false;\r\n    }\r\n\r\n    function closeLend(address _lendId) public payable {\r\n        //Lend memory tempLend = lends[_lendId];\r\n        require(msg.sender == lends[_lendId].lendAddress,'Only lend owner can close the loan.');\r\n        require(lends[_lendId].lendStatus != LendStatus.INACTIVE, ' Loan not active');\r\n        //to-do only allow if there is no active borrower in loan account\r\n        if(lends[_lendId].lendStatus == LendStatus.ACTIVE && lends[_lendId].currentAmt > 0) {\r\n            lends[_lendId].lendStatus = LendStatus.INACTIVE;\r\n            msg.sender.transfer(lends[_lendId].currentAmt);\r\n            lends[_lendId].currentAmt = 0;\r\n        }\r\n        else if (lends[_lendId].lendStatus == LendStatus.RUNNING) {\r\n            lends[_lendId].lendStatus = LendStatus.SUSPEND;\r\n        }\r\n        else if (lends[_lendId].lendStatus == LendStatus.SUSPEND && activeLoan[_lendId] == 0){\r\n            lends[_lendId].lendStatus = LendStatus.INACTIVE;\r\n            msg.sender.transfer(lends[_lendId].currentAmt);\r\n            lends[_lendId].currentAmt = 0;\r\n        }\r\n    }\r\n\r\n    function checkpairingExist(address _lendId,uint _pairingId)  private view returns (bool) {\r\n        for(uint i = 0; i<lends[_lendId].pairing.length; i++) {\r\n            if(lends[_lendId].pairing[i] == _pairingId) {\r\n                return true;\r\n            }\r\n        }\r\n        return false;\r\n    }\r\n\r\n    //Date Related Section - Start\r\n    function calcNextDay(uint _epoch) public view returns (uint) {\r\n        uint x = addmod(_epoch,0,epochDay);\r\n        return (_epoch - x + epochDay);\r\n    }\r\n\r\n    function calcStartDay(uint _epoch) public view returns(uint) {\r\n        return (_epoch - addmod(_epoch,0,epochDay));\r\n    }\r\n\r\n    function calcNextCycle(uint _epoch,uint _period) public view returns(uint) {\r\n        uint nextCycle = 0;\r\n        do {\r\n           nextCycle = (calcNextDay(_epoch) + (convertDayToEpoch(_period)));\r\n        }while(nextCycle <= calcStartDay(now));\r\n        return nextCycle;\r\n    }\r\n\r\n    function getPaymentDay(uint _payTerm) private pure returns (uint) {\r\n        if (_payTerm == 0)\r\n            return 7;\r\n        else if (_payTerm == 1)\r\n            return 30;\r\n        else if (_payTerm == 2)\r\n            return 90;\r\n        else if (_payTerm == 3)\r\n            return 180;\r\n        else\r\n            return 360;\r\n    }\r\n\r\n    function convertDayToEpoch(uint _day) public pure returns(uint) {\r\n        return uint(_day*60*60*24);\r\n    }\r\n\r\n    //Date Related Section - End\r\n\r\n    function calcCollatAmt(uint _lendAmt,uint _ltv) public pure returns (uint) {\r\n        return (10000/_ltv * _lendAmt)/100;\r\n    }\r\n\r\n    function borrowLend(address _lendId, uint _lendAmt, uint _pairingId) public payable {\r\n        //require(msg.value > _lendAmt, 'Message value must be more than lend amount');\r\n        require(lends[_lendId].lendStatus == LendStatus.ACTIVE || lends[_lendId].lendStatus == LendStatus.RUNNING, ' Lend account is inactive/suspended');\r\n        require(_lendAmt <= lends[_lendId].currentAmt && _lendAmt <= lends[_lendId].issueAmt,' Lend amount cannot be more than issue amount and current amount');\r\n        require(msg.value >= calcCollatAmt(_lendAmt,lends[_lendId].ltv), 'Message value have to be more than the loan to value amount of lend amount');\r\n        require(checkpairingExist(_lendId,_pairingId) == true, 'Pairing must exists');\r\n        if(lends[_lendId].lendStatus == LendStatus.ACTIVE) {\r\n            lends[_lendId].lendStatus = LendStatus.RUNNING;\r\n        }\r\n\r\n        lends[_lendId].currentAmt -= _lendAmt;\r\n        msg.sender.transfer(_lendAmt);\r\n        uint current = now;\r\n        address tempAddr = getUniqueId();\r\n        borrows[tempAddr] = Borrow(msg.sender,1,_lendId,_lendAmt,_pairingId,BorrowStatus.ACTIVE,current,2147483647,current,calcNextCycle(current,getPaymentDay(uint(lends[_lendId].paymentTerm))),calcCollatAmt(_lendAmt,lends[_lendId].ltv));\r\n\r\n        borrowList.push(tempAddr);\r\n        activeLoan[tempAddr] += 1;\r\n    }\r\n\r\n    //Calculate interest - Start\r\n    function division(uint _numerator, uint _denominator) public view returns(uint) {\r\n\r\n         // caution, check safe-to-multiply here\r\n        uint numerator  = _numerator * 10 ** (precision+1);\r\n        // with rounding of last digit\r\n        uint quotient =  ((numerator / _denominator) + 5) / 10;\r\n        return quotient;\r\n    }\r\n    \r\n    function interestAmt(uint _interest,uint _payTerm,uint _borrowAmt) public view returns (uint) {\r\n        if(_borrowAmt == 0) {\r\n            return 0;\r\n        }\r\n        uint period = getPaymentDay(_payTerm);\r\n        uint calcInterest = uint( division(_interest,100) * division(period,dayCount) * _borrowAmt/10000000000);\r\n        return calcInterest ;\r\n    }\r\n\r\n    function lateInterestAmt(uint _interest,uint _payTerm,uint _borrowAmt,uint _lastPaymentDate) public view returns(uint) {\r\n        uint period = convertDayToEpoch(getPaymentDay(_payTerm));\r\n\r\n        if((_lastPaymentDate + period) > now ) {\r\n            uint accurIntrDay = now - _lastPaymentDate + period;\r\n            return uint((accurIntrDay/dayCount) * (_interest + lateCharge) * uint(_borrowAmt));\r\n        }\r\n        return 0;\r\n    }\r\n\r\n    function totalInterestAmt(uint _interest,uint _payTerm,uint _borrowAmt,uint _lastPaymentDate) public view returns (uint) {\r\n        return (interestAmt(_interest,_payTerm,_borrowAmt) + lateInterestAmt(_interest,_payTerm,_borrowAmt,_lastPaymentDate));\r\n    }\r\n\r\n    //Calculate interest - End\r\n\r\n    function payInterest(address _borrowId) public payable {\r\n        require(borrows[_borrowId].borrowStatus == BorrowStatus.ACTIVE, 'Invalid borrow');\r\n        require(msg.value >= totalInterestAmt(lends[borrows[_borrowId].lendId].interest,uint(lends[borrows[_borrowId].lendId].paymentTerm),borrows[_borrowId].borrowAmt,borrows[_borrowId].lastPaymentDate),'Insucifficent amount');\r\n        uint current = now;\r\n        uint nextPayDate = borrows[_borrowId].nextPaymentDateBy;\r\n        borrows[_borrowId].lastPaymentDate = current;\r\n        borrows[_borrowId].nextPaymentDateBy = calcNextCycle(nextPayDate,uint(lends[borrows[_borrowId].lendId].paymentTerm));\r\n    }\r\n\r\n    function closeBorrow(address _borrowId) public payable {\r\n        require(msg.sender == borrows[_borrowId].borrowAddress,' Must be borrows borrower');\r\n        require(borrows[_borrowId].collatAmt > 0,' Collateral Amount no more');\r\n        require(activeLoan[borrows[_borrowId].lendId] > 0,' No active loan');\r\n        msg.sender.transfer(borrows[_borrowId].collatAmt);\r\n        borrows[_borrowId].collatAmt = 0;\r\n        activeLoan[borrows[_borrowId].lendId] -= 1;\r\n    }\r\n\r\n    //Test\r\n\r\n    function getMsgSenderBalance(address _sender) public view returns (uint){\r\n        return _sender.balance;\r\n    }\r\n\r\n}",
  "sourcePath": "C:/Users/iy3uu/Documents/GitHub/loancontract-eth/contracts/eth_p2p_loan.sol",
  "compiler": {
    "name": "solc",
    "version": "0.5.12+commit.7709ece9.Emscripten.clang"
  },
  "schemaVersion": "3.0.19",
  "updatedAt": "2019-12-02T08:55:35.773Z",
  "devdoc": {
    "methods": {}
  },
  "userdoc": {
    "methods": {}
  }
}