{
  "contractName": "EthLoan",
  "abi": [
    {
      "inputs": [],
      "payable": false,
      "stateMutability": "nonpayable",
      "type": "constructor"
    },
    {
      "anonymous": false,
      "inputs": [
        {
          "indexed": false,
          "internalType": "address",
          "name": "_borrowId",
          "type": "address"
        },
        {
          "indexed": false,
          "internalType": "uint256",
          "name": "_borrowStatus",
          "type": "uint256"
        }
      ],
      "name": "closeBorrowCreated",
      "type": "event"
    },
    {
      "anonymous": false,
      "inputs": [
        {
          "indexed": false,
          "internalType": "address",
          "name": "_lendId",
          "type": "address"
        },
        {
          "indexed": false,
          "internalType": "uint256",
          "name": "_lendStatus",
          "type": "uint256"
        }
      ],
      "name": "closeLendCreated",
      "type": "event"
    },
    {
      "anonymous": false,
      "inputs": [
        {
          "indexed": false,
          "internalType": "address",
          "name": "_lendId",
          "type": "address"
        },
        {
          "indexed": false,
          "internalType": "address",
          "name": "_borrowId",
          "type": "address"
        }
      ],
      "name": "interestPayment",
      "type": "event"
    },
    {
      "anonymous": false,
      "inputs": [
        {
          "components": [
            {
              "internalType": "address",
              "name": "borrowAddress",
              "type": "address"
            },
            {
              "internalType": "uint256",
              "name": "exchRate",
              "type": "uint256"
            },
            {
              "internalType": "address",
              "name": "lendId",
              "type": "address"
            },
            {
              "internalType": "uint256",
              "name": "borrowAmt",
              "type": "uint256"
            },
            {
              "internalType": "uint256",
              "name": "pairing",
              "type": "uint256"
            },
            {
              "internalType": "enum EthLoan.BorrowStatus",
              "name": "borrowStatus",
              "type": "uint8"
            },
            {
              "internalType": "uint256",
              "name": "borrowStartDate",
              "type": "uint256"
            },
            {
              "internalType": "uint256",
              "name": "borrowEndDate",
              "type": "uint256"
            },
            {
              "internalType": "uint256",
              "name": "lastPaymentDate",
              "type": "uint256"
            },
            {
              "internalType": "uint256",
              "name": "nextPaymentDateBy",
              "type": "uint256"
            },
            {
              "internalType": "uint256",
              "name": "collatAmt",
              "type": "uint256"
            }
          ],
          "indexed": false,
          "internalType": "struct EthLoan.Borrow",
          "name": "",
          "type": "tuple"
        }
      ],
      "name": "newBorrowCreated",
      "type": "event"
    },
    {
      "anonymous": false,
      "inputs": [
        {
          "components": [
            {
              "internalType": "address",
              "name": "lendAddress",
              "type": "address"
            },
            {
              "internalType": "uint256",
              "name": "ltv",
              "type": "uint256"
            },
            {
              "internalType": "uint256",
              "name": "interest",
              "type": "uint256"
            },
            {
              "internalType": "uint256",
              "name": "issueAmt",
              "type": "uint256"
            },
            {
              "internalType": "uint256",
              "name": "currentAmt",
              "type": "uint256"
            },
            {
              "internalType": "enum EthLoan.PaymentTerm",
              "name": "paymentTerm",
              "type": "uint8"
            },
            {
              "internalType": "uint256",
              "name": "endDate",
              "type": "uint256"
            },
            {
              "internalType": "uint256",
              "name": "startDate",
              "type": "uint256"
            },
            {
              "internalType": "uint256[]",
              "name": "pairing",
              "type": "uint256[]"
            },
            {
              "internalType": "enum EthLoan.LendStatus",
              "name": "lendStatus",
              "type": "uint8"
            }
          ],
          "indexed": false,
          "internalType": "struct EthLoan.Lend",
          "name": "",
          "type": "tuple"
        }
      ],
      "name": "newLendCreated",
      "type": "event"
    },
    {
      "constant": true,
      "inputs": [
        {
          "internalType": "uint256",
          "name": "",
          "type": "uint256"
        }
      ],
      "name": "borrowList",
      "outputs": [
        {
          "internalType": "address",
          "name": "",
          "type": "address"
        }
      ],
      "payable": false,
      "stateMutability": "view",
      "type": "function"
    },
    {
      "constant": true,
      "inputs": [
        {
          "internalType": "uint256",
          "name": "",
          "type": "uint256"
        }
      ],
      "name": "lendList",
      "outputs": [
        {
          "internalType": "address",
          "name": "",
          "type": "address"
        }
      ],
      "payable": false,
      "stateMutability": "view",
      "type": "function"
    },
    {
      "constant": true,
      "inputs": [
        {
          "internalType": "uint256",
          "name": "",
          "type": "uint256"
        }
      ],
      "name": "pairing",
      "outputs": [
        {
          "internalType": "uint256",
          "name": "",
          "type": "uint256"
        }
      ],
      "payable": false,
      "stateMutability": "view",
      "type": "function"
    },
    {
      "constant": true,
      "inputs": [
        {
          "internalType": "uint256",
          "name": "",
          "type": "uint256"
        }
      ],
      "name": "transactionList",
      "outputs": [
        {
          "internalType": "address",
          "name": "",
          "type": "address"
        }
      ],
      "payable": false,
      "stateMutability": "view",
      "type": "function"
    },
    {
      "constant": true,
      "inputs": [
        {
          "internalType": "address",
          "name": "_baseCurry",
          "type": "address"
        },
        {
          "internalType": "address",
          "name": "_counterCurry",
          "type": "address"
        }
      ],
      "name": "checkExistsPairing",
      "outputs": [
        {
          "internalType": "uint8",
          "name": "",
          "type": "uint8"
        }
      ],
      "payable": false,
      "stateMutability": "view",
      "type": "function"
    },
    {
      "constant": false,
      "inputs": [
        {
          "internalType": "address",
          "name": "_baseCurry",
          "type": "address"
        },
        {
          "internalType": "address",
          "name": "_counterCurry",
          "type": "address"
        },
        {
          "internalType": "string",
          "name": "_desc",
          "type": "string"
        }
      ],
      "name": "addPairing",
      "outputs": [],
      "payable": false,
      "stateMutability": "nonpayable",
      "type": "function"
    },
    {
      "constant": true,
      "inputs": [],
      "name": "getNoPairing",
      "outputs": [
        {
          "internalType": "uint256",
          "name": "",
          "type": "uint256"
        }
      ],
      "payable": false,
      "stateMutability": "view",
      "type": "function"
    },
    {
      "constant": false,
      "inputs": [
        {
          "internalType": "uint256",
          "name": "_index",
          "type": "uint256"
        }
      ],
      "name": "deactivePairing",
      "outputs": [],
      "payable": false,
      "stateMutability": "nonpayable",
      "type": "function"
    },
    {
      "constant": true,
      "inputs": [],
      "name": "getNoPairingActive",
      "outputs": [
        {
          "internalType": "uint256",
          "name": "",
          "type": "uint256"
        }
      ],
      "payable": false,
      "stateMutability": "view",
      "type": "function"
    },
    {
      "constant": false,
      "inputs": [
        {
          "internalType": "uint256",
          "name": "_index",
          "type": "uint256"
        }
      ],
      "name": "activePairing",
      "outputs": [],
      "payable": false,
      "stateMutability": "nonpayable",
      "type": "function"
    },
    {
      "constant": true,
      "inputs": [],
      "name": "getBlock",
      "outputs": [
        {
          "internalType": "uint256",
          "name": "",
          "type": "uint256"
        }
      ],
      "payable": false,
      "stateMutability": "view",
      "type": "function"
    },
    {
      "constant": true,
      "inputs": [],
      "name": "getOwner",
      "outputs": [
        {
          "internalType": "address",
          "name": "",
          "type": "address"
        }
      ],
      "payable": false,
      "stateMutability": "view",
      "type": "function"
    },
    {
      "constant": true,
      "inputs": [],
      "name": "getContractBalance",
      "outputs": [
        {
          "internalType": "uint256",
          "name": "",
          "type": "uint256"
        }
      ],
      "payable": false,
      "stateMutability": "view",
      "type": "function"
    },
    {
      "constant": true,
      "inputs": [],
      "name": "getUniqueId",
      "outputs": [
        {
          "internalType": "address",
          "name": "",
          "type": "address"
        }
      ],
      "payable": false,
      "stateMutability": "view",
      "type": "function"
    },
    {
      "constant": true,
      "inputs": [
        {
          "internalType": "uint256[]",
          "name": "_pairingList",
          "type": "uint256[]"
        }
      ],
      "name": "checkPairing",
      "outputs": [
        {
          "internalType": "bool",
          "name": "",
          "type": "bool"
        }
      ],
      "payable": false,
      "stateMutability": "view",
      "type": "function"
    },
    {
      "constant": false,
      "inputs": [
        {
          "internalType": "uint256",
          "name": "_ltv",
          "type": "uint256"
        },
        {
          "internalType": "uint256",
          "name": "_interest",
          "type": "uint256"
        },
        {
          "internalType": "uint256",
          "name": "_issueAmt",
          "type": "uint256"
        },
        {
          "internalType": "uint256",
          "name": "_paymentTerm",
          "type": "uint256"
        },
        {
          "internalType": "uint256[]",
          "name": "_pairingList",
          "type": "uint256[]"
        }
      ],
      "name": "newLend",
      "outputs": [],
      "payable": true,
      "stateMutability": "payable",
      "type": "function"
    },
    {
      "constant": true,
      "inputs": [
        {
          "internalType": "address",
          "name": "_address",
          "type": "address"
        }
      ],
      "name": "checkLend",
      "outputs": [
        {
          "internalType": "address",
          "name": "",
          "type": "address"
        },
        {
          "internalType": "uint256",
          "name": "",
          "type": "uint256"
        },
        {
          "internalType": "uint256",
          "name": "",
          "type": "uint256"
        },
        {
          "internalType": "uint256",
          "name": "",
          "type": "uint256"
        },
        {
          "internalType": "uint256",
          "name": "",
          "type": "uint256"
        },
        {
          "internalType": "uint256",
          "name": "",
          "type": "uint256"
        },
        {
          "internalType": "uint256",
          "name": "",
          "type": "uint256"
        },
        {
          "internalType": "uint256",
          "name": "",
          "type": "uint256"
        },
        {
          "internalType": "uint256[]",
          "name": "",
          "type": "uint256[]"
        },
        {
          "internalType": "uint256",
          "name": "",
          "type": "uint256"
        }
      ],
      "payable": false,
      "stateMutability": "view",
      "type": "function"
    },
    {
      "constant": true,
      "inputs": [
        {
          "internalType": "address",
          "name": "_address",
          "type": "address"
        }
      ],
      "name": "getLendInfo",
      "outputs": [
        {
          "components": [
            {
              "internalType": "address",
              "name": "lendAddress",
              "type": "address"
            },
            {
              "internalType": "uint256",
              "name": "ltv",
              "type": "uint256"
            },
            {
              "internalType": "uint256",
              "name": "interest",
              "type": "uint256"
            },
            {
              "internalType": "uint256",
              "name": "issueAmt",
              "type": "uint256"
            },
            {
              "internalType": "uint256",
              "name": "currentAmt",
              "type": "uint256"
            },
            {
              "internalType": "enum EthLoan.PaymentTerm",
              "name": "paymentTerm",
              "type": "uint8"
            },
            {
              "internalType": "uint256",
              "name": "endDate",
              "type": "uint256"
            },
            {
              "internalType": "uint256",
              "name": "startDate",
              "type": "uint256"
            },
            {
              "internalType": "uint256[]",
              "name": "pairing",
              "type": "uint256[]"
            },
            {
              "internalType": "enum EthLoan.LendStatus",
              "name": "lendStatus",
              "type": "uint8"
            }
          ],
          "internalType": "struct EthLoan.Lend",
          "name": "",
          "type": "tuple"
        }
      ],
      "payable": false,
      "stateMutability": "view",
      "type": "function"
    },
    {
      "constant": true,
      "inputs": [],
      "name": "getAllLend",
      "outputs": [
        {
          "internalType": "address[]",
          "name": "",
          "type": "address[]"
        }
      ],
      "payable": false,
      "stateMutability": "view",
      "type": "function"
    },
    {
      "constant": true,
      "inputs": [
        {
          "internalType": "address",
          "name": "_address",
          "type": "address"
        }
      ],
      "name": "checkActiveBorrower",
      "outputs": [
        {
          "internalType": "bool",
          "name": "",
          "type": "bool"
        }
      ],
      "payable": false,
      "stateMutability": "view",
      "type": "function"
    },
    {
      "constant": false,
      "inputs": [
        {
          "internalType": "address",
          "name": "_lendId",
          "type": "address"
        }
      ],
      "name": "closeLend",
      "outputs": [],
      "payable": true,
      "stateMutability": "payable",
      "type": "function"
    },
    {
      "constant": true,
      "inputs": [
        {
          "internalType": "uint256",
          "name": "_epoch",
          "type": "uint256"
        }
      ],
      "name": "calcNextDay",
      "outputs": [
        {
          "internalType": "uint256",
          "name": "",
          "type": "uint256"
        }
      ],
      "payable": false,
      "stateMutability": "view",
      "type": "function"
    },
    {
      "constant": true,
      "inputs": [
        {
          "internalType": "uint256",
          "name": "_epoch",
          "type": "uint256"
        }
      ],
      "name": "calcStartDay",
      "outputs": [
        {
          "internalType": "uint256",
          "name": "",
          "type": "uint256"
        }
      ],
      "payable": false,
      "stateMutability": "view",
      "type": "function"
    },
    {
      "constant": true,
      "inputs": [
        {
          "internalType": "uint256",
          "name": "_epoch",
          "type": "uint256"
        },
        {
          "internalType": "uint256",
          "name": "_period",
          "type": "uint256"
        }
      ],
      "name": "calcNextCycle",
      "outputs": [
        {
          "internalType": "uint256",
          "name": "",
          "type": "uint256"
        }
      ],
      "payable": false,
      "stateMutability": "view",
      "type": "function"
    },
    {
      "constant": true,
      "inputs": [
        {
          "internalType": "uint256",
          "name": "_day",
          "type": "uint256"
        }
      ],
      "name": "convertDayToEpoch",
      "outputs": [
        {
          "internalType": "uint256",
          "name": "",
          "type": "uint256"
        }
      ],
      "payable": false,
      "stateMutability": "pure",
      "type": "function"
    },
    {
      "constant": true,
      "inputs": [
        {
          "internalType": "uint256",
          "name": "_lendAmt",
          "type": "uint256"
        },
        {
          "internalType": "uint256",
          "name": "_ltv",
          "type": "uint256"
        }
      ],
      "name": "calcCollatAmt",
      "outputs": [
        {
          "internalType": "uint256",
          "name": "",
          "type": "uint256"
        }
      ],
      "payable": false,
      "stateMutability": "pure",
      "type": "function"
    },
    {
      "constant": false,
      "inputs": [
        {
          "internalType": "address",
          "name": "_lendId",
          "type": "address"
        },
        {
          "internalType": "uint256",
          "name": "_lendAmt",
          "type": "uint256"
        },
        {
          "internalType": "uint256",
          "name": "_pairingId",
          "type": "uint256"
        },
        {
          "internalType": "uint256",
          "name": "_epoch",
          "type": "uint256"
        }
      ],
      "name": "borrowLend",
      "outputs": [],
      "payable": true,
      "stateMutability": "payable",
      "type": "function"
    },
    {
      "constant": true,
      "inputs": [
        {
          "internalType": "uint256",
          "name": "_numerator",
          "type": "uint256"
        },
        {
          "internalType": "uint256",
          "name": "_denominator",
          "type": "uint256"
        }
      ],
      "name": "division",
      "outputs": [
        {
          "internalType": "uint256",
          "name": "",
          "type": "uint256"
        }
      ],
      "payable": false,
      "stateMutability": "view",
      "type": "function"
    },
    {
      "constant": true,
      "inputs": [
        {
          "internalType": "uint256",
          "name": "_interest",
          "type": "uint256"
        },
        {
          "internalType": "uint256",
          "name": "_payTerm",
          "type": "uint256"
        },
        {
          "internalType": "uint256",
          "name": "_borrowAmt",
          "type": "uint256"
        }
      ],
      "name": "interestAmt",
      "outputs": [
        {
          "internalType": "uint256",
          "name": "",
          "type": "uint256"
        }
      ],
      "payable": false,
      "stateMutability": "view",
      "type": "function"
    },
    {
      "constant": true,
      "inputs": [
        {
          "internalType": "uint256",
          "name": "_interest",
          "type": "uint256"
        },
        {
          "internalType": "uint256",
          "name": "_payTerm",
          "type": "uint256"
        },
        {
          "internalType": "uint256",
          "name": "_borrowAmt",
          "type": "uint256"
        },
        {
          "internalType": "uint256",
          "name": "_lastPaymentDate",
          "type": "uint256"
        },
        {
          "internalType": "uint256",
          "name": "_currentEpoch",
          "type": "uint256"
        }
      ],
      "name": "lateInterestAmt",
      "outputs": [
        {
          "internalType": "uint256",
          "name": "",
          "type": "uint256"
        }
      ],
      "payable": false,
      "stateMutability": "view",
      "type": "function"
    },
    {
      "constant": true,
      "inputs": [
        {
          "internalType": "uint256",
          "name": "_interest",
          "type": "uint256"
        },
        {
          "internalType": "uint256",
          "name": "_payTerm",
          "type": "uint256"
        },
        {
          "internalType": "uint256",
          "name": "_borrowAmt",
          "type": "uint256"
        },
        {
          "internalType": "uint256",
          "name": "_lastPaymentDate",
          "type": "uint256"
        },
        {
          "internalType": "uint256",
          "name": "_current",
          "type": "uint256"
        }
      ],
      "name": "totalInterestAmt",
      "outputs": [
        {
          "internalType": "uint256",
          "name": "",
          "type": "uint256"
        }
      ],
      "payable": false,
      "stateMutability": "view",
      "type": "function"
    },
    {
      "constant": true,
      "inputs": [],
      "name": "getAllBorrow",
      "outputs": [
        {
          "internalType": "address[]",
          "name": "",
          "type": "address[]"
        }
      ],
      "payable": false,
      "stateMutability": "view",
      "type": "function"
    },
    {
      "constant": true,
      "inputs": [
        {
          "internalType": "address",
          "name": "_borrowId",
          "type": "address"
        }
      ],
      "name": "getBorrowInfo",
      "outputs": [
        {
          "components": [
            {
              "internalType": "address",
              "name": "borrowAddress",
              "type": "address"
            },
            {
              "internalType": "uint256",
              "name": "exchRate",
              "type": "uint256"
            },
            {
              "internalType": "address",
              "name": "lendId",
              "type": "address"
            },
            {
              "internalType": "uint256",
              "name": "borrowAmt",
              "type": "uint256"
            },
            {
              "internalType": "uint256",
              "name": "pairing",
              "type": "uint256"
            },
            {
              "internalType": "enum EthLoan.BorrowStatus",
              "name": "borrowStatus",
              "type": "uint8"
            },
            {
              "internalType": "uint256",
              "name": "borrowStartDate",
              "type": "uint256"
            },
            {
              "internalType": "uint256",
              "name": "borrowEndDate",
              "type": "uint256"
            },
            {
              "internalType": "uint256",
              "name": "lastPaymentDate",
              "type": "uint256"
            },
            {
              "internalType": "uint256",
              "name": "nextPaymentDateBy",
              "type": "uint256"
            },
            {
              "internalType": "uint256",
              "name": "collatAmt",
              "type": "uint256"
            }
          ],
          "internalType": "struct EthLoan.Borrow",
          "name": "",
          "type": "tuple"
        }
      ],
      "payable": false,
      "stateMutability": "view",
      "type": "function"
    },
    {
      "constant": false,
      "inputs": [
        {
          "internalType": "address",
          "name": "_borrowId",
          "type": "address"
        }
      ],
      "name": "payInterest",
      "outputs": [],
      "payable": true,
      "stateMutability": "payable",
      "type": "function"
    },
    {
      "constant": false,
      "inputs": [
        {
          "internalType": "address",
          "name": "_borrowId",
          "type": "address"
        }
      ],
      "name": "closeBorrow",
      "outputs": [],
      "payable": true,
      "stateMutability": "payable",
      "type": "function"
    }
  ],
  "bytecode": "0x6080604052600a805461ffff60a01b1916750168000000000000000000000000000000000000000017905560c8600b5562015180600c553480156200004357600080fd5b506040805180820190915260118082527f636f6e7374727563746f722076616c756500000000000000000000000000000060209092019182526200008a91600091620000a8565b50600a80546001600160a01b031916331790556004600d556200014d565b828054600181600116156101000203166002900490600052602060002090601f016020900481019282601f10620000eb57805160ff19168380011785556200011b565b828001600101855582156200011b579182015b828111156200011b578251825591602001919060010190620000fe565b50620001299291506200012d565b5090565b6200014a91905b8082111562000129576000815560010162000134565b90565b61347e806200015d6000396000f3fe6080604052600436106102045760003560e01c80637d9cdf9a11610118578063d4b8ca1f116100a0578063ec3e5bf41161006f578063ec3e5bf414610592578063eda8d887146105b2578063f2e288b7146105d2578063f4b901e8146105ff578063f5c0b4fc1461062c57610204565b8063d4b8ca1f14610510578063ddb6c81114610525578063df073e0d14610545578063e00680521461057257610204565b8063ae44bfc5116100e7578063ae44bfc51461047d578063b3d771fa1461049d578063c8707ef8146104bd578063cdc32901146104dd578063d007c644146104fd57610204565b80637d9cdf9a146103fd578063893d20e814610433578063920ab09f14610448578063ab63d7f21461046857610204565b80634a57a64c1161019b5780636a8817331161016a5780636a881733146103755780636f0de9a0146103885780636f9fb98a146103a857806371bfbd4e146103bd57806375c85c24146103d057610204565b80634a57a64c146103005780634ae1d90f146103205780634c756b5e1461034057806360b258931461035557610204565b80632e97766d116101d75780632e97766d14610296578063375eeeb9146102b85780633903a322146102cb5780633d9f5117146102eb57610204565b806304ef5b21146102095780631313a1611461023f578063276d2a721461026157806329a9c25814610283575b600080fd5b34801561021557600080fd5b5061022961022436600461237d565b61064c565b6040516102369190613024565b60405180910390f35b34801561024b57600080fd5b5061025f61025a36600461237d565b610673565b005b34801561026d57600080fd5b506102766106e6565b6040516102369190613104565b61025f610291366004612222565b610749565b3480156102a257600080fd5b506102ab610a26565b60405161023691906132a3565b61025f6102c636600461240e565b610a2a565b3480156102d757600080fd5b506102ab6102e636600461239b565b610ca3565b3480156102f757600080fd5b506102ab610cc6565b34801561030c57600080fd5b506102ab61031b36600461237d565b610d28565b34801561032c57600080fd5b506102ab61033b3660046123cb565b610d42565b34801561034c57600080fd5b506102ab610da6565b34801561036157600080fd5b5061025f61037036600461237d565b610dac565b61025f6103833660046122e7565b610e12565b34801561039457600080fd5b506102ab6103a336600461237d565b61127d565b3480156103b457600080fd5b506102ab61129c565b61025f6103cb366004612222565b6112a1565b3480156103dc57600080fd5b506103f06103eb366004612348565b6113de565b6040516102369190613115565b34801561040957600080fd5b5061041d610418366004612222565b61145f565b6040516102369a99989796959493929190613068565b34801561043f57600080fd5b506102296115f9565b34801561045457600080fd5b5061022961046336600461237d565b611608565b34801561047457600080fd5b50610229611615565b34801561048957600080fd5b506102ab61049836600461239b565b611686565b3480156104a957600080fd5b506102ab6104b836600461249b565b6116b6565b3480156104c957600080fd5b506102296104d836600461237d565b61174a565b3480156104e957600080fd5b5061025f6104f8366004612282565b611757565b61025f61050b366004612222565b61187b565b34801561051c57600080fd5b50610276611a44565b34801561053157600080fd5b506102ab61054036600461249b565b611aa4565b34801561055157600080fd5b50610565610560366004612222565b611ac9565b6040516102369190613281565b34801561057e57600080fd5b506102ab61058d36600461239b565b611be7565b34801561059e57600080fd5b506103f06105ad366004612222565b611c19565b3480156105be57600080fd5b506102ab6105cd36600461237d565b611d83565b3480156105de57600080fd5b506105f26105ed366004612222565b611d8b565b6040516102369190613263565b34801561060b57600080fd5b5061061f61061a366004612248565b611e50565b60405161023691906132b1565b34801561063857600080fd5b506102ab61064736600461237d565b611ec4565b6007818154811061065957fe5b6000918252602090912001546001600160a01b0316905081565b600a546001600160a01b031633146106a65760405162461bcd60e51b815260040161069d90613133565b60405180910390fd5b6005548111156106c85760405162461bcd60e51b815260040161069d90613143565b6000908152600960205260409020600301805460ff19166001179055565b6060600480548060200260200160405190810160405280929190818152602001828054801561073e57602002820191906000526020600020905b81546001600160a01b03168152600190910190602001808311610720575b505050505090505b90565b6001600160a01b038181166000908152600160205260409020541633146107825760405162461bcd60e51b815260040161069d90613183565b60026001600160a01b03821660009081526001602052604090206009015460ff1660038111156107ae57fe5b14156107cc5760405162461bcd60e51b815260040161069d906131e3565b6001600160a01b03811660009081526001602052604081206009015460ff1660038111156107f657fe5b14801561081d57506001600160a01b03811660009081526001602052604090206004015415155b1561089a576001600160a01b03811660009081526001602052604080822060098101805460ff1916600217905560040154905133926108fc831502929190818181858888f19350505050158015610878573d6000803e3d6000fd5b506001600160a01b0381166000908152600160205260408120600401556109bf565b60016001600160a01b03821660009081526001602052604090206009015460ff1660038111156108c657fe5b14156108f7576001600160a01b0381166000908152600160205260409020600901805460ff191660031790556109bf565b60036001600160a01b03821660009081526001602052604090206009015460ff16600381111561092357fe5b14801561094657506001600160a01b038116600090815260086020526040902054155b156109bf576001600160a01b03811660009081526001602052604080822060098101805460ff1916600217905560040154905133926108fc831502929190818181858888f193505050501580156109a1573d6000803e3d6000fd5b506001600160a01b0381166000908152600160205260408120600401555b6001600160a01b0381166000908152600160205260409020600901547f958ebdf6a002b7ea4aec1325a0ec92b8d116d137336a9bfc8d54e5dd9ef00b4590829060ff166003811115610a0d57fe5b604051610a1b92919061304d565b60405180910390a150565b4290565b823411610a495760405162461bcd60e51b815260040161069d90613163565b60648510610a695760405162461bcd60e51b815260040161069d90613223565b610a72816113de565b1515600114610a935760405162461bcd60e51b815260040161069d90613203565b6003821115610ab45760405162461bcd60e51b815260040161069d906131b3565b6000610abe611615565b9050604051806101400160405280336001600160a01b03168152602001878152602001868152602001858152602001858152602001846003811115610aff57fe5b6003811115610b0a57fe5b8152637fffffff602082015242604082015260608101849052608001600090526001600160a01b03828116600090815260016020818152604092839020855181546001600160a01b03191695169490941784558401518382015590830151600283015560608301516003808401919091556080840151600484015560a08401516005840180549193909260ff19909216918490811115610ba657fe5b021790555060c0820151600682015560e082015160078201556101008201518051610bdb916008840191602090910190611fa1565b5061012082015160098201805460ff19166001836003811115610bfa57fe5b0217905550506004805460018082019092557f8a35acfbc15ff81a39ae7d344fd709f28e8600b4aa8c65c6b64bfe7fe36bd19b0180546001600160a01b0319166001600160a01b038516908117909155600090815260086020908152604080832083905592905281902090517f895b2c5ed63d6e3eea328246d782dd49d0251331f8e7c7ea44cddf46d1b4f85b9250610c939190613292565b60405180910390a1505050505050565b60006064838361271081610cb357fe5b040281610cbc57fe5b0490505b92915050565b600554600090610ce85760405162461bcd60e51b815260040161069d90613173565b6000805b600554811015610d225760008181526009602052604090206003015460ff1660011415610d1a576001909101905b600101610cec565b50905090565b6000600c5480610d3457fe5b60008308820390505b919050565b600081610d5157506000610d9f565b6000610d5c84611ee2565b905060006402540be40084610d8584600a60149054906101000a900461ffff1661ffff16611be7565b610d90896064611be7565b020281610d9957fe5b04925050505b9392505050565b60055490565b600a546001600160a01b03163314610dd65760405162461bcd60e51b815260040161069d906131f3565b6005548110610df75760405162461bcd60e51b815260040161069d90613143565b6000908152600960205260409020600301805460ff19169055565b6001600160a01b03841660009081526001602052604081206009015460ff166003811115610e3c57fe5b1480610e71575060016001600160a01b03851660009081526001602052604090206009015460ff166003811115610e6f57fe5b145b610e8d5760405162461bcd60e51b815260040161069d906131d3565b6001600160a01b0384166000908152600160205260409020600401548311801590610ed357506001600160a01b0384166000908152600160205260409020600301548311155b610eef5760405162461bcd60e51b815260040161069d90613153565b6001600160a01b03841660009081526001602081905260409091200154610f17908490610ca3565b341015610f365760405162461bcd60e51b815260040161069d90613193565b610f408483611f2d565b1515600114610f615760405162461bcd60e51b815260040161069d906131a3565b6001600160a01b03841660009081526001602052604081206009015460ff166003811115610f8b57fe5b1415610fbb576001600160a01b0384166000908152600160208190526040909120600901805460ff191690911790555b6001600160a01b0384166000908152600160205260408082206004018054869003905551339185156108fc02918691818181858888f19350505050158015611007573d6000803e3d6000fd5b5042811580159061101757508082105b1561101f5750805b6000611029611615565b9050604051806101600160405280336001600160a01b0316815260200160018152602001876001600160a01b031681526020018681526020018581526020016000600281111561107557fe5b8152602001838152602001637fffffff81526020018381526020016110dd84610498600160008c6001600160a01b03166001600160a01b0316815260200190815260200160002060050160009054906101000a900460ff1660038111156110d857fe5b611ee2565b815260200161111487600160008b6001600160a01b03166001600160a01b0316815260200190815260200160002060010154610ca3565b90526001600160a01b03808316600090815260026020818152604092839020855181549086166001600160a01b03199182161782559186015160018083019190915593860151818401805491909616921691909117909355606084015160038401556080840151600484015560a08401516005840180549193909260ff199092169184908111156111a157fe5b021790555060c082015160068281019190915560e08301516007830155610100830151600880840191909155610120840151600984015561014090930151600a90920191909155805460018082019092557ff652222313e28459528d920b65115c16c04f3efc82aaedc97be59f3f377c0d3f0180546001600160a01b0319166001600160a01b038516908117909155600090815260209283526040808220805490930190925560029092529081902090517f3a930bab785602c6c1bbeab69215077951b2cfef992537424e56c6485fd8018191610c9391613272565b600080600c548061128a57fe5b60008408600c54930390920192915050565b303190565b6001600160a01b038181166000908152600260205260409020541633146112da5760405162461bcd60e51b815260040161069d90613253565b6001600160a01b0381166000908152600260205260409020600a01546113125760405162461bcd60e51b815260040161069d90613233565b6001600160a01b038116600090815260026020526040808220600a01549051339282156108fc02929190818181858888f19350505050158015611359573d6000803e3d6000fd5b506001600160a01b038181166000818152600260208181526040808420600a810185905560058101805460ff191660011781559084015490961684526008825283208054600019019055929091529081905290547f2632eea9b7c7982747cbbe936b496cd6bacf2153bbaff4e62f71ffe7703bc0b391839160ff1690811115610a0d57fe5b6005546000908190158015906113f45750825115155b15610cc05760005b8351811015611458576009600085838151811061141557fe5b60209081029190910181015182528101919091526040016000206003015460ff16600114156114475760019150611450565b60009150611458565b6001016113fc565b5092915050565b60008060008060008060008060606000611477611fec565b6001600160a01b03808d16600090815260016020818152604092839020835161014081018552815490951685529182015490840152600281015491830191909152600380820154606084015260048201546080840152600582015460a084019160ff909116908111156114e657fe5b60038111156114f157fe5b815260200160068201548152602001600782015481526020016008820180548060200260200160405190810160405280929190818152602001828054801561155857602002820191906000526020600020905b815481526020019060010190808311611544575b5050509183525050600982015460209091019060ff16600381111561157957fe5b600381111561158457fe5b815250509050806000015181602001518260400151836060015184608001518560a0015160038111156115b357fe5b8660c001518760e0015188610100015189610120015160038111156115d457fe5b8191509a509a509a509a509a509a509a509a509a509a50509193959799509193959799565b600a546001600160a01b031690565b6006818154811061065957fe5b600080334260405160200161162b929190612ffe565b60408051601f1981840301815291905280516020909101209050600060135b600181011561167f57600181601460ff16030360020260100a83826014811061166f57fe5b1a0291909101906000190161164a565b5091505090565b6000805b61169383611d83565b61169c8561127d565b0190506116a884610d28565b81111561168a579392505050565b6000806116c56105cd87611ee2565b90506000836116d55750426116d8565b50825b80828601101561173a578481038290036000620151808204905060006402540be4008961170a600b548e016064611be7565b600a54611723908690600160a01b900461ffff16611be7565b02028161172c57fe5b049550611741945050505050565b6000925050505b95945050505050565b6004818154811061065957fe5b600a546001600160a01b031633146117815760405162461bcd60e51b815260040161069d90613123565b60055480158061179b57506117968484611e50565b60ff16155b1561187557604080516080810182526001600160a01b038087168252858116602080840191825283850187815260016060860181905260008881526009845296909620855181549086166001600160a01b03199182161782559351968101805497909516969093169590951790925592518051929392611821926002850192019061205d565b50606091909101516003909101805460ff191660ff909216919091179055600580546001810182556000919091527f036b6384b5eca791c62761152d0c79bb0604c104a5fb6f4eb0703f3154bb3db0018190555b50505050565b6001600160a01b038116600090815260026020819052604082206005015460ff16908111156118a657fe5b146118c35760405162461bcd60e51b815260040161069d90613243565b6001600160a01b0381811660009081526002602081815260408084208301549094168352600190529190209081015460059091015442916119359160ff16600381111561190c57fe5b6001600160a01b0385166000908152600260205260409020600381015460089091015485611aa4565b3410156119545760405162461bcd60e51b815260040161069d906131c3565b6001600160a01b0382811660009081526002602052604090205416331461198d5760405162461bcd60e51b815260040161069d90613213565b6001600160a01b038083166000908152600260208181526040808420600981015460088201889055930154909416835260019052919020600501546119dc90829060ff16600381111561049857fe5b6001600160a01b038085166000908152600260208190526040918290206009810194909455929092015491517f73df86c8e69b40817f25796dea8fa6cc433dcae59ddbb1ba8f9375aa5823e25992611a379216908690613032565b60405180910390a1505050565b6060600680548060200260200160405190810160405280929190818152602001828054801561073e576020028201919060005260206000209081546001600160a01b03168152600190910190602001808311610720575050505050905090565b6000611ab386868686866116b6565b611abe878787610d42565b019695505050505050565b611ad1611fec565b6001600160a01b03808316600090815260016020818152604092839020835161014081018552815490951685529182015490840152600281015491830191909152600380820154606084015260048201546080840152600582015460a084019160ff90911690811115611b4057fe5b6003811115611b4b57fe5b8152602001600682015481526020016007820154815260200160088201805480602002602001604051908101604052809291908181526020018280548015611bb257602002820191906000526020600020905b815481526020019060010190808311611b9e575b5050509183525050600982015460209091019060ff166003811115611bd357fe5b6003811115611bde57fe5b90525092915050565b600080600d54600101600a0a840290506000600a848381611c0457fe5b0460050181611c0f57fe5b0495945050505050565b6000611c23611fec565b6001600160a01b03808416600090815260016020818152604092839020835161014081018552815490951685529182015490840152600281015491830191909152600380820154606084015260048201546080840152600582015460a084019160ff90911690811115611c9257fe5b6003811115611c9d57fe5b8152602001600682015481526020016007820154815260200160088201805480602002602001604051908101604052809291908181526020018280548015611d0457602002820191906000526020600020905b815481526020019060010190808311611cf0575b5050509183525050600982015460209091019060ff166003811115611d2557fe5b6003811115611d3057fe5b905250905060018161012001516003811115611d4857fe5b1480611d6b57506001600160a01b03831660009081526008602052604090205415155b15611d7a576001915050610d3d565b50600092915050565b620151800290565b611d936120ca565b6001600160a01b0380831660009081526002602081815260409283902083516101608101855281548616815260018201549281019290925280830154909416928101929092526003830154606083015260048301546080830152600583015491929160a084019160ff90911690811115611e0957fe5b6002811115611e1457fe5b815260068201546020820152600782015460408201526008820154606082015260098201546080820152600a9091015460a09091015292915050565b6000805b600554811015611eba576000818152600960205260409020546001600160a01b038581169116148015611ea357506000818152600960205260409020600101546001600160a01b038481169116145b15611eb2576001915050610cc0565b600101611e54565b5060009392505050565b60058181548110611ed157fe5b600091825260209091200154905081565b600081611ef157506007610d3d565b8160011415611f025750601e610d3d565b8160021415611f135750605a610d3d565b8160031415611f24575060b4610d3d565b50610168610d3d565b6000805b6001600160a01b038416600090815260016020526040902060080154811015611eba576001600160a01b0384166000908152600160205260409020600801805484919083908110611f7e57fe5b90600052602060002001541415611f99576001915050610cc0565b600101611f31565b828054828255906000526020600020908101928215611fdc579160200282015b82811115611fdc578251825591602001919060010190611fc1565b50611fe8929150612124565b5090565b60405180610140016040528060006001600160a01b03168152602001600081526020016000815260200160008152602001600081526020016000600381111561203157fe5b81526020016000815260200160008152602001606081526020016000600381111561205857fe5b905290565b828054600181600116156101000203166002900490600052602060002090601f016020900481019282601f1061209e57805160ff1916838001178555611fdc565b82800160010185558215611fdc5791820182811115611fdc578251825591602001919060010190611fc1565b604080516101608101825260008082526020820181905291810182905260608101829052608081018290529060a0820190815260200160008152602001600081526020016000815260200160008152602001600081525090565b61074691905b80821115611fe8576000815560010161212a565b8035610cc08161341e565b600082601f83011261215a57600080fd5b813561216d612168826132e6565b6132bf565b9150818183526020840193506020810190508385602084028201111561219257600080fd5b60005b838110156121be57816121a88882612217565b8452506020928301929190910190600101612195565b5050505092915050565b600082601f8301126121d957600080fd5b81356121e761216882613307565b9150808252602083016020830185838301111561220357600080fd5b61220e8382846133a4565b50505092915050565b8035610cc081613432565b60006020828403121561223457600080fd5b6000612240848461213e565b949350505050565b6000806040838503121561225b57600080fd5b6000612267858561213e565b92505060206122788582860161213e565b9150509250929050565b60008060006060848603121561229757600080fd5b60006122a3868661213e565b93505060206122b48682870161213e565b925050604084013567ffffffffffffffff8111156122d157600080fd5b6122dd868287016121c8565b9150509250925092565b600080600080608085870312156122fd57600080fd5b6000612309878761213e565b945050602061231a87828801612217565b935050604061232b87828801612217565b925050606061233c87828801612217565b91505092959194509250565b60006020828403121561235a57600080fd5b813567ffffffffffffffff81111561237157600080fd5b61224084828501612149565b60006020828403121561238f57600080fd5b60006122408484612217565b600080604083850312156123ae57600080fd5b60006123ba8585612217565b925050602061227885828601612217565b6000806000606084860312156123e057600080fd5b60006123ec8686612217565b93505060206123fd86828701612217565b92505060406122dd86828701612217565b600080600080600060a0868803121561242657600080fd5b60006124328888612217565b955050602061244388828901612217565b945050604061245488828901612217565b935050606061246588828901612217565b925050608086013567ffffffffffffffff81111561248257600080fd5b61248e88828901612149565b9150509295509295909350565b600080600080600060a086880312156124b357600080fd5b60006124bf8888612217565b95505060206124d088828901612217565b94505060406124e188828901612217565b93505060606124f288828901612217565b925050608061248e88828901612217565b600061250f838361253a565b505060200190565b600061250f8383612fdb565b61253461252f8261336a565b6133e4565b82525050565b6125348161336a565b600061254e82613341565b612558818561334f565b93506125638361332f565b8060005b8381101561259157815161257b8882612503565b97506125868361332f565b925050600101612567565b509495945050505050565b60006125a782613341565b6125b1818561334f565b93506125bc8361332f565b8060005b838110156125915781516125d48882612517565b97506125df8361332f565b9250506001016125c0565b60006125f582613341565b6125ff818561334f565b935061260a8361332f565b8060005b838110156125915781516126228882612517565b975061262d8361332f565b92505060010161260e565b600061264382613345565b61264d818561334f565b935061265883613335565b8060005b838110156125915761266d826133f5565b6126778882612517565b975061268283613349565b92505060010161265c565b61253481613375565b6125348161338e565b61253481613399565b60006126b560318361334f565b7f4f6e6c7920636f6e7472616374206f776e65722063616e20616464206e657720815270737570706f727465642070616972696e6760781b602082015260400192915050565b6000612708602e8361334f565b7f4f6e6c7920636f6e7472616374206f776e65722063616e20616374697665207081526d185a5c9a5b99c81cdd5c1c1bdc9d60921b602082015260400192915050565b600061275860168361334f565b7524b73b30b634b2103830b4b934b7339034b73232bc1760511b815260200192915050565b600061278a60408361334f565b7f204c656e6420616d6f756e742063616e6e6f74206265206d6f7265207468616e81527f20697373756520616d6f756e7420616e642063757272656e7420616d6f756e74602082015260400192915050565b60006127e960338361334f565b7f204d6573736167652076616c75652073686f756c64206265206d6f7265207468815272185b881d1a19481a5cdcdd5948185b5bdd5b9d606a1b602082015260400192915050565b600061283e60118361334f565b704e6f2050616972696e672065786973747360781b815260200192915050565b600061286b60238361334f565b7f4f6e6c79206c656e64206f776e65722063616e20636c6f736520746865206c6f81526230b71760e91b602082015260400192915050565b60006128b0604a8361334f565b7f4d6573736167652076616c7565206861766520746f206265206d6f726520746881527f616e20746865206c6f616e20746f2076616c756520616d6f756e74206f66206c602082015269195b9908185b5bdd5b9d60b21b604082015260600192915050565b600061292260138361334f565b7250616972696e67206d7573742065786973747360681b815260200192915050565b600061295160148361334f565b73496e76616c6964205061796d656e74205465726d60601b815260200192915050565b600061298160148361334f565b73125b9cdd58da59999a58d95b9d08185b5bdd5b9d60621b815260200192915050565b60006129b160238361334f565b7f204c656e64206163636f756e7420697320696e6163746976652f73757370656e81526219195960ea1b602082015260400192915050565b60006129f660108361334f565b6f204c6f616e206e6f742061637469766560801b815260200192915050565b6000612a2260308361334f565b7f4f6e6c7920636f6e7472616374206f776e65722063616e20646561637469766581526f081c185a5c9a5b99c81cdd5c1c1bdc9d60821b602082015260400192915050565b6000612a74600f8361334f565b6e496e76616c69642070616972696e6760881b815260200192915050565b6000612a9f60278361334f565b7f4f6e6c7920626f72726f77206f776e65722063616e207061792074686520696e8152663a32b932b9ba1760c91b602082015260400192915050565b6000612ae860268361334f565b7f204c54562073686f756c64206265206c657373207468616e20616e64206571758152650616c203130360d41b602082015260400192915050565b6000612b30601a8361334f565b7f20436f6c6c61746572616c20416d6f756e74206e6f206d6f7265000000000000815260200192915050565b6000612b69600e8361334f565b6d496e76616c696420626f72726f7760901b815260200192915050565b6000612b9360198361334f565b7f204d75737420626520626f72726f777320626f72726f77657200000000000000815260200192915050565b8051610160830190612bd1848261253a565b506020820151612be46020850182612fdb565b506040820151612bf7604085018261253a565b506060820151612c0a6060850182612fdb565b506080820151612c1d6080850182612fdb565b5060a0820151612c3060a0850182612696565b5060c0820151612c4360c0850182612fdb565b5060e0820151612c5660e0850182612fdb565b50610100820151612c6b610100850182612fdb565b50610120820151612c80610120850182612fdb565b50610140820151611875610140850182612fdb565b8054610160830190612ca6816133b0565b612cb0858261253a565b50506001820154612cc0816133d6565b612ccd6020860182612fdb565b50506002820154612cdd816133b0565b612cea604086018261253a565b50506003820154612cfa816133d6565b612d076060860182612fdb565b50506004820154612d17816133d6565b612d246080860182612fdb565b50506005820154612d34816133c3565b612d4160a0860182612696565b50506006820154612d51816133d6565b612d5e60c0860182612fdb565b50506007820154612d6e816133d6565b612d7b60e0860182612fdb565b50506008820154612d8b816133d6565b612d99610100860182612fdb565b50506009820154612da9816133d6565b612db7610120860182612fdb565b5050600a820154612dc7816133d6565b612dd5610140860182612fdb565b5050505050565b8051600090610140840190612df1858261253a565b506020830151612e046020860182612fdb565b506040830151612e176040860182612fdb565b506060830151612e2a6060860182612fdb565b506080830151612e3d6080860182612fdb565b5060a0830151612e5060a086018261269f565b5060c0830151612e6360c0860182612fdb565b5060e0830151612e7660e0860182612fdb565b50610100830151848203610100860152612e9082826125ea565b915050610120830151612ea761012086018261269f565b509392505050565b8054600090610140840190612ec3816133b0565b612ecd868261253a565b50506001830154612edd816133d6565b612eea6020870182612fdb565b50506002830154612efa816133d6565b612f076040870182612fdb565b50506003830154612f17816133d6565b612f246060870182612fdb565b50506004830154612f34816133d6565b612f416080870182612fdb565b50506005830154612f51816133c3565b612f5e60a087018261269f565b50506006830154612f6e816133d6565b612f7b60c0870182612fdb565b50506007830154612f8b816133d6565b612f9860e0870182612fdb565b5060088401858303610100870152612fb08382612638565b92505060098401549050612fc3816133c3565b612fd161012087018261269f565b5090949350505050565b61253481610746565b612534612ff082610746565b610746565b61253481613364565b600061300a8285612523565b60148201915061301a8284612fe4565b5060200192915050565b60208101610cc0828461253a565b60408101613040828561253a565b610d9f602083018461253a565b6040810161305b828561253a565b610d9f6020830184612fdb565b6101408101613077828d61253a565b613084602083018c612fdb565b613091604083018b612fdb565b61309e606083018a612fdb565b6130ab6080830189612fdb565b6130b860a0830188612fdb565b6130c560c0830187612fdb565b6130d260e0830186612fdb565b8181036101008301526130e5818561259c565b90506130f5610120830184612fdb565b9b9a5050505050505050505050565b60208082528101610d9f8184612543565b60208101610cc0828461268d565b60208082528101610cc0816126a8565b60208082528101610cc0816126fb565b60208082528101610cc08161274b565b60208082528101610cc08161277d565b60208082528101610cc0816127dc565b60208082528101610cc081612831565b60208082528101610cc08161285e565b60208082528101610cc0816128a3565b60208082528101610cc081612915565b60208082528101610cc081612944565b60208082528101610cc081612974565b60208082528101610cc0816129a4565b60208082528101610cc0816129e9565b60208082528101610cc081612a15565b60208082528101610cc081612a67565b60208082528101610cc081612a92565b60208082528101610cc081612adb565b60208082528101610cc081612b23565b60208082528101610cc081612b5c565b60208082528101610cc081612b86565b6101608101610cc08284612bbf565b6101608101610cc08284612c95565b60208082528101610d9f8184612ddc565b60208082528101610d9f8184612eaf565b60208101610cc08284612fdb565b60208101610cc08284612ff5565b60405181810167ffffffffffffffff811182821017156132de57600080fd5b604052919050565b600067ffffffffffffffff8211156132fd57600080fd5b5060209081020190565b600067ffffffffffffffff82111561331e57600080fd5b506020601f91909101601f19160190565b60200190565b60009081526020902090565b5190565b5490565b60010190565b90815260200190565b6001600160a01b031690565b60ff1690565b6000610cc082613358565b151590565b80610d3d81613407565b80610d3d81613414565b6000610cc08261337a565b6000610cc082613384565b82818337506000910152565b6000610cc06133be83610746565b613358565b6000610cc06133d183610746565b613364565b6000610cc0612ff083610746565b6000610cc0826000610cc082613401565b6000610cc082546133d6565b60601b90565b6003811061341157fe5b50565b6004811061341157fe5b6134278161336a565b811461341157600080fd5b6134278161074656fea365627a7a72315820889275e89303e6b7e474d68693079d227595722967c12c9e9affed8df6cd454b6c6578706572696d656e74616cf564736f6c634300050c0040",
  "source": "pragma solidity ^0.5.12;\r\npragma experimental ABIEncoderV2;\r\n\r\ncontract EthLoan {\r\n    string value;\r\n\r\n    enum PaymentTerm{WEEKLY,MONTHLY,QUARTERLY,YEARLY}\r\n    enum TransactionType{NEW,REPAY,CLOSE,UPDATE,DEFAULT}\r\n    enum BorrowStatus{ACTIVE,INACTIVE,LATE}\r\n    enum LendStatus{ACTIVE,RUNNING,INACTIVE,SUSPEND}\r\n\r\n    struct Pairing {\r\n        address baseCurry;\r\n        address counterCurry;\r\n        string desc;\r\n        uint8 active;\r\n    }\r\n\r\n    struct Lend{\r\n        address lendAddress;\r\n        uint ltv; //1-100\r\n        uint interest; // 100 basis point = 1 percent\r\n        uint issueAmt; // wei - 1 eth = 1,000,000,000,000,000,000 wei\r\n        uint currentAmt; // wei\r\n        PaymentTerm paymentTerm;\r\n        uint endDate;\r\n        uint startDate;\r\n        uint[] pairing;\r\n        LendStatus lendStatus;\r\n    }\r\n\r\n    struct Borrow{\r\n        address borrowAddress;\r\n        uint exchRate;\r\n        address lendId;\r\n        uint borrowAmt;\r\n        //Pairing pairing;\r\n        uint pairing;\r\n        BorrowStatus borrowStatus; //A - Active, I - Inactive, L - Late\r\n        uint borrowStartDate;\r\n        uint borrowEndDate;\r\n        uint lastPaymentDate;\r\n        uint nextPaymentDateBy;\r\n        uint collatAmt;\r\n    }\r\n\r\n    struct Transaction{\r\n        uint lendId;\r\n        uint borrowId;\r\n        uint exchRate;\r\n        TransactionType transactionType;\r\n        uint transactionAmt;\r\n        uint pairing;\r\n    }\r\n\r\n    mapping (address => Lend) lends;\r\n    //mapping (address => Pairing) pairs;\r\n    mapping (address => Borrow) borrows;\r\n    mapping (address => Transaction) transactions;\r\n    address[] public lendList;\r\n    uint[] public pairing;//address[] public pairing;\r\n    address[] public borrowList;\r\n    address[] public transactionList;\r\n    mapping (address => uint) activeLoan;\r\n    mapping (uint => Pairing) pair;\r\n\r\n    address owner;\r\n    uint16 dayCount = 360;\r\n    uint lateCharge = 200; // 200 basis point = 2 percent\r\n    uint epochDay = 86400; // 60 x 60 x 24 = Epoch day\r\n    uint precision;\r\n\r\n    constructor() public {\r\n        value = \"constructor value\";\r\n        owner = msg.sender;\r\n        precision = 4;\r\n       // pairing.push(Pairing(0x0000000000000000000000000000000000000000,0x0000000000000000000000000000000000000000,'ETH/ETH',1));\r\n    }\r\n\r\n    event newLendCreated(Lend);\r\n    event newBorrowCreated(Borrow);\r\n    event interestPayment(address _lendId,address _borrowId);\r\n    event closeLendCreated(address _lendId, uint _lendStatus);\r\n    event closeBorrowCreated(address _borrowId, uint _borrowStatus);\r\n\r\n    function checkExistsPairing(address _baseCurry, address _counterCurry) public view returns (uint8){\r\n        for (uint i; i < pairing.length;i++){\r\n            if (pair[i].baseCurry==_baseCurry && pair[i].counterCurry==_counterCurry)\r\n                return 1;\r\n        }\r\n        return 0;\r\n    }\r\n\r\n    function addPairing(address _baseCurry, address _counterCurry, string memory _desc) public {\r\n        require(msg.sender == owner,'Only contract owner can add new supported pairing');\r\n        uint noPair = pairing.length;\r\n        if(noPair == 0 || checkExistsPairing(_baseCurry,_counterCurry) == 0){\r\n            pair[noPair] = Pairing(_baseCurry,_counterCurry,_desc,1);\r\n            pairing.push(noPair);\r\n        }\r\n    }\r\n\r\n    function getNoPairing() public view returns(uint) {\r\n        return pairing.length;\r\n    }\r\n\r\n    function deactivePairing(uint _index) public {\r\n        require(msg.sender == owner,'Only contract owner can deactive pairing support');\r\n        require(pairing.length > _index, 'Invalid pairing index.');\r\n        pair[_index].active = 0;\r\n    }\r\n\r\n    function getNoPairingActive() public view returns(uint) {\r\n        require(pairing.length > 0,'No Pairing exists');\r\n        uint counter = 0;\r\n        for(uint i = 0;i<pairing.length;i++) {\r\n            if(pair[i].active == 1)\r\n                counter++;\r\n        }\r\n        return counter;\r\n    }\r\n\r\n    function activePairing(uint _index) public {\r\n        require(msg.sender == owner,'Only contract owner can active pairing support');\r\n        require(pairing.length >= _index, 'Invalid pairing index.');\r\n        pair[_index].active = 1;\r\n    }\r\n\r\n    function getBlock() public view returns (uint) {\r\n        return block.timestamp;\r\n    }\r\n\r\n    function getOwner() public view returns(address){\r\n        return owner;\r\n    }\r\n\r\n    function getContractBalance() public view returns(uint){\r\n        return address(this).balance;\r\n    }\r\n\r\n    function getUniqueId() public view returns (address) {\r\n        bytes20 b = bytes20(keccak256(abi.encodePacked(msg.sender, now)));\r\n        uint addr = 0;\r\n        for (uint index = b.length-1; index+1 > 0; index--) {\r\n            addr += uint(uint8(b[index])) * ( 16 ** ((b.length - index - 1) * 2));\r\n        }\r\n        //to-do check if address exists\r\n\r\n        return address(addr);\r\n    }\r\n\r\n    function checkPairing(uint[] memory _pairingList) public view returns(bool) {\r\n        bool check = false;\r\n        if(pairing.length != 0 && _pairingList.length != 0){\r\n            for(uint i = 0; i<_pairingList.length;i++) {\r\n                if(pair[_pairingList[i]].active == 1)\r\n                    check = true;\r\n                else {\r\n                    check = false;\r\n                    break;\r\n                }\r\n            }\r\n        }\r\n        return check;\r\n    }\r\n\r\n    function newLend(uint _ltv,uint _interest, uint _issueAmt, uint _paymentTerm, uint[] memory _pairingList ) public payable {\r\n        require(msg.value > _issueAmt,' Message value should be more than the issue amount');\r\n        require(_ltv < 100, ' LTV should be less than and equal 100');\r\n        require(checkPairing(_pairingList) == true, 'Invalid pairing');\r\n        require(_paymentTerm >= 0 && _paymentTerm<=3, 'Invalid Payment Term');\r\n        address tempAddr = getUniqueId();\r\n\r\n        lends[tempAddr] = Lend(msg.sender,_ltv,_interest,_issueAmt,_issueAmt,PaymentTerm(_paymentTerm),2147483647,now,_pairingList,LendStatus.ACTIVE);\r\n\r\n        lendList.push(tempAddr);\r\n        activeLoan[tempAddr] = 0;\r\n        emit newLendCreated(lends[tempAddr]);\r\n    }\r\n\r\n    function checkLend(address _address) public view returns (address, uint,uint,uint,uint,uint,uint,uint,uint[] memory,uint) {\r\n        Lend memory tempLend = lends[_address];\r\n        return (tempLend.lendAddress,tempLend.ltv,tempLend.interest,tempLend.issueAmt,tempLend.currentAmt,uint(tempLend.paymentTerm),\r\n            tempLend.endDate,tempLend.startDate,tempLend.pairing,uint(tempLend.lendStatus));\r\n    }\r\n\r\n    function getLendInfo(address _address) external view returns(Lend memory) {\r\n        return lends[_address];\r\n    }\r\n\r\n    function getAllLend() external view returns (address[] memory) {\r\n        return lendList;\r\n    }\r\n\r\n    function checkActiveBorrower(address _address) public view returns(bool) {\r\n        Lend memory tempLend = lends[_address];\r\n        if(tempLend.lendStatus == LendStatus.RUNNING || activeLoan[_address] > 0) {\r\n            return true;\r\n        }\r\n        return false;\r\n    }\r\n\r\n    function closeLend(address _lendId) public payable {\r\n        //Lend memory tempLend = lends[_lendId];\r\n        require(msg.sender == lends[_lendId].lendAddress,'Only lend owner can close the loan.');\r\n        require(lends[_lendId].lendStatus != LendStatus.INACTIVE, ' Loan not active');\r\n        //to-do only allow if there is no active borrower in loan account\r\n        if(lends[_lendId].lendStatus == LendStatus.ACTIVE && lends[_lendId].currentAmt > 0) {\r\n            lends[_lendId].lendStatus = LendStatus.INACTIVE;\r\n            msg.sender.transfer(lends[_lendId].currentAmt);\r\n            lends[_lendId].currentAmt = 0;\r\n        }\r\n        else if (lends[_lendId].lendStatus == LendStatus.RUNNING) {\r\n            lends[_lendId].lendStatus = LendStatus.SUSPEND;\r\n        }\r\n        else if (lends[_lendId].lendStatus == LendStatus.SUSPEND && activeLoan[_lendId] == 0){\r\n            lends[_lendId].lendStatus = LendStatus.INACTIVE;\r\n            msg.sender.transfer(lends[_lendId].currentAmt);\r\n            lends[_lendId].currentAmt = 0;\r\n        }\r\n\r\n        emit closeLendCreated(_lendId,uint(lends[_lendId].lendStatus));\r\n    }\r\n\r\n    function checkpairingExist(address _lendId,uint _pairingId)  private view returns (bool) {\r\n        for(uint i = 0; i<lends[_lendId].pairing.length; i++) {\r\n            if(lends[_lendId].pairing[i] == _pairingId) {\r\n                return true;\r\n            }\r\n        }\r\n        return false;\r\n    }\r\n\r\n    //Date Related Section - Start\r\n    function calcNextDay(uint _epoch) public view returns (uint) {\r\n        uint x = addmod(_epoch,0,epochDay);\r\n        return (_epoch - x + epochDay);\r\n    }\r\n\r\n    function calcStartDay(uint _epoch) public view returns(uint) {\r\n        return (_epoch - addmod(_epoch,0,epochDay));\r\n    }\r\n\r\n    function calcNextCycle(uint _epoch,uint _period) public view returns(uint) {\r\n        uint nextCycle = 0;\r\n        do {\r\n           nextCycle = (calcNextDay(_epoch) + (convertDayToEpoch(_period)));\r\n        }while(nextCycle <= calcStartDay(_epoch));\r\n        return nextCycle;\r\n    }\r\n\r\n    function getPaymentDay(uint _payTerm) private pure returns (uint) {\r\n        if (_payTerm == 0)\r\n            return 7;\r\n        else if (_payTerm == 1)\r\n            return 30;\r\n        else if (_payTerm == 2)\r\n            return 90;\r\n        else if (_payTerm == 3)\r\n            return 180;\r\n        else\r\n            return 360;\r\n    }\r\n\r\n    function convertDayToEpoch(uint _day) public pure returns(uint) {\r\n        return uint(_day*60*60*24);\r\n    }\r\n\r\n    //Date Related Section - End\r\n\r\n    function calcCollatAmt(uint _lendAmt,uint _ltv) public pure returns (uint) {\r\n        return (10000/_ltv * _lendAmt)/100;\r\n    }\r\n\r\n    function borrowLend(address _lendId, uint _lendAmt, uint _pairingId, uint _epoch) public payable {\r\n        //require(msg.value > _lendAmt, 'Message value must be more than lend amount');\r\n        require(lends[_lendId].lendStatus == LendStatus.ACTIVE || lends[_lendId].lendStatus == LendStatus.RUNNING, ' Lend account is inactive/suspended');\r\n        require(_lendAmt <= lends[_lendId].currentAmt && _lendAmt <= lends[_lendId].issueAmt,' Lend amount cannot be more than issue amount and current amount');\r\n        require(msg.value >= calcCollatAmt(_lendAmt,lends[_lendId].ltv), 'Message value have to be more than the loan to value amount of lend amount');\r\n        require(checkpairingExist(_lendId,_pairingId) == true, 'Pairing must exists');\r\n        if(lends[_lendId].lendStatus == LendStatus.ACTIVE) {\r\n            lends[_lendId].lendStatus = LendStatus.RUNNING;\r\n        }\r\n\r\n        lends[_lendId].currentAmt -= _lendAmt;\r\n        msg.sender.transfer(_lendAmt);\r\n        uint current = block.timestamp;\r\n        if(_epoch > 0 && _epoch < current)\r\n            current = _epoch;\r\n        address tempAddr = getUniqueId();\r\n        borrows[tempAddr] = Borrow(msg.sender,1,_lendId,_lendAmt,_pairingId,BorrowStatus.ACTIVE,current,2147483647,current,\r\n        calcNextCycle(current,getPaymentDay(uint(lends[_lendId].paymentTerm))),calcCollatAmt(_lendAmt,lends[_lendId].ltv));\r\n\r\n        borrowList.push(tempAddr);\r\n        activeLoan[tempAddr] += 1;\r\n\r\n        emit newBorrowCreated(borrows[tempAddr]);\r\n    }\r\n\r\n    //Calculate interest - Start\r\n    function division(uint _numerator, uint _denominator) public view returns(uint) {\r\n\r\n         // caution, check safe-to-multiply here\r\n        uint numerator = ( _numerator * 10 ** ( precision + 1 ));\r\n        // with rounding of last digit\r\n        uint quotient = ((numerator / _denominator) + 5) / 10;\r\n        return quotient;\r\n    }\r\n\r\n    function interestAmt(uint _interest,uint _payTerm,uint _borrowAmt) public view returns (uint) {\r\n        if(_borrowAmt == 0) {\r\n            return 0;\r\n        }\r\n        uint period = getPaymentDay(_payTerm);\r\n        uint calcInterest = uint((division(_interest,100) * division(period,dayCount) * _borrowAmt/10000000000));\r\n        return calcInterest ;\r\n    }\r\n\r\n    function lateInterestAmt(uint _interest,uint _payTerm,uint _borrowAmt,uint _lastPaymentDate, uint _currentEpoch) public view returns(uint) {\r\n        uint period = convertDayToEpoch(getPaymentDay(_payTerm));\r\n        uint currentEpoch;\r\n        if(_currentEpoch == 0)\r\n            currentEpoch = block.timestamp;\r\n        else\r\n            currentEpoch = _currentEpoch;\r\n        if((_lastPaymentDate + period) < currentEpoch ) {\r\n            uint accurIntrDay = currentEpoch - _lastPaymentDate - period;\r\n            uint numLateDays = accurIntrDay / 86400;\r\n            uint lateFee = uint(division(numLateDays,dayCount) * division(_interest+lateCharge,100) * _borrowAmt/ 10000000000);\r\n            return lateFee;\r\n        }\r\n        return 0;\r\n    }\r\n\r\n    function totalInterestAmt(uint _interest,uint _payTerm,uint _borrowAmt,uint _lastPaymentDate, uint _current) public view returns (uint) {\r\n        return (interestAmt(_interest,_payTerm,_borrowAmt) + lateInterestAmt(_interest,_payTerm,_borrowAmt,_lastPaymentDate,_current));\r\n    }\r\n\r\n    //Calculate interest - End\r\n\r\n    function getAllBorrow() external view returns (address[] memory) {\r\n        return borrowList;\r\n    }\r\n\r\n    function getBorrowInfo(address _borrowId) external view returns (Borrow memory) {\r\n      return (borrows[_borrowId]);\r\n    }\r\n\r\n    /*function getBorrowAllInfo() external view returns(Borrows[] memory) {\r\n      return borrows;\r\n    }*/\r\n\r\n    function payInterest(address _borrowId) public payable {\r\n        require(borrows[_borrowId].borrowStatus == BorrowStatus.ACTIVE, 'Invalid borrow');\r\n        uint current = block.timestamp;\r\n        require(msg.value >= totalInterestAmt(lends[borrows[_borrowId].lendId].interest,uint(lends[borrows[_borrowId].lendId].paymentTerm),\r\n        borrows[_borrowId].borrowAmt,borrows[_borrowId].lastPaymentDate,current),'Insucifficent amount');\r\n        require(msg.sender == borrows[_borrowId].borrowAddress,'Only borrow owner can pay the interest.');\r\n\r\n        uint nextPayDate = borrows[_borrowId].nextPaymentDateBy;\r\n        borrows[_borrowId].lastPaymentDate = current;\r\n        borrows[_borrowId].nextPaymentDateBy = calcNextCycle(nextPayDate,uint(lends[borrows[_borrowId].lendId].paymentTerm));\r\n\r\n        emit interestPayment(borrows[_borrowId].lendId,_borrowId);\r\n    }\r\n\r\n    function closeBorrow(address _borrowId) public payable {\r\n        require(msg.sender == borrows[_borrowId].borrowAddress,' Must be borrows borrower');\r\n        require(borrows[_borrowId].collatAmt > 0,' Collateral Amount no more');\r\n        //require(activeLoan[borrows[_borrowId].lendId] > 0,' No active loan');\r\n        msg.sender.transfer(borrows[_borrowId].collatAmt);\r\n        borrows[_borrowId].collatAmt = 0;\r\n        borrows[_borrowId].borrowStatus = BorrowStatus.INACTIVE;\r\n        activeLoan[borrows[_borrowId].lendId] -= 1;\r\n\r\n        emit closeBorrowCreated(_borrowId, uint(borrows[_borrowId].borrowStatus));\r\n    }\r\n\r\n}",
  "sourcePath": "C:/Users/iy3uu/Documents/GitHub/loancontract-eth/contracts/eth_p2p_loan.sol",
  "compiler": {
    "name": "solc",
    "version": "0.5.12+commit.7709ece9.Emscripten.clang"
  },
  "schemaVersion": "3.0.19",
  "updatedAt": "2020-01-20T14:10:10.929Z",
  "networkType": "ethereum",
  "devdoc": {
    "methods": {}
  },
  "userdoc": {
    "methods": {}
  }
}