{
  "contractName": "EthLoan",
  "abi": [
    {
      "constant": true,
      "inputs": [
        {
          "internalType": "uint256",
          "name": "",
          "type": "uint256"
        }
      ],
      "name": "transactionList",
      "outputs": [
        {
          "internalType": "address",
          "name": "",
          "type": "address"
        }
      ],
      "payable": false,
      "stateMutability": "view",
      "type": "function"
    },
    {
      "constant": true,
      "inputs": [
        {
          "internalType": "uint256",
          "name": "",
          "type": "uint256"
        }
      ],
      "name": "borrowList",
      "outputs": [
        {
          "internalType": "address",
          "name": "",
          "type": "address"
        }
      ],
      "payable": false,
      "stateMutability": "view",
      "type": "function"
    },
    {
      "constant": true,
      "inputs": [
        {
          "internalType": "uint256",
          "name": "",
          "type": "uint256"
        }
      ],
      "name": "lendList",
      "outputs": [
        {
          "internalType": "address",
          "name": "",
          "type": "address"
        }
      ],
      "payable": false,
      "stateMutability": "view",
      "type": "function"
    },
    {
      "constant": true,
      "inputs": [
        {
          "internalType": "uint256",
          "name": "",
          "type": "uint256"
        }
      ],
      "name": "pairing",
      "outputs": [
        {
          "internalType": "uint256",
          "name": "",
          "type": "uint256"
        }
      ],
      "payable": false,
      "stateMutability": "view",
      "type": "function"
    },
    {
      "inputs": [],
      "payable": false,
      "stateMutability": "nonpayable",
      "type": "constructor"
    },
    {
      "constant": true,
      "inputs": [
        {
          "internalType": "address",
          "name": "_baseCurry",
          "type": "address"
        },
        {
          "internalType": "address",
          "name": "_counterCurry",
          "type": "address"
        }
      ],
      "name": "checkExistsPairing",
      "outputs": [
        {
          "internalType": "uint8",
          "name": "",
          "type": "uint8"
        }
      ],
      "payable": false,
      "stateMutability": "view",
      "type": "function"
    },
    {
      "constant": false,
      "inputs": [
        {
          "internalType": "address",
          "name": "_baseCurry",
          "type": "address"
        },
        {
          "internalType": "address",
          "name": "_counterCurry",
          "type": "address"
        },
        {
          "internalType": "string",
          "name": "_desc",
          "type": "string"
        }
      ],
      "name": "addPairing",
      "outputs": [],
      "payable": false,
      "stateMutability": "nonpayable",
      "type": "function"
    },
    {
      "constant": true,
      "inputs": [],
      "name": "getNoPairing",
      "outputs": [
        {
          "internalType": "uint256",
          "name": "",
          "type": "uint256"
        }
      ],
      "payable": false,
      "stateMutability": "view",
      "type": "function"
    },
    {
      "constant": false,
      "inputs": [
        {
          "internalType": "uint256",
          "name": "_index",
          "type": "uint256"
        }
      ],
      "name": "deactivePairing",
      "outputs": [],
      "payable": false,
      "stateMutability": "nonpayable",
      "type": "function"
    },
    {
      "constant": true,
      "inputs": [],
      "name": "getNoPairingActive",
      "outputs": [
        {
          "internalType": "uint256",
          "name": "",
          "type": "uint256"
        }
      ],
      "payable": false,
      "stateMutability": "view",
      "type": "function"
    },
    {
      "constant": false,
      "inputs": [
        {
          "internalType": "uint256",
          "name": "_index",
          "type": "uint256"
        }
      ],
      "name": "activePairing",
      "outputs": [],
      "payable": false,
      "stateMutability": "nonpayable",
      "type": "function"
    },
    {
      "constant": true,
      "inputs": [],
      "name": "getBlock",
      "outputs": [
        {
          "internalType": "uint256",
          "name": "",
          "type": "uint256"
        }
      ],
      "payable": false,
      "stateMutability": "view",
      "type": "function"
    },
    {
      "constant": true,
      "inputs": [],
      "name": "getOwner",
      "outputs": [
        {
          "internalType": "address",
          "name": "",
          "type": "address"
        }
      ],
      "payable": false,
      "stateMutability": "view",
      "type": "function"
    },
    {
      "constant": true,
      "inputs": [],
      "name": "getContractBalance",
      "outputs": [
        {
          "internalType": "uint256",
          "name": "",
          "type": "uint256"
        }
      ],
      "payable": false,
      "stateMutability": "view",
      "type": "function"
    },
    {
      "constant": true,
      "inputs": [],
      "name": "getUniqueId",
      "outputs": [
        {
          "internalType": "address",
          "name": "",
          "type": "address"
        }
      ],
      "payable": false,
      "stateMutability": "view",
      "type": "function"
    },
    {
      "constant": true,
      "inputs": [
        {
          "internalType": "uint256[]",
          "name": "_pairingList",
          "type": "uint256[]"
        }
      ],
      "name": "checkPairing",
      "outputs": [
        {
          "internalType": "bool",
          "name": "",
          "type": "bool"
        }
      ],
      "payable": false,
      "stateMutability": "view",
      "type": "function"
    },
    {
      "constant": false,
      "inputs": [
        {
          "internalType": "uint256",
          "name": "_ltv",
          "type": "uint256"
        },
        {
          "internalType": "uint256",
          "name": "_interest",
          "type": "uint256"
        },
        {
          "internalType": "uint256",
          "name": "_issueAmt",
          "type": "uint256"
        },
        {
          "internalType": "enum EthLoan.PaymentTerm",
          "name": "_paymentTerm",
          "type": "uint8"
        },
        {
          "internalType": "uint256[]",
          "name": "_pairingList",
          "type": "uint256[]"
        }
      ],
      "name": "newLend",
      "outputs": [],
      "payable": true,
      "stateMutability": "payable",
      "type": "function"
    },
    {
      "constant": true,
      "inputs": [
        {
          "internalType": "address",
          "name": "_address",
          "type": "address"
        }
      ],
      "name": "checkLend",
      "outputs": [
        {
          "internalType": "address",
          "name": "",
          "type": "address"
        },
        {
          "internalType": "uint256",
          "name": "",
          "type": "uint256"
        },
        {
          "internalType": "uint256",
          "name": "",
          "type": "uint256"
        },
        {
          "internalType": "uint256",
          "name": "",
          "type": "uint256"
        },
        {
          "internalType": "uint256",
          "name": "",
          "type": "uint256"
        },
        {
          "internalType": "uint256",
          "name": "",
          "type": "uint256"
        },
        {
          "internalType": "uint256",
          "name": "",
          "type": "uint256"
        },
        {
          "internalType": "uint256",
          "name": "",
          "type": "uint256"
        },
        {
          "internalType": "uint256[]",
          "name": "",
          "type": "uint256[]"
        }
      ],
      "payable": false,
      "stateMutability": "view",
      "type": "function"
    },
    {
      "constant": true,
      "inputs": [],
      "name": "getAllLend",
      "outputs": [
        {
          "internalType": "address[]",
          "name": "",
          "type": "address[]"
        }
      ],
      "payable": false,
      "stateMutability": "view",
      "type": "function"
    },
    {
      "constant": true,
      "inputs": [
        {
          "internalType": "address",
          "name": "_address",
          "type": "address"
        }
      ],
      "name": "checkActiveBorrower",
      "outputs": [
        {
          "internalType": "bool",
          "name": "",
          "type": "bool"
        }
      ],
      "payable": false,
      "stateMutability": "view",
      "type": "function"
    },
    {
      "constant": false,
      "inputs": [
        {
          "internalType": "address",
          "name": "_lendId",
          "type": "address"
        }
      ],
      "name": "closeLend",
      "outputs": [],
      "payable": true,
      "stateMutability": "payable",
      "type": "function"
    },
    {
      "constant": true,
      "inputs": [
        {
          "internalType": "uint256",
          "name": "_epoch",
          "type": "uint256"
        }
      ],
      "name": "calcNextDay",
      "outputs": [
        {
          "internalType": "uint256",
          "name": "",
          "type": "uint256"
        }
      ],
      "payable": false,
      "stateMutability": "view",
      "type": "function"
    },
    {
      "constant": true,
      "inputs": [
        {
          "internalType": "uint256",
          "name": "_epoch",
          "type": "uint256"
        }
      ],
      "name": "calcStartDay",
      "outputs": [
        {
          "internalType": "uint256",
          "name": "",
          "type": "uint256"
        }
      ],
      "payable": false,
      "stateMutability": "view",
      "type": "function"
    },
    {
      "constant": true,
      "inputs": [
        {
          "internalType": "uint256",
          "name": "_epoch",
          "type": "uint256"
        },
        {
          "internalType": "uint256",
          "name": "_period",
          "type": "uint256"
        }
      ],
      "name": "calcNextCycle",
      "outputs": [
        {
          "internalType": "uint256",
          "name": "",
          "type": "uint256"
        }
      ],
      "payable": false,
      "stateMutability": "view",
      "type": "function"
    },
    {
      "constant": true,
      "inputs": [
        {
          "internalType": "uint256",
          "name": "_day",
          "type": "uint256"
        }
      ],
      "name": "convertDayToEpoch",
      "outputs": [
        {
          "internalType": "uint256",
          "name": "",
          "type": "uint256"
        }
      ],
      "payable": false,
      "stateMutability": "pure",
      "type": "function"
    },
    {
      "constant": true,
      "inputs": [
        {
          "internalType": "uint256",
          "name": "_lendAmt",
          "type": "uint256"
        },
        {
          "internalType": "uint256",
          "name": "_ltv",
          "type": "uint256"
        }
      ],
      "name": "calcCollatAmt",
      "outputs": [
        {
          "internalType": "uint256",
          "name": "",
          "type": "uint256"
        }
      ],
      "payable": false,
      "stateMutability": "pure",
      "type": "function"
    },
    {
      "constant": false,
      "inputs": [
        {
          "internalType": "address",
          "name": "_lendId",
          "type": "address"
        },
        {
          "internalType": "uint256",
          "name": "_lendAmt",
          "type": "uint256"
        },
        {
          "internalType": "uint256",
          "name": "_pairingId",
          "type": "uint256"
        }
      ],
      "name": "borrowLend",
      "outputs": [],
      "payable": true,
      "stateMutability": "payable",
      "type": "function"
    },
    {
      "constant": true,
      "inputs": [
        {
          "internalType": "uint256",
          "name": "_interest",
          "type": "uint256"
        },
        {
          "internalType": "uint256",
          "name": "_payTerm",
          "type": "uint256"
        },
        {
          "internalType": "uint256",
          "name": "_borrowAmt",
          "type": "uint256"
        }
      ],
      "name": "interestAmt",
      "outputs": [
        {
          "internalType": "uint256",
          "name": "",
          "type": "uint256"
        }
      ],
      "payable": false,
      "stateMutability": "view",
      "type": "function"
    },
    {
      "constant": true,
      "inputs": [
        {
          "internalType": "uint256",
          "name": "_interest",
          "type": "uint256"
        },
        {
          "internalType": "uint256",
          "name": "_payTerm",
          "type": "uint256"
        },
        {
          "internalType": "uint256",
          "name": "_borrowAmt",
          "type": "uint256"
        },
        {
          "internalType": "uint256",
          "name": "_lastPaymentDate",
          "type": "uint256"
        }
      ],
      "name": "lateInterestAmt",
      "outputs": [
        {
          "internalType": "uint256",
          "name": "",
          "type": "uint256"
        }
      ],
      "payable": false,
      "stateMutability": "view",
      "type": "function"
    },
    {
      "constant": true,
      "inputs": [
        {
          "internalType": "uint256",
          "name": "_interest",
          "type": "uint256"
        },
        {
          "internalType": "uint256",
          "name": "_payTerm",
          "type": "uint256"
        },
        {
          "internalType": "uint256",
          "name": "_borrowAmt",
          "type": "uint256"
        },
        {
          "internalType": "uint256",
          "name": "_lastPaymentDate",
          "type": "uint256"
        }
      ],
      "name": "totalInterestAmt",
      "outputs": [
        {
          "internalType": "uint256",
          "name": "",
          "type": "uint256"
        }
      ],
      "payable": false,
      "stateMutability": "view",
      "type": "function"
    },
    {
      "constant": false,
      "inputs": [
        {
          "internalType": "address",
          "name": "_borrowId",
          "type": "address"
        }
      ],
      "name": "payInterest",
      "outputs": [],
      "payable": true,
      "stateMutability": "payable",
      "type": "function"
    },
    {
      "constant": false,
      "inputs": [
        {
          "internalType": "address",
          "name": "_borrowId",
          "type": "address"
        }
      ],
      "name": "closeBorrow",
      "outputs": [],
      "payable": true,
      "stateMutability": "payable",
      "type": "function"
    }
  ],
  "bytecode": "0x6080604052600a805461ffff60a01b1916750168000000000000000000000000000000000000000017905560c8600b5562015180600c553480156200004357600080fd5b506040805180820190915260118082527f636f6e7374727563746f722076616c756500000000000000000000000000000060209092019182526200008a91600091620000a3565b50600a80546001600160a01b0319163317905562000148565b828054600181600116156101000203166002900490600052602060002090601f016020900481019282601f10620000e657805160ff191683800117855562000116565b8280016001018555821562000116579182015b8281111562000116578251825591602001919060010190620000f9565b506200012492915062000128565b5090565b6200014591905b808211156200012457600081556001016200012f565b90565b6124cd80620001586000396000f3fe6080604052600436106101d85760003560e01c806375c85c2411610102578063c8707ef811610095578063ec3e5bf411610064578063ec3e5bf4146108e7578063eda8d8871461091a578063f4b901e814610944578063f5c0b4fc14610995576101d8565b8063c8707ef81461078f578063cdc32901146107b9578063d007c64414610885578063e466532d146108ab576101d8565b8063920ab09f116100d1578063920ab09f146106625780639c9651bb1461068c578063ab63d7f21461074a578063ae44bfc51461075f576101d8565b806375c85c241461047c5780637d9cdf9a14610540578063855d63cc14610611578063893d20e81461064d576101d8565b80634a57a64c1161017a5780636f0de9a0116101495780636f0de9a0146103e55780636f2a95991461040f5780636f9fb98a1461044157806371bfbd4e14610456576101d8565b80634a57a64c146103465780634ae1d90f146103705780634c756b5e146103a657806360b25893146103bb576101d8565b806329a9c258116101b657806329a9c258146102b45780632e97766d146102da5780633903a322146103015780633d9f511714610331576101d8565b806304ef5b21146101dd5780631313a16114610223578063276d2a721461024f575b600080fd5b3480156101e957600080fd5b506102076004803603602081101561020057600080fd5b50356109bf565b604080516001600160a01b039092168252519081900360200190f35b34801561022f57600080fd5b5061024d6004803603602081101561024657600080fd5b50356109e6565b005b34801561025b57600080fd5b50610264610a9d565b60408051602080825283518183015283519192839290830191858101910280838360005b838110156102a0578181015183820152602001610288565b505050509050019250505060405180910390f35b61024d600480360360208110156102ca57600080fd5b50356001600160a01b0316610b00565b3480156102e657600080fd5b506102ef610dc0565b60408051918252519081900360200190f35b34801561030d57600080fd5b506102ef6004803603604081101561032457600080fd5b5080359060200135610dc4565b34801561033d57600080fd5b506102ef610de7565b34801561035257600080fd5b506102ef6004803603602081101561036957600080fd5b5035610e72565b34801561037c57600080fd5b506102ef6004803603606081101561039357600080fd5b5080359060208101359060400135610e8c565b3480156103b257600080fd5b506102ef610ed2565b3480156103c757600080fd5b5061024d600480360360208110156103de57600080fd5b5035610ed8565b3480156103f157600080fd5b506102ef6004803603602081101561040857600080fd5b5035610f8b565b61024d6004803603606081101561042557600080fd5b506001600160a01b038135169060208101359060400135610faa565b34801561044d57600080fd5b506102ef61145d565b61024d6004803603602081101561046c57600080fd5b50356001600160a01b0316611462565b34801561048857600080fd5b5061052c6004803603602081101561049f57600080fd5b8101906020810181356401000000008111156104ba57600080fd5b8201836020820111156104cc57600080fd5b803590602001918460208302840111640100000000831117156104ee57600080fd5b919080806020026020016040519081016040528093929190818152602001838360200280828437600092019190915250929550611630945050505050565b604080519115158252519081900360200190f35b34801561054c57600080fd5b506105736004803603602081101561056357600080fd5b50356001600160a01b03166116b1565b604051808a6001600160a01b03166001600160a01b0316815260200189815260200188815260200187815260200186815260200185815260200184815260200183815260200180602001828103825283818151815260200191508051906020019060200280838360005b838110156105f55781810151838201526020016105dd565b505050509050019a505050505050505050505060405180910390f35b34801561061d57600080fd5b506102ef6004803603608081101561063457600080fd5b5080359060208101359060408101359060600135611836565b34801561065957600080fd5b50610207611896565b34801561066e57600080fd5b506102076004803603602081101561068557600080fd5b50356118a5565b61024d600480360360a08110156106a257600080fd5b81359160208101359160408201359160ff6060820135169181019060a0810160808201356401000000008111156106d857600080fd5b8201836020820111156106ea57600080fd5b8035906020019184602083028401116401000000008311171561070c57600080fd5b9190808060200260200160405190810160405280939291908181526020018383602002808284376000920191909152509295506118b2945050505050565b34801561075657600080fd5b50610207611b22565b34801561076b57600080fd5b506102ef6004803603604081101561078257600080fd5b5080359060200135611b97565b34801561079b57600080fd5b50610207600480360360208110156107b257600080fd5b5035611bc7565b3480156107c557600080fd5b5061024d600480360360608110156107dc57600080fd5b6001600160a01b03823581169260208101359091169181019060608101604082013564010000000081111561081057600080fd5b82018360208201111561082257600080fd5b8035906020019184600183028401116401000000008311171561084457600080fd5b91908080601f016020809104026020016040519081016040528093929190818152602001838380828437600092019190915250929550611bd4945050505050565b61024d6004803603602081101561089b57600080fd5b50356001600160a01b0316611d17565b3480156108b757600080fd5b506102ef600480360360808110156108ce57600080fd5b5080359060208101359060408101359060600135611eb7565b3480156108f357600080fd5b5061052c6004803603602081101561090a57600080fd5b50356001600160a01b0316611eda565b34801561092657600080fd5b506102ef6004803603602081101561093d57600080fd5b5035612044565b34801561095057600080fd5b5061097f6004803603604081101561096757600080fd5b506001600160a01b038135811691602001351661204c565b6040805160ff9092168252519081900360200190f35b3480156109a157600080fd5b506102ef600480360360208110156109b857600080fd5b50356120c0565b600781815481106109cc57fe5b6000918252602090912001546001600160a01b0316905081565b600a546001600160a01b03163314610a2f5760405162461bcd60e51b815260040180806020018281038252602e815260200180612312602e913960400191505060405180910390fd5b600554811115610a7f576040805162461bcd60e51b815260206004820152601660248201527524b73b30b634b2103830b4b934b7339034b73232bc1760511b604482015290519081900360640190fd5b6000908152600960205260409020600301805460ff19166001179055565b60606004805480602002602001604051908101604052809291908181526020018280548015610af557602002820191906000526020600020905b81546001600160a01b03168152600190910190602001808311610ad7575b505050505090505b90565b6001600160a01b03818116600090815260016020526040902054163314610b585760405162461bcd60e51b81526004018080602001828103825260238152602001806123b36023913960400191505060405180910390fd5b60026001600160a01b03821660009081526001602052604090206009015460ff166003811115610b8457fe5b1415610bca576040805162461bcd60e51b815260206004820152601060248201526f204c6f616e206e6f742061637469766560801b604482015290519081900360640190fd5b6001600160a01b03811660009081526001602052604081206009015460ff166003811115610bf457fe5b148015610c1b57506001600160a01b03811660009081526001602052604090206004015415155b15610c98576001600160a01b03811660009081526001602052604080822060098101805460ff1916600217905560040154905133926108fc831502929190818181858888f19350505050158015610c76573d6000803e3d6000fd5b506001600160a01b038116600090815260016020526040812060040155610dbd565b60016001600160a01b03821660009081526001602052604090206009015460ff166003811115610cc457fe5b1415610cf5576001600160a01b0381166000908152600160205260409020600901805460ff19166003179055610dbd565b60036001600160a01b03821660009081526001602052604090206009015460ff166003811115610d2157fe5b148015610d4457506001600160a01b038116600090815260086020526040902054155b15610dbd576001600160a01b03811660009081526001602052604080822060098101805460ff1916600217905560040154905133926108fc831502929190818181858888f19350505050158015610d9f573d6000803e3d6000fd5b506001600160a01b0381166000908152600160205260408120600401555b50565b4290565b60006064838361271081610dd457fe5b040281610ddd57fe5b0490505b92915050565b600554600090610e32576040805162461bcd60e51b81526020600482015260116024820152704e6f2050616972696e672065786973747360781b604482015290519081900360640190fd5b6000805b600554811015610e6c5760008181526009602052604090206003015460ff1660011415610e64576001909101905b600101610e36565b50905090565b6000600c5480610e7e57fe5b60008308820390505b919050565b6000808211610e9d57506000610ecb565b6000610ea8846120de565b600a549091508390600160a01b900461ffff168281610ec357fe5b048602029150505b9392505050565b60055490565b600a546001600160a01b03163314610f215760405162461bcd60e51b81526004018080602001828103825260308152602001806124436030913960400191505060405180910390fd5b6005548110610f70576040805162461bcd60e51b815260206004820152601660248201527524b73b30b634b2103830b4b934b7339034b73232bc1760511b604482015290519081900360640190fd5b6000908152600960205260409020600301805460ff19169055565b600080600c5480610f9857fe5b60008408600c54930390920192915050565b6001600160a01b0383166000908152600160205260409020600401548211801590610ff057506001600160a01b0383166000908152600160205260409020600301548211155b61102b5760405162461bcd60e51b81526004018080602001828103825260408152602001806123406040913960400191505060405180910390fd5b6001600160a01b03831660009081526001602052604081206009015460ff16600381111561105557fe5b148061108a575060016001600160a01b03841660009081526001602052604090206009015460ff16600381111561108857fe5b145b6110c55760405162461bcd60e51b81526004018080602001828103825260238152602001806124206023913960400191505060405180910390fd5b6001600160a01b038316600090815260016020819052604090912001546110ed908390610dc4565b34101561112b5760405162461bcd60e51b815260040180806020018281038252604a8152602001806123d6604a913960600191505060405180910390fd5b6111358382612129565b1515600114611181576040805162461bcd60e51b815260206004820152601360248201527250616972696e67206d7573742065786973747360681b604482015290519081900360640190fd5b6001600160a01b03831660009081526001602052604081206009015460ff1660038111156111ab57fe5b14156111db576001600160a01b0383166000908152600160208190526040909120600901805460ff191690911790555b6001600160a01b0383166000908152600160205260408082206004018054859003905551339184156108fc02918591818181858888f19350505050158015611227573d6000803e3d6000fd5b50426000611233611b22565b9050604051806101600160405280336001600160a01b0316815260200160018152602001866001600160a01b031681526020018581526020018481526020016000600281111561127f57fe5b8152602001838152602001637fffffff81526020018381526020016112ec846112e7600160008b6001600160a01b03166001600160a01b0316815260200190815260200160002060050160009054906101000a900460ff1660038111156112e257fe5b6120de565b611b97565b815260200161132386600160008a6001600160a01b03166001600160a01b0316815260200190815260200160002060010154610dc4565b90526001600160a01b03808316600090815260026020818152604092839020855181549086166001600160a01b03199182161782559186015160018083019190915593860151818401805491909616921691909117909355606084015160038401556080840151600484015560a08401516005840180549193909260ff199092169184908111156113b057fe5b021790555060c082015160068083019190915560e08301516007830155610100830151600880840191909155610120840151600984015561014090930151600a90920191909155805460018181019092557ff652222313e28459528d920b65115c16c04f3efc82aaedc97be59f3f377c0d3f0180546001600160a01b039094166001600160a01b031990941684179055600092835260209190915260409091208054909101905550505050565b303190565b6001600160a01b038181166000908152600260205260409020541633146114d0576040805162461bcd60e51b815260206004820152601960248201527f204d75737420626520626f72726f777320626f72726f77657200000000000000604482015290519081900360640190fd5b6001600160a01b0381166000908152600260205260409020600a015461153d576040805162461bcd60e51b815260206004820152601a60248201527f20436f6c6c61746572616c20416d6f756e74206e6f206d6f7265000000000000604482015290519081900360640190fd5b6001600160a01b038082166000908152600260208181526040808420909201549093168252600890925220546115ac576040805162461bcd60e51b815260206004820152600f60248201526e1027379030b1ba34bb32903637b0b760891b604482015290519081900360640190fd5b6001600160a01b038116600090815260026020526040808220600a01549051339282156108fc02929190818181858888f193505050501580156115f3573d6000803e3d6000fd5b506001600160a01b039081166000908152600260208181526040808420600a81018590559092015490931682526008909252208054600019019055565b6005546000908190158015906116465750825115155b15610de15760005b83518110156116aa576009600085838151811061166757fe5b60209081029190910181015182528101919091526040016000206003015460ff166001141561169957600191506116a2565b600091506116aa565b60010161164e565b5092915050565b60008060008060008060008060606116c761219d565b6001600160a01b03808c16600090815260016020818152604092839020835161014081018552815490951685529182015490840152600281015491830191909152600380820154606084015260048201546080840152600582015460a084019160ff9091169081111561173657fe5b600381111561174157fe5b81526020016006820154815260200160078201548152602001600882018054806020026020016040519081016040528092919081815260200182805480156117a857602002820191906000526020600020905b815481526020019060010190808311611794575b5050509183525050600982015460209091019060ff1660038111156117c957fe5b60038111156117d457fe5b815250509050806000015181602001518260400151836060015184608001518560a00151600381111561180357fe5b8660c001518760e00151886101000151809050995099509950995099509950995099509950509193959799909294969850565b60008061184a611845866120de565b612044565b905042818401111561188857600b54600a5442859003830191869190890190600160a01b900461ffff16838161187c57fe5b0402029250505061188e565b60009150505b949350505050565b600a546001600160a01b031690565b600681815481106109cc57fe5b8234116118f05760405162461bcd60e51b81526004018080602001828103825260338152602001806123806033913960400191505060405180910390fd5b6064851061192f5760405162461bcd60e51b81526004018080602001828103825260268152602001806124736026913960400191505060405180910390fd5b61193881611630565b1515600114611980576040805162461bcd60e51b815260206004820152600f60248201526e496e76616c69642070616972696e6760881b604482015290519081900360640190fd5b600061198a611b22565b9050604051806101400160405280336001600160a01b031681526020018781526020018681526020018581526020018581526020018460038111156119cb57fe5b8152637fffffff602082015242604082015260608101849052608001600090526001600160a01b03828116600090815260016020818152604092839020855181546001600160a01b03191695169490941784558401518382015590830151600283015560608301516003808401919091556080840151600484015560a08401516005840180549193909260ff19909216918490811115611a6757fe5b021790555060c0820151600682015560e082015160078201556101008201518051611a9c91600884019160209091019061220e565b5061012082015160098201805460ff19166001836003811115611abb57fe5b02179055505060048054600181019091557f8a35acfbc15ff81a39ae7d344fd709f28e8600b4aa8c65c6b64bfe7fe36bd19b0180546001600160a01b039093166001600160a01b031990931683179055506000908152600860205260408120555050505050565b604080513360601b6020808301919091524260348084019190915283518084039091018152605490920190925280519101206000908160135b6001810115611b9057600181601460ff16030360020260100a838260148110611b8057fe5b1a02919091019060001901611b5b565b5091505090565b6000805b611ba483612044565b611bad85610f8b565b019050611bb942610e72565b811115611b9b579392505050565b600481815481106109cc57fe5b600a546001600160a01b03163314611c1d5760405162461bcd60e51b81526004018080602001828103825260318152602001806122e16031913960400191505060405180910390fd5b600554801580611c375750611c32848461204c565b60ff16155b15611d1157604080516080810182526001600160a01b038087168252858116602080840191825283850187815260016060860181905260008881526009845296909620855181549086166001600160a01b03199182161782559351968101805497909516969093169590951790925592518051929392611cbd9260028501920190612259565b50606091909101516003909101805460ff191660ff909216919091179055600580546001810182556000919091527f036b6384b5eca791c62761152d0c79bb0604c104a5fb6f4eb0703f3154bb3db0018190555b50505050565b6001600160a01b038116600090815260026020819052604082206005015460ff1690811115611d4257fe5b14611d85576040805162461bcd60e51b815260206004820152600e60248201526d496e76616c696420626f72726f7760901b604482015290519081900360640190fd5b6001600160a01b03818116600090815260026020818152604080842083015490941683526001905291902090810154600590910154611df5919060ff166003811115611dcd57fe5b6001600160a01b03841660009081526002602052604090206003810154600890910154611eb7565b341015611e40576040805162461bcd60e51b8152602060048201526014602482015273125b9cdd58da59999a58d95b9d08185b5bdd5b9d60621b604482015290519081900360640190fd5b6001600160a01b0380821660009081526002602081815260408084206009810154426008830181905591909401549095168452600190915290912060050154611e9390829060ff1660038111156112e757fe5b6001600160a01b039093166000908152600260205260409020600901929092555050565b6000611ec585858585611836565b611ed0868686610e8c565b0195945050505050565b6000611ee461219d565b6001600160a01b03808416600090815260016020818152604092839020835161014081018552815490951685529182015490840152600281015491830191909152600380820154606084015260048201546080840152600582015460a084019160ff90911690811115611f5357fe5b6003811115611f5e57fe5b8152602001600682015481526020016007820154815260200160088201805480602002602001604051908101604052809291908181526020018280548015611fc557602002820191906000526020600020905b815481526020019060010190808311611fb1575b5050509183525050600982015460209091019060ff166003811115611fe657fe5b6003811115611ff157fe5b90525090506001816101200151600381111561200957fe5b148061202c57506001600160a01b03831660009081526008602052604090205415155b1561203b576001915050610e87565b50600092915050565b620151800290565b6000805b6005548110156120b6576000818152600960205260409020546001600160a01b03858116911614801561209f57506000818152600960205260409020600101546001600160a01b038481169116145b156120ae576001915050610de1565b600101612050565b5060009392505050565b600581815481106120cd57fe5b600091825260209091200154905081565b6000816120ed57506007610e87565b81600114156120fe5750601e610e87565b816002141561210f5750605a610e87565b8160031415612120575060b4610e87565b50610168610e87565b6000805b6001600160a01b0384166000908152600160205260409020600801548110156120b6576001600160a01b038416600090815260016020526040902060080180548491908390811061217a57fe5b90600052602060002001541415612195576001915050610de1565b60010161212d565b60405180610140016040528060006001600160a01b0316815260200160008152602001600081526020016000815260200160008152602001600060038111156121e257fe5b81526020016000815260200160008152602001606081526020016000600381111561220957fe5b905290565b828054828255906000526020600020908101928215612249579160200282015b8281111561224957825182559160200191906001019061222e565b506122559291506122c6565b5090565b828054600181600116156101000203166002900490600052602060002090601f016020900481019282601f1061229a57805160ff1916838001178555612249565b82800160010185558215612249579182018281111561224957825182559160200191906001019061222e565b610afd91905b8082111561225557600081556001016122cc56fe4f6e6c7920636f6e7472616374206f776e65722063616e20616464206e657720737570706f727465642070616972696e674f6e6c7920636f6e7472616374206f776e65722063616e206163746976652070616972696e6720737570706f7274204c656e6420616d6f756e742063616e6e6f74206265206d6f7265207468616e20697373756520616d6f756e7420616e642063757272656e7420616d6f756e74204d6573736167652076616c75652073686f756c64206265206d6f7265207468616e2074686520697373756520616d6f756e744f6e6c79206c656e64206f776e65722063616e20636c6f736520746865206c6f616e2e4d6573736167652076616c7565206861766520746f206265206d6f7265207468616e20746865206c6f616e20746f2076616c756520616d6f756e74206f66206c656e6420616d6f756e74204c656e64206163636f756e7420697320696e6163746976652f73757370656e6465644f6e6c7920636f6e7472616374206f776e65722063616e2064656163746976652070616972696e6720737570706f7274204c54562073686f756c64206265206c657373207468616e20616e6420657175616c20313030a265627a7a72315820991e3cd04d0f875e89d0139e2cd5ae916bbc3bd71228539e69f262151cc00bbe64736f6c634300050b0032",
  "source": "pragma solidity ^0.5.7;\n\ncontract EthLoan {\n    string value;\n\n    enum PaymentTerm{WEEKLY,MONTHLY,QUARTERLY,YEARLY}\n    enum TransactionType{NEW,REPAY,CLOSE,UPDATE,DEFAULT}\n    enum BorrowStatus{ACTIVE,INACTIVE,LATE}\n    enum LendStatus{ACTIVE,RUNNING,INACTIVE,SUSPEND}\n\n    struct Pairing {\n        address baseCurry;\n        address counterCurry;\n        string desc;\n        uint8 active;\n    }\n\n    struct Lend{\n        address lendAddress;\n        uint ltv; //1-100\n        uint interest; // 100 basis point = 1 percent\n        uint issueAmt; // wei - 1 eth = 1,000,000,000,000,000,000 wei\n        uint currentAmt; // wei\n        PaymentTerm paymentTerm;\n        uint endDate;\n        uint startDate;\n        uint[] pairing;\n        LendStatus lendStatus;\n    }\n\n    struct Borrow{\n        address borrowAddress;\n        uint exchRate;\n        address lendId;\n        uint borrowAmt;\n        //Pairing pairing;\n        uint pairing;\n        BorrowStatus borrowStatus; //A - Active, I - Inactive, L - Late\n        uint borrowStartDate;\n        uint borrowEndDate;\n        uint lastPaymentDate;\n        uint nextPaymentDateBy;\n        uint collatAmt;\n    }\n\n    struct Transaction{\n        uint lendId;\n        uint borrowId;\n        uint exchRate;\n        TransactionType transactionType;\n        uint transactionAmt;\n        uint pairing;\n        //Pairing pairing;\n    }\n\n    mapping (address => Lend) lends;\n    //mapping (address => Pairing) pairs;\n    mapping (address => Borrow) borrows;\n    mapping (address => Transaction) transactions;\n    address[] public lendList;\n    uint[] public pairing;//address[] public pairing;\n    address[] public borrowList;\n    address[] public transactionList;\n    mapping (address => uint) activeLoan;\n    mapping (uint => Pairing) pair;\n\n    address owner;\n    uint16 dayCount = 360;\n    uint lateCharge = 200; // 200 basis point = 2 percent\n    uint epochDay = 86400; // 60 x 60 x 24 = Epoch day\n\n    constructor() public {\n        value = \"constructor value\";\n        owner = msg.sender;\n       // pairing.push(Pairing(0x0000000000000000000000000000000000000000,0x0000000000000000000000000000000000000000,'ETH/ETH',1));\n    }\n\n    function checkExistsPairing(address _baseCurry, address _counterCurry) public view returns (uint8){\n        for (uint i; i < pairing.length;i++){\n            if (pair[i].baseCurry==_baseCurry && pair[i].counterCurry==_counterCurry)\n                return 1;\n        }\n        return 0;\n    }\n\n    function addPairing(address _baseCurry, address _counterCurry, string memory _desc) public {\n        require(msg.sender == owner,'Only contract owner can add new supported pairing');\n        uint noPair = pairing.length;\n        if(noPair == 0 || checkExistsPairing(_baseCurry,_counterCurry) == 0){\n            pair[noPair] = Pairing(_baseCurry,_counterCurry,_desc,1);\n            pairing.push(noPair);\n        }\n    }\n\n    function getNoPairing() public view returns(uint) {\n        return pairing.length;\n    }\n\n    function deactivePairing(uint _index) public {\n        require(msg.sender == owner,'Only contract owner can deactive pairing support');\n        require(pairing.length > _index, 'Invalid pairing index.');\n        pair[_index].active = 0;\n    }\n\n    function getNoPairingActive() public view returns(uint) {\n        require(pairing.length > 0,'No Pairing exists');\n        uint counter = 0;\n        for(uint i = 0;i<pairing.length;i++) {\n            if(pair[i].active == 1)\n                counter++;\n        }\n        return counter;\n    }\n\n    function activePairing(uint _index) public {\n        require(msg.sender == owner,'Only contract owner can active pairing support');\n        require(pairing.length >= _index, 'Invalid pairing index.');\n        pair[_index].active = 1;\n    }\n\n    function getBlock() public view returns (uint) {\n        return now;\n    }\n\n    function getOwner() public view returns(address){\n        return owner;\n    }\n\n    function getContractBalance() public view returns(uint){\n        return address(this).balance;\n    }\n\n    function getUniqueId() public view returns (address) {\n        bytes20 b = bytes20(keccak256(abi.encodePacked(msg.sender, now)));\n        uint addr = 0;\n        for (uint index = b.length-1; index+1 > 0; index--) {\n            addr += uint(uint8(b[index])) * ( 16 ** ((b.length - index - 1) * 2));\n        }\n        //to-do check if address exists\n\n        return address(addr);\n    }\n\n    function checkPairing(uint[] memory _pairingList) public view returns(bool) {\n        bool check = false;\n        if(pairing.length != 0 && _pairingList.length != 0){\n            for(uint i = 0; i<_pairingList.length;i++) {\n                if(pair[_pairingList[i]].active == 1)\n                    check = true;\n                else {\n                    check = false;\n                    break;\n                }\n            }\n        }\n        return check;\n    }\n\n    function newLend(uint _ltv,uint _interest, uint _issueAmt, PaymentTerm _paymentTerm, uint[] memory _pairingList ) public payable {\n        require(msg.value > _issueAmt,' Message value should be more than the issue amount');\n        require(_ltv < 100, ' LTV should be less than and equal 100');\n        require(checkPairing(_pairingList) == true, 'Invalid pairing');\n        address tempAddr = getUniqueId();\n\n        lends[tempAddr] = Lend(msg.sender,_ltv,_interest,_issueAmt,_issueAmt,_paymentTerm,2147483647,now,_pairingList,LendStatus.ACTIVE);\n\n        lendList.push(tempAddr);\n        activeLoan[tempAddr] = 0;\n    }\n\n    function checkLend(address _address) public view returns (address, uint,uint,uint,uint,uint,uint,uint,uint[] memory) {\n        //string memory retJSON = '{ '+'';\n        Lend memory tempLend = lends[_address];\n        return (tempLend.lendAddress,tempLend.ltv,tempLend.interest,tempLend.issueAmt,tempLend.currentAmt,uint(tempLend.paymentTerm),tempLend.endDate,tempLend.startDate,tempLend.pairing);\n    }\n\n    function getAllLend() external view returns (address[] memory) {\n        return lendList;\n    }\n\n    function checkActiveBorrower(address _address) public view returns(bool) {\n        Lend memory tempLend = lends[_address];\n        if(tempLend.lendStatus == LendStatus.RUNNING || activeLoan[_address] > 0) {\n            return true;\n        }\n        return false;\n    }\n\n    function closeLend(address _lendId) public payable {\n        //Lend memory tempLend = lends[_lendId];\n        require(msg.sender == lends[_lendId].lendAddress,'Only lend owner can close the loan.');\n        require(lends[_lendId].lendStatus != LendStatus.INACTIVE, ' Loan not active');\n        //to-do only allow if there is no active borrower in loan account\n        if(lends[_lendId].lendStatus == LendStatus.ACTIVE && lends[_lendId].currentAmt > 0) {\n            lends[_lendId].lendStatus = LendStatus.INACTIVE;\n            msg.sender.transfer(lends[_lendId].currentAmt);\n            lends[_lendId].currentAmt = 0;\n        }\n        else if (lends[_lendId].lendStatus == LendStatus.RUNNING) {\n            lends[_lendId].lendStatus = LendStatus.SUSPEND;\n        }\n        else if (lends[_lendId].lendStatus == LendStatus.SUSPEND && activeLoan[_lendId] == 0){\n            lends[_lendId].lendStatus = LendStatus.INACTIVE;\n            msg.sender.transfer(lends[_lendId].currentAmt);\n            lends[_lendId].currentAmt = 0;\n        }\n    }\n\n    function checkpairingExist(address _lendId,uint _pairingId)  private view returns (bool) {\n        for(uint i = 0; i<lends[_lendId].pairing.length; i++) {\n            if(lends[_lendId].pairing[i] == _pairingId) {\n                return true;\n            }\n        }\n        return false;\n    }\n\n    //Date Related Section - Start\n    function calcNextDay(uint _epoch) public view returns (uint) {\n        uint x = addmod(_epoch,0,epochDay);\n        return (_epoch - x + epochDay);\n    }\n\n    function calcStartDay(uint _epoch) public view returns(uint) {\n        return (_epoch - addmod(_epoch,0,epochDay));\n    }\n\n    function calcNextCycle(uint _epoch,uint _period) public view returns(uint) {\n        uint nextCycle = 0;\n        do {\n           nextCycle = (calcNextDay(_epoch) + (convertDayToEpoch(_period)));\n        }while(nextCycle <= calcStartDay(now));\n        return nextCycle;\n    }\n\n    function getPaymentDay(uint _payTerm) private pure returns (uint) {\n        if (_payTerm == 0)\n            return 7;\n        else if (_payTerm == 1)\n            return 30;\n        else if (_payTerm == 2)\n            return 90;\n        else if (_payTerm == 3)\n            return 180;\n        else\n            return 360;\n    }\n\n    function convertDayToEpoch(uint _day) public pure returns(uint) {\n        return uint(_day*60*60*24);\n    }\n\n    //Date Related Section - End\n\n    function calcCollatAmt(uint _lendAmt,uint _ltv) public pure returns (uint) {\n        return (10000/_ltv * _lendAmt)/100;\n    }\n\n    function borrowLend(address _lendId, uint _lendAmt, uint _pairingId) public payable {\n        //require(msg.value > _lendAmt, 'Message value must be more than lend amount');\n        require(_lendAmt <= lends[_lendId].currentAmt && _lendAmt <= lends[_lendId].issueAmt,' Lend amount cannot be more than issue amount and current amount');\n        require(lends[_lendId].lendStatus == LendStatus.ACTIVE || lends[_lendId].lendStatus == LendStatus.RUNNING, ' Lend account is inactive/suspended');\n        require(msg.value >= calcCollatAmt(_lendAmt,lends[_lendId].ltv), 'Message value have to be more than the loan to value amount of lend amount');\n        require(checkpairingExist(_lendId,_pairingId) == true, 'Pairing must exists');\n        if(lends[_lendId].lendStatus == LendStatus.ACTIVE) {\n            lends[_lendId].lendStatus = LendStatus.RUNNING;\n        }\n\n        lends[_lendId].currentAmt -= _lendAmt;\n        msg.sender.transfer(_lendAmt);\n        uint current = now;\n        address tempAddr = getUniqueId();\n        borrows[tempAddr] = Borrow(msg.sender,1,_lendId,_lendAmt,_pairingId,BorrowStatus.ACTIVE,current,2147483647,current,calcNextCycle(current,getPaymentDay(uint(lends[_lendId].paymentTerm))),calcCollatAmt(_lendAmt,lends[_lendId].ltv));\n\n        borrowList.push(tempAddr);\n        activeLoan[tempAddr] += 1;\n    }\n\n    //Calculate interest - Start\n\n    function interestAmt(uint _interest,uint _payTerm,uint _borrowAmt) public view returns (uint) {\n        if(_borrowAmt <= 0)\n            return 0;\n        uint period = getPaymentDay(_payTerm);\n        return uint(uint(_interest) * (period/dayCount) * uint(_borrowAmt));\n    }\n\n    function lateInterestAmt(uint _interest,uint _payTerm,uint _borrowAmt,uint _lastPaymentDate) public view returns(uint) {\n        uint period = convertDayToEpoch(getPaymentDay(_payTerm));\n\n        if((_lastPaymentDate + period) > now ) {\n            uint accurIntrDay = now - _lastPaymentDate + period;\n            return uint((accurIntrDay/dayCount) * (_interest + lateCharge) * uint(_borrowAmt));\n        }\n        return 0;\n    }\n\n    function totalInterestAmt(uint _interest,uint _payTerm,uint _borrowAmt,uint _lastPaymentDate) public view returns (uint) {\n        return (interestAmt(_interest,_payTerm,_borrowAmt) + lateInterestAmt(_interest,_payTerm,_borrowAmt,_lastPaymentDate));\n    }\n\n    //Calculate interest - End\n\n    function payInterest(address _borrowId) public payable {\n        require(borrows[_borrowId].borrowStatus == BorrowStatus.ACTIVE, 'Invalid borrow');\n        require(msg.value >= totalInterestAmt(lends[borrows[_borrowId].lendId].interest,uint(lends[borrows[_borrowId].lendId].paymentTerm),borrows[_borrowId].borrowAmt,borrows[_borrowId].lastPaymentDate),'Insucifficent amount');\n        uint current = now;\n        uint nextPayDate = borrows[_borrowId].nextPaymentDateBy;\n        borrows[_borrowId].lastPaymentDate = current;\n        borrows[_borrowId].nextPaymentDateBy = calcNextCycle(nextPayDate,uint(lends[borrows[_borrowId].lendId].paymentTerm));\n    }\n\n    function closeBorrow(address _borrowId) public payable {\n        require(msg.sender == borrows[_borrowId].borrowAddress,' Must be borrows borrower');\n        require(borrows[_borrowId].collatAmt > 0,' Collateral Amount no more');\n        require(activeLoan[borrows[_borrowId].lendId] > 0,' No active loan');\n        msg.sender.transfer(borrows[_borrowId].collatAmt);\n        borrows[_borrowId].collatAmt = 0;\n        activeLoan[borrows[_borrowId].lendId] -= 1;\n    }\n\n}",
  "sourcePath": "/home/imehy3u/Documents/Project/ETH P2P LOAN/ETHLOAN/loancontract-eth/contracts/eth_p2p_loan.sol",
  "compiler": {
    "name": "solc",
    "version": "0.5.11+commit.c082d0b4.Emscripten.clang"
  },
  "schemaVersion": "3.0.11",
  "updatedAt": "2019-10-20T07:39:26.968Z",
  "devdoc": {
    "methods": {}
  },
  "userdoc": {
    "methods": {}
  }
}