{
  "contractName": "EthLoan",
  "abi": [
    {
      "inputs": [],
      "payable": false,
      "stateMutability": "nonpayable",
      "type": "constructor"
    },
    {
      "constant": true,
      "inputs": [
        {
          "internalType": "uint256",
          "name": "",
          "type": "uint256"
        }
      ],
      "name": "borrowList",
      "outputs": [
        {
          "internalType": "address",
          "name": "",
          "type": "address"
        }
      ],
      "payable": false,
      "stateMutability": "view",
      "type": "function"
    },
    {
      "constant": true,
      "inputs": [
        {
          "internalType": "uint256",
          "name": "",
          "type": "uint256"
        }
      ],
      "name": "lendList",
      "outputs": [
        {
          "internalType": "address",
          "name": "",
          "type": "address"
        }
      ],
      "payable": false,
      "stateMutability": "view",
      "type": "function"
    },
    {
      "constant": true,
      "inputs": [
        {
          "internalType": "uint256",
          "name": "",
          "type": "uint256"
        }
      ],
      "name": "pairing",
      "outputs": [
        {
          "internalType": "uint256",
          "name": "",
          "type": "uint256"
        }
      ],
      "payable": false,
      "stateMutability": "view",
      "type": "function"
    },
    {
      "constant": true,
      "inputs": [
        {
          "internalType": "uint256",
          "name": "",
          "type": "uint256"
        }
      ],
      "name": "transactionList",
      "outputs": [
        {
          "internalType": "address",
          "name": "",
          "type": "address"
        }
      ],
      "payable": false,
      "stateMutability": "view",
      "type": "function"
    },
    {
      "constant": true,
      "inputs": [
        {
          "internalType": "address",
          "name": "_baseCurry",
          "type": "address"
        },
        {
          "internalType": "address",
          "name": "_counterCurry",
          "type": "address"
        }
      ],
      "name": "checkExistsPairing",
      "outputs": [
        {
          "internalType": "uint8",
          "name": "",
          "type": "uint8"
        }
      ],
      "payable": false,
      "stateMutability": "view",
      "type": "function"
    },
    {
      "constant": false,
      "inputs": [
        {
          "internalType": "address",
          "name": "_baseCurry",
          "type": "address"
        },
        {
          "internalType": "address",
          "name": "_counterCurry",
          "type": "address"
        },
        {
          "internalType": "string",
          "name": "_desc",
          "type": "string"
        }
      ],
      "name": "addPairing",
      "outputs": [],
      "payable": false,
      "stateMutability": "nonpayable",
      "type": "function"
    },
    {
      "constant": true,
      "inputs": [],
      "name": "getNoPairing",
      "outputs": [
        {
          "internalType": "uint256",
          "name": "",
          "type": "uint256"
        }
      ],
      "payable": false,
      "stateMutability": "view",
      "type": "function"
    },
    {
      "constant": false,
      "inputs": [
        {
          "internalType": "uint256",
          "name": "_index",
          "type": "uint256"
        }
      ],
      "name": "deactivePairing",
      "outputs": [],
      "payable": false,
      "stateMutability": "nonpayable",
      "type": "function"
    },
    {
      "constant": true,
      "inputs": [],
      "name": "getNoPairingActive",
      "outputs": [
        {
          "internalType": "uint256",
          "name": "",
          "type": "uint256"
        }
      ],
      "payable": false,
      "stateMutability": "view",
      "type": "function"
    },
    {
      "constant": false,
      "inputs": [
        {
          "internalType": "uint256",
          "name": "_index",
          "type": "uint256"
        }
      ],
      "name": "activePairing",
      "outputs": [],
      "payable": false,
      "stateMutability": "nonpayable",
      "type": "function"
    },
    {
      "constant": true,
      "inputs": [],
      "name": "getBlock",
      "outputs": [
        {
          "internalType": "uint256",
          "name": "",
          "type": "uint256"
        }
      ],
      "payable": false,
      "stateMutability": "view",
      "type": "function"
    },
    {
      "constant": true,
      "inputs": [],
      "name": "getOwner",
      "outputs": [
        {
          "internalType": "address",
          "name": "",
          "type": "address"
        }
      ],
      "payable": false,
      "stateMutability": "view",
      "type": "function"
    },
    {
      "constant": true,
      "inputs": [],
      "name": "getContractBalance",
      "outputs": [
        {
          "internalType": "uint256",
          "name": "",
          "type": "uint256"
        }
      ],
      "payable": false,
      "stateMutability": "view",
      "type": "function"
    },
    {
      "constant": true,
      "inputs": [],
      "name": "getUniqueId",
      "outputs": [
        {
          "internalType": "address",
          "name": "",
          "type": "address"
        }
      ],
      "payable": false,
      "stateMutability": "view",
      "type": "function"
    },
    {
      "constant": true,
      "inputs": [
        {
          "internalType": "uint256[]",
          "name": "_pairingList",
          "type": "uint256[]"
        }
      ],
      "name": "checkPairing",
      "outputs": [
        {
          "internalType": "bool",
          "name": "",
          "type": "bool"
        }
      ],
      "payable": false,
      "stateMutability": "view",
      "type": "function"
    },
    {
      "constant": false,
      "inputs": [
        {
          "internalType": "uint256",
          "name": "_ltv",
          "type": "uint256"
        },
        {
          "internalType": "uint256",
          "name": "_interest",
          "type": "uint256"
        },
        {
          "internalType": "uint256",
          "name": "_issueAmt",
          "type": "uint256"
        },
        {
          "internalType": "enum EthLoan.PaymentTerm",
          "name": "_paymentTerm",
          "type": "uint8"
        },
        {
          "internalType": "uint256[]",
          "name": "_pairingList",
          "type": "uint256[]"
        }
      ],
      "name": "newLend",
      "outputs": [],
      "payable": true,
      "stateMutability": "payable",
      "type": "function"
    },
    {
      "constant": true,
      "inputs": [
        {
          "internalType": "address",
          "name": "_address",
          "type": "address"
        }
      ],
      "name": "checkLend",
      "outputs": [
        {
          "internalType": "address",
          "name": "",
          "type": "address"
        },
        {
          "internalType": "uint256",
          "name": "",
          "type": "uint256"
        },
        {
          "internalType": "uint256",
          "name": "",
          "type": "uint256"
        },
        {
          "internalType": "uint256",
          "name": "",
          "type": "uint256"
        },
        {
          "internalType": "uint256",
          "name": "",
          "type": "uint256"
        },
        {
          "internalType": "uint256",
          "name": "",
          "type": "uint256"
        },
        {
          "internalType": "uint256",
          "name": "",
          "type": "uint256"
        },
        {
          "internalType": "uint256",
          "name": "",
          "type": "uint256"
        },
        {
          "internalType": "uint256[]",
          "name": "",
          "type": "uint256[]"
        }
      ],
      "payable": false,
      "stateMutability": "view",
      "type": "function"
    },
    {
      "constant": true,
      "inputs": [],
      "name": "getAllLend",
      "outputs": [
        {
          "internalType": "address[]",
          "name": "",
          "type": "address[]"
        }
      ],
      "payable": false,
      "stateMutability": "view",
      "type": "function"
    },
    {
      "constant": true,
      "inputs": [
        {
          "internalType": "address",
          "name": "_address",
          "type": "address"
        }
      ],
      "name": "checkActiveBorrower",
      "outputs": [
        {
          "internalType": "bool",
          "name": "",
          "type": "bool"
        }
      ],
      "payable": false,
      "stateMutability": "view",
      "type": "function"
    },
    {
      "constant": false,
      "inputs": [
        {
          "internalType": "address",
          "name": "_lendId",
          "type": "address"
        }
      ],
      "name": "closeLend",
      "outputs": [],
      "payable": true,
      "stateMutability": "payable",
      "type": "function"
    },
    {
      "constant": true,
      "inputs": [
        {
          "internalType": "uint256",
          "name": "_epoch",
          "type": "uint256"
        }
      ],
      "name": "calcNextDay",
      "outputs": [
        {
          "internalType": "uint256",
          "name": "",
          "type": "uint256"
        }
      ],
      "payable": false,
      "stateMutability": "view",
      "type": "function"
    },
    {
      "constant": true,
      "inputs": [
        {
          "internalType": "uint256",
          "name": "_epoch",
          "type": "uint256"
        }
      ],
      "name": "calcStartDay",
      "outputs": [
        {
          "internalType": "uint256",
          "name": "",
          "type": "uint256"
        }
      ],
      "payable": false,
      "stateMutability": "view",
      "type": "function"
    },
    {
      "constant": true,
      "inputs": [
        {
          "internalType": "uint256",
          "name": "_epoch",
          "type": "uint256"
        },
        {
          "internalType": "uint256",
          "name": "_period",
          "type": "uint256"
        }
      ],
      "name": "calcNextCycle",
      "outputs": [
        {
          "internalType": "uint256",
          "name": "",
          "type": "uint256"
        }
      ],
      "payable": false,
      "stateMutability": "view",
      "type": "function"
    },
    {
      "constant": true,
      "inputs": [
        {
          "internalType": "uint256",
          "name": "_day",
          "type": "uint256"
        }
      ],
      "name": "convertDayToEpoch",
      "outputs": [
        {
          "internalType": "uint256",
          "name": "",
          "type": "uint256"
        }
      ],
      "payable": false,
      "stateMutability": "pure",
      "type": "function"
    },
    {
      "constant": true,
      "inputs": [
        {
          "internalType": "uint256",
          "name": "_lendAmt",
          "type": "uint256"
        },
        {
          "internalType": "uint256",
          "name": "_ltv",
          "type": "uint256"
        }
      ],
      "name": "calcCollatAmt",
      "outputs": [
        {
          "internalType": "uint256",
          "name": "",
          "type": "uint256"
        }
      ],
      "payable": false,
      "stateMutability": "pure",
      "type": "function"
    },
    {
      "constant": false,
      "inputs": [
        {
          "internalType": "address",
          "name": "_lendId",
          "type": "address"
        },
        {
          "internalType": "uint256",
          "name": "_lendAmt",
          "type": "uint256"
        },
        {
          "internalType": "uint256",
          "name": "_pairingId",
          "type": "uint256"
        }
      ],
      "name": "borrowLend",
      "outputs": [],
      "payable": true,
      "stateMutability": "payable",
      "type": "function"
    },
    {
      "constant": true,
      "inputs": [
        {
          "internalType": "uint256",
          "name": "_interest",
          "type": "uint256"
        },
        {
          "internalType": "uint256",
          "name": "_payTerm",
          "type": "uint256"
        },
        {
          "internalType": "uint256",
          "name": "_borrowAmt",
          "type": "uint256"
        }
      ],
      "name": "interestAmt",
      "outputs": [
        {
          "internalType": "uint256",
          "name": "",
          "type": "uint256"
        }
      ],
      "payable": false,
      "stateMutability": "view",
      "type": "function"
    },
    {
      "constant": true,
      "inputs": [
        {
          "internalType": "uint256",
          "name": "_interest",
          "type": "uint256"
        },
        {
          "internalType": "uint256",
          "name": "_payTerm",
          "type": "uint256"
        },
        {
          "internalType": "uint256",
          "name": "_borrowAmt",
          "type": "uint256"
        },
        {
          "internalType": "uint256",
          "name": "_lastPaymentDate",
          "type": "uint256"
        }
      ],
      "name": "lateInterestAmt",
      "outputs": [
        {
          "internalType": "uint256",
          "name": "",
          "type": "uint256"
        }
      ],
      "payable": false,
      "stateMutability": "view",
      "type": "function"
    },
    {
      "constant": true,
      "inputs": [
        {
          "internalType": "uint256",
          "name": "_interest",
          "type": "uint256"
        },
        {
          "internalType": "uint256",
          "name": "_payTerm",
          "type": "uint256"
        },
        {
          "internalType": "uint256",
          "name": "_borrowAmt",
          "type": "uint256"
        },
        {
          "internalType": "uint256",
          "name": "_lastPaymentDate",
          "type": "uint256"
        }
      ],
      "name": "totalInterestAmt",
      "outputs": [
        {
          "internalType": "uint256",
          "name": "",
          "type": "uint256"
        }
      ],
      "payable": false,
      "stateMutability": "view",
      "type": "function"
    },
    {
      "constant": false,
      "inputs": [
        {
          "internalType": "address",
          "name": "_borrowId",
          "type": "address"
        }
      ],
      "name": "payInterest",
      "outputs": [],
      "payable": true,
      "stateMutability": "payable",
      "type": "function"
    },
    {
      "constant": false,
      "inputs": [
        {
          "internalType": "address",
          "name": "_borrowId",
          "type": "address"
        }
      ],
      "name": "closeBorrow",
      "outputs": [],
      "payable": true,
      "stateMutability": "payable",
      "type": "function"
    },
    {
      "constant": true,
      "inputs": [
        {
          "internalType": "address",
          "name": "_sender",
          "type": "address"
        }
      ],
      "name": "getMsgSenderBalance",
      "outputs": [
        {
          "internalType": "uint256",
          "name": "",
          "type": "uint256"
        }
      ],
      "payable": false,
      "stateMutability": "view",
      "type": "function"
    }
  ],
  "bytecode": "0x6080604052600a805461ffff60a01b1916750168000000000000000000000000000000000000000017905560c8600b5562015180600c553480156200004357600080fd5b506040805180820190915260118082527f636f6e7374727563746f722076616c756500000000000000000000000000000060209092019182526200008a91600091620000a3565b50600a80546001600160a01b0319163317905562000148565b828054600181600116156101000203166002900490600052602060002090601f016020900481019282601f10620000e657805160ff191683800117855562000116565b8280016001018555821562000116579182015b8281111562000116578251825591602001919060010190620000f9565b506200012492915062000128565b5090565b6200014591905b808211156200012457600081556001016200012f565b90565b61251880620001586000396000f3fe6080604052600436106101e35760003560e01c80637710442e11610102578063c8707ef811610095578063ec3e5bf411610064578063ec3e5bf414610925578063eda8d88714610958578063f4b901e814610982578063f5c0b4fc146109d3576101e3565b8063c8707ef8146107cd578063cdc32901146107f7578063d007c644146108c3578063e466532d146108e9576101e3565b8063920ab09f116100d1578063920ab09f146106a05780639c9651bb146106ca578063ab63d7f214610788578063ae44bfc51461079d576101e3565b80637710442e1461054b5780637d9cdf9a1461057e578063855d63cc1461064f578063893d20e81461068b576101e3565b80634ae1d90f1161017a5780636f2a9599116101495780636f2a95991461041a5780636f9fb98a1461044c57806371bfbd4e1461046157806375c85c2414610487576101e3565b80634ae1d90f1461037b5780634c756b5e146103b157806360b25893146103c65780636f0de9a0146103f0576101e3565b80632e97766d116101b65780632e97766d146102e55780633903a3221461030c5780633d9f51171461033c5780634a57a64c14610351576101e3565b806304ef5b21146101e85780631313a1611461022e578063276d2a721461025a57806329a9c258146102bf575b600080fd5b3480156101f457600080fd5b506102126004803603602081101561020b57600080fd5b50356109fd565b604080516001600160a01b039092168252519081900360200190f35b34801561023a57600080fd5b506102586004803603602081101561025157600080fd5b5035610a24565b005b34801561026657600080fd5b5061026f610adb565b60408051602080825283518183015283519192839290830191858101910280838360005b838110156102ab578181015183820152602001610293565b505050509050019250505060405180910390f35b610258600480360360208110156102d557600080fd5b50356001600160a01b0316610b3e565b3480156102f157600080fd5b506102fa610dfe565b60408051918252519081900360200190f35b34801561031857600080fd5b506102fa6004803603604081101561032f57600080fd5b5080359060200135610e02565b34801561034857600080fd5b506102fa610e25565b34801561035d57600080fd5b506102fa6004803603602081101561037457600080fd5b5035610eb0565b34801561038757600080fd5b506102fa6004803603606081101561039e57600080fd5b5080359060208101359060400135610eca565b3480156103bd57600080fd5b506102fa610f10565b3480156103d257600080fd5b50610258600480360360208110156103e957600080fd5b5035610f16565b3480156103fc57600080fd5b506102fa6004803603602081101561041357600080fd5b5035610fc9565b6102586004803603606081101561043057600080fd5b506001600160a01b038135169060208101359060400135610fe8565b34801561045857600080fd5b506102fa61149b565b6102586004803603602081101561047757600080fd5b50356001600160a01b03166114a0565b34801561049357600080fd5b50610537600480360360208110156104aa57600080fd5b8101906020810181356401000000008111156104c557600080fd5b8201836020820111156104d757600080fd5b803590602001918460208302840111640100000000831117156104f957600080fd5b91908080602002602001604051908101604052809392919081815260200183836020028082843760009201919091525092955061166e945050505050565b604080519115158252519081900360200190f35b34801561055757600080fd5b506102fa6004803603602081101561056e57600080fd5b50356001600160a01b03166116ef565b34801561058a57600080fd5b506105b1600480360360208110156105a157600080fd5b50356001600160a01b03166116fc565b604051808a6001600160a01b03166001600160a01b0316815260200189815260200188815260200187815260200186815260200185815260200184815260200183815260200180602001828103825283818151815260200191508051906020019060200280838360005b8381101561063357818101518382015260200161061b565b505050509050019a505050505050505050505060405180910390f35b34801561065b57600080fd5b506102fa6004803603608081101561067257600080fd5b5080359060208101359060408101359060600135611881565b34801561069757600080fd5b506102126118e1565b3480156106ac57600080fd5b50610212600480360360208110156106c357600080fd5b50356118f0565b610258600480360360a08110156106e057600080fd5b81359160208101359160408201359160ff6060820135169181019060a08101608082013564010000000081111561071657600080fd5b82018360208201111561072857600080fd5b8035906020019184602083028401116401000000008311171561074a57600080fd5b9190808060200260200160405190810160405280939291908181526020018383602002808284376000920191909152509295506118fd945050505050565b34801561079457600080fd5b50610212611b6d565b3480156107a957600080fd5b506102fa600480360360408110156107c057600080fd5b5080359060200135611be2565b3480156107d957600080fd5b50610212600480360360208110156107f057600080fd5b5035611c12565b34801561080357600080fd5b506102586004803603606081101561081a57600080fd5b6001600160a01b03823581169260208101359091169181019060608101604082013564010000000081111561084e57600080fd5b82018360208201111561086057600080fd5b8035906020019184600183028401116401000000008311171561088257600080fd5b91908080601f016020809104026020016040519081016040528093929190818152602001838380828437600092019190915250929550611c1f945050505050565b610258600480360360208110156108d957600080fd5b50356001600160a01b0316611d62565b3480156108f557600080fd5b506102fa6004803603608081101561090c57600080fd5b5080359060208101359060408101359060600135611f02565b34801561093157600080fd5b506105376004803603602081101561094857600080fd5b50356001600160a01b0316611f25565b34801561096457600080fd5b506102fa6004803603602081101561097b57600080fd5b503561208f565b34801561098e57600080fd5b506109bd600480360360408110156109a557600080fd5b506001600160a01b0381358116916020013516612097565b6040805160ff9092168252519081900360200190f35b3480156109df57600080fd5b506102fa600480360360208110156109f657600080fd5b503561210b565b60078181548110610a0a57fe5b6000918252602090912001546001600160a01b0316905081565b600a546001600160a01b03163314610a6d5760405162461bcd60e51b815260040180806020018281038252602e81526020018061235d602e913960400191505060405180910390fd5b600554811115610abd576040805162461bcd60e51b815260206004820152601660248201527524b73b30b634b2103830b4b934b7339034b73232bc1760511b604482015290519081900360640190fd5b6000908152600960205260409020600301805460ff19166001179055565b60606004805480602002602001604051908101604052809291908181526020018280548015610b3357602002820191906000526020600020905b81546001600160a01b03168152600190910190602001808311610b15575b505050505090505b90565b6001600160a01b03818116600090815260016020526040902054163314610b965760405162461bcd60e51b81526004018080602001828103825260238152602001806123fe6023913960400191505060405180910390fd5b60026001600160a01b03821660009081526001602052604090206009015460ff166003811115610bc257fe5b1415610c08576040805162461bcd60e51b815260206004820152601060248201526f204c6f616e206e6f742061637469766560801b604482015290519081900360640190fd5b6001600160a01b03811660009081526001602052604081206009015460ff166003811115610c3257fe5b148015610c5957506001600160a01b03811660009081526001602052604090206004015415155b15610cd6576001600160a01b03811660009081526001602052604080822060098101805460ff1916600217905560040154905133926108fc831502929190818181858888f19350505050158015610cb4573d6000803e3d6000fd5b506001600160a01b038116600090815260016020526040812060040155610dfb565b60016001600160a01b03821660009081526001602052604090206009015460ff166003811115610d0257fe5b1415610d33576001600160a01b0381166000908152600160205260409020600901805460ff19166003179055610dfb565b60036001600160a01b03821660009081526001602052604090206009015460ff166003811115610d5f57fe5b148015610d8257506001600160a01b038116600090815260086020526040902054155b15610dfb576001600160a01b03811660009081526001602052604080822060098101805460ff1916600217905560040154905133926108fc831502929190818181858888f19350505050158015610ddd573d6000803e3d6000fd5b506001600160a01b0381166000908152600160205260408120600401555b50565b4290565b60006064838361271081610e1257fe5b040281610e1b57fe5b0490505b92915050565b600554600090610e70576040805162461bcd60e51b81526020600482015260116024820152704e6f2050616972696e672065786973747360781b604482015290519081900360640190fd5b6000805b600554811015610eaa5760008181526009602052604090206003015460ff1660011415610ea2576001909101905b600101610e74565b50905090565b6000600c5480610ebc57fe5b60008308820390505b919050565b6000808211610edb57506000610f09565b6000610ee684612129565b600a549091508390600160a01b900461ffff168281610f0157fe5b048602029150505b9392505050565b60055490565b600a546001600160a01b03163314610f5f5760405162461bcd60e51b815260040180806020018281038252603081526020018061248e6030913960400191505060405180910390fd5b6005548110610fae576040805162461bcd60e51b815260206004820152601660248201527524b73b30b634b2103830b4b934b7339034b73232bc1760511b604482015290519081900360640190fd5b6000908152600960205260409020600301805460ff19169055565b600080600c5480610fd657fe5b60008408600c54930390920192915050565b6001600160a01b03831660009081526001602052604081206009015460ff16600381111561101257fe5b1480611047575060016001600160a01b03841660009081526001602052604090206009015460ff16600381111561104557fe5b145b6110825760405162461bcd60e51b815260040180806020018281038252602381526020018061246b6023913960400191505060405180910390fd5b6001600160a01b03831660009081526001602052604090206004015482118015906110c857506001600160a01b0383166000908152600160205260409020600301548211155b6111035760405162461bcd60e51b815260040180806020018281038252604081526020018061238b6040913960400191505060405180910390fd5b6001600160a01b0383166000908152600160208190526040909120015461112b908390610e02565b3410156111695760405162461bcd60e51b815260040180806020018281038252604a815260200180612421604a913960600191505060405180910390fd5b6111738382612174565b15156001146111bf576040805162461bcd60e51b815260206004820152601360248201527250616972696e67206d7573742065786973747360681b604482015290519081900360640190fd5b6001600160a01b03831660009081526001602052604081206009015460ff1660038111156111e957fe5b1415611219576001600160a01b0383166000908152600160208190526040909120600901805460ff191690911790555b6001600160a01b0383166000908152600160205260408082206004018054859003905551339184156108fc02918591818181858888f19350505050158015611265573d6000803e3d6000fd5b50426000611271611b6d565b9050604051806101600160405280336001600160a01b0316815260200160018152602001866001600160a01b03168152602001858152602001848152602001600060028111156112bd57fe5b8152602001838152602001637fffffff815260200183815260200161132a84611325600160008b6001600160a01b03166001600160a01b0316815260200190815260200160002060050160009054906101000a900460ff16600381111561132057fe5b612129565b611be2565b815260200161136186600160008a6001600160a01b03166001600160a01b0316815260200190815260200160002060010154610e02565b90526001600160a01b03808316600090815260026020818152604092839020855181549086166001600160a01b03199182161782559186015160018083019190915593860151818401805491909616921691909117909355606084015160038401556080840151600484015560a08401516005840180549193909260ff199092169184908111156113ee57fe5b021790555060c082015160068083019190915560e08301516007830155610100830151600880840191909155610120840151600984015561014090930151600a90920191909155805460018181019092557ff652222313e28459528d920b65115c16c04f3efc82aaedc97be59f3f377c0d3f0180546001600160a01b039094166001600160a01b031990941684179055600092835260209190915260409091208054909101905550505050565b303190565b6001600160a01b0381811660009081526002602052604090205416331461150e576040805162461bcd60e51b815260206004820152601960248201527f204d75737420626520626f72726f777320626f72726f77657200000000000000604482015290519081900360640190fd5b6001600160a01b0381166000908152600260205260409020600a015461157b576040805162461bcd60e51b815260206004820152601a60248201527f20436f6c6c61746572616c20416d6f756e74206e6f206d6f7265000000000000604482015290519081900360640190fd5b6001600160a01b038082166000908152600260208181526040808420909201549093168252600890925220546115ea576040805162461bcd60e51b815260206004820152600f60248201526e1027379030b1ba34bb32903637b0b760891b604482015290519081900360640190fd5b6001600160a01b038116600090815260026020526040808220600a01549051339282156108fc02929190818181858888f19350505050158015611631573d6000803e3d6000fd5b506001600160a01b039081166000908152600260208181526040808420600a81018590559092015490931682526008909252208054600019019055565b6005546000908190158015906116845750825115155b15610e1f5760005b83518110156116e857600960008583815181106116a557fe5b60209081029190910181015182528101919091526040016000206003015460ff16600114156116d757600191506116e0565b600091506116e8565b60010161168c565b5092915050565b6001600160a01b03163190565b60008060008060008060008060606117126121e8565b6001600160a01b03808c16600090815260016020818152604092839020835161014081018552815490951685529182015490840152600281015491830191909152600380820154606084015260048201546080840152600582015460a084019160ff9091169081111561178157fe5b600381111561178c57fe5b81526020016006820154815260200160078201548152602001600882018054806020026020016040519081016040528092919081815260200182805480156117f357602002820191906000526020600020905b8154815260200190600101908083116117df575b5050509183525050600982015460209091019060ff16600381111561181457fe5b600381111561181f57fe5b815250509050806000015181602001518260400151836060015184608001518560a00151600381111561184e57fe5b8660c001518760e00151886101000151809050995099509950995099509950995099509950509193959799909294969850565b60008061189561189086612129565b61208f565b90504281840111156118d357600b54600a5442859003830191869190890190600160a01b900461ffff1683816118c757fe5b040202925050506118d9565b60009150505b949350505050565b600a546001600160a01b031690565b60068181548110610a0a57fe5b82341161193b5760405162461bcd60e51b81526004018080602001828103825260338152602001806123cb6033913960400191505060405180910390fd5b6064851061197a5760405162461bcd60e51b81526004018080602001828103825260268152602001806124be6026913960400191505060405180910390fd5b6119838161166e565b15156001146119cb576040805162461bcd60e51b815260206004820152600f60248201526e496e76616c69642070616972696e6760881b604482015290519081900360640190fd5b60006119d5611b6d565b9050604051806101400160405280336001600160a01b03168152602001878152602001868152602001858152602001858152602001846003811115611a1657fe5b8152637fffffff602082015242604082015260608101849052608001600090526001600160a01b03828116600090815260016020818152604092839020855181546001600160a01b03191695169490941784558401518382015590830151600283015560608301516003808401919091556080840151600484015560a08401516005840180549193909260ff19909216918490811115611ab257fe5b021790555060c0820151600682015560e082015160078201556101008201518051611ae7916008840191602090910190612259565b5061012082015160098201805460ff19166001836003811115611b0657fe5b02179055505060048054600181019091557f8a35acfbc15ff81a39ae7d344fd709f28e8600b4aa8c65c6b64bfe7fe36bd19b0180546001600160a01b039093166001600160a01b031990931683179055506000908152600860205260408120555050505050565b604080513360601b6020808301919091524260348084019190915283518084039091018152605490920190925280519101206000908160135b6001810115611bdb57600181601460ff16030360020260100a838260148110611bcb57fe5b1a02919091019060001901611ba6565b5091505090565b6000805b611bef8361208f565b611bf885610fc9565b019050611c0442610eb0565b811115611be6579392505050565b60048181548110610a0a57fe5b600a546001600160a01b03163314611c685760405162461bcd60e51b815260040180806020018281038252603181526020018061232c6031913960400191505060405180910390fd5b600554801580611c825750611c7d8484612097565b60ff16155b15611d5c57604080516080810182526001600160a01b038087168252858116602080840191825283850187815260016060860181905260008881526009845296909620855181549086166001600160a01b03199182161782559351968101805497909516969093169590951790925592518051929392611d0892600285019201906122a4565b50606091909101516003909101805460ff191660ff909216919091179055600580546001810182556000919091527f036b6384b5eca791c62761152d0c79bb0604c104a5fb6f4eb0703f3154bb3db0018190555b50505050565b6001600160a01b038116600090815260026020819052604082206005015460ff1690811115611d8d57fe5b14611dd0576040805162461bcd60e51b815260206004820152600e60248201526d496e76616c696420626f72726f7760901b604482015290519081900360640190fd5b6001600160a01b03818116600090815260026020818152604080842083015490941683526001905291902090810154600590910154611e40919060ff166003811115611e1857fe5b6001600160a01b03841660009081526002602052604090206003810154600890910154611f02565b341015611e8b576040805162461bcd60e51b8152602060048201526014602482015273125b9cdd58da59999a58d95b9d08185b5bdd5b9d60621b604482015290519081900360640190fd5b6001600160a01b0380821660009081526002602081815260408084206009810154426008830181905591909401549095168452600190915290912060050154611ede90829060ff16600381111561132557fe5b6001600160a01b039093166000908152600260205260409020600901929092555050565b6000611f1085858585611881565b611f1b868686610eca565b0195945050505050565b6000611f2f6121e8565b6001600160a01b03808416600090815260016020818152604092839020835161014081018552815490951685529182015490840152600281015491830191909152600380820154606084015260048201546080840152600582015460a084019160ff90911690811115611f9e57fe5b6003811115611fa957fe5b815260200160068201548152602001600782015481526020016008820180548060200260200160405190810160405280929190818152602001828054801561201057602002820191906000526020600020905b815481526020019060010190808311611ffc575b5050509183525050600982015460209091019060ff16600381111561203157fe5b600381111561203c57fe5b90525090506001816101200151600381111561205457fe5b148061207757506001600160a01b03831660009081526008602052604090205415155b15612086576001915050610ec5565b50600092915050565b620151800290565b6000805b600554811015612101576000818152600960205260409020546001600160a01b0385811691161480156120ea57506000818152600960205260409020600101546001600160a01b038481169116145b156120f9576001915050610e1f565b60010161209b565b5060009392505050565b6005818154811061211857fe5b600091825260209091200154905081565b60008161213857506007610ec5565b81600114156121495750601e610ec5565b816002141561215a5750605a610ec5565b816003141561216b575060b4610ec5565b50610168610ec5565b6000805b6001600160a01b038416600090815260016020526040902060080154811015612101576001600160a01b03841660009081526001602052604090206008018054849190839081106121c557fe5b906000526020600020015414156121e0576001915050610e1f565b600101612178565b60405180610140016040528060006001600160a01b03168152602001600081526020016000815260200160008152602001600081526020016000600381111561222d57fe5b81526020016000815260200160008152602001606081526020016000600381111561225457fe5b905290565b828054828255906000526020600020908101928215612294579160200282015b82811115612294578251825591602001919060010190612279565b506122a0929150612311565b5090565b828054600181600116156101000203166002900490600052602060002090601f016020900481019282601f106122e557805160ff1916838001178555612294565b828001600101855582156122945791820182811115612294578251825591602001919060010190612279565b610b3b91905b808211156122a0576000815560010161231756fe4f6e6c7920636f6e7472616374206f776e65722063616e20616464206e657720737570706f727465642070616972696e674f6e6c7920636f6e7472616374206f776e65722063616e206163746976652070616972696e6720737570706f7274204c656e6420616d6f756e742063616e6e6f74206265206d6f7265207468616e20697373756520616d6f756e7420616e642063757272656e7420616d6f756e74204d6573736167652076616c75652073686f756c64206265206d6f7265207468616e2074686520697373756520616d6f756e744f6e6c79206c656e64206f776e65722063616e20636c6f736520746865206c6f616e2e4d6573736167652076616c7565206861766520746f206265206d6f7265207468616e20746865206c6f616e20746f2076616c756520616d6f756e74206f66206c656e6420616d6f756e74204c656e64206163636f756e7420697320696e6163746976652f73757370656e6465644f6e6c7920636f6e7472616374206f776e65722063616e2064656163746976652070616972696e6720737570706f7274204c54562073686f756c64206265206c657373207468616e20616e6420657175616c20313030a265627a7a7231582005eea281396370a0ae4460bf0be8849f6be392d6d1070187dfc190b29682124664736f6c634300050c0032",
  "source": "pragma solidity ^0.5.12;\r\n\r\ncontract EthLoan {\r\n    string value;\r\n\r\n    enum PaymentTerm{WEEKLY,MONTHLY,QUARTERLY,YEARLY}\r\n    enum TransactionType{NEW,REPAY,CLOSE,UPDATE,DEFAULT}\r\n    enum BorrowStatus{ACTIVE,INACTIVE,LATE}\r\n    enum LendStatus{ACTIVE,RUNNING,INACTIVE,SUSPEND}\r\n\r\n    struct Pairing {\r\n        address baseCurry;\r\n        address counterCurry;\r\n        string desc;\r\n        uint8 active;\r\n    }\r\n\r\n    struct Lend{\r\n        address lendAddress;\r\n        uint ltv; //1-100\r\n        uint interest; // 100 basis point = 1 percent\r\n        uint issueAmt; // wei - 1 eth = 1,000,000,000,000,000,000 wei\r\n        uint currentAmt; // wei\r\n        PaymentTerm paymentTerm;\r\n        uint endDate;\r\n        uint startDate;\r\n        uint[] pairing;\r\n        LendStatus lendStatus;\r\n    }\r\n\r\n    struct Borrow{\r\n        address borrowAddress;\r\n        uint exchRate;\r\n        address lendId;\r\n        uint borrowAmt;\r\n        //Pairing pairing;\r\n        uint pairing;\r\n        BorrowStatus borrowStatus; //A - Active, I - Inactive, L - Late\r\n        uint borrowStartDate;\r\n        uint borrowEndDate;\r\n        uint lastPaymentDate;\r\n        uint nextPaymentDateBy;\r\n        uint collatAmt;\r\n    }\r\n\r\n    struct Transaction{\r\n        uint lendId;\r\n        uint borrowId;\r\n        uint exchRate;\r\n        TransactionType transactionType;\r\n        uint transactionAmt;\r\n        uint pairing;\r\n        //Pairing pairing;\r\n    }\r\n\r\n    mapping (address => Lend) lends;\r\n    //mapping (address => Pairing) pairs;\r\n    mapping (address => Borrow) borrows;\r\n    mapping (address => Transaction) transactions;\r\n    address[] public lendList;\r\n    uint[] public pairing;//address[] public pairing;\r\n    address[] public borrowList;\r\n    address[] public transactionList;\r\n    mapping (address => uint) activeLoan;\r\n    mapping (uint => Pairing) pair;\r\n\r\n    address owner;\r\n    uint16 dayCount = 360;\r\n    uint lateCharge = 200; // 200 basis point = 2 percent\r\n    uint epochDay = 86400; // 60 x 60 x 24 = Epoch day\r\n\r\n    constructor() public {\r\n        value = \"constructor value\";\r\n        owner = msg.sender;\r\n       // pairing.push(Pairing(0x0000000000000000000000000000000000000000,0x0000000000000000000000000000000000000000,'ETH/ETH',1));\r\n    }\r\n\r\n    function checkExistsPairing(address _baseCurry, address _counterCurry) public view returns (uint8){\r\n        for (uint i; i < pairing.length;i++){\r\n            if (pair[i].baseCurry==_baseCurry && pair[i].counterCurry==_counterCurry)\r\n                return 1;\r\n        }\r\n        return 0;\r\n    }\r\n\r\n    function addPairing(address _baseCurry, address _counterCurry, string memory _desc) public {\r\n        require(msg.sender == owner,'Only contract owner can add new supported pairing');\r\n        uint noPair = pairing.length;\r\n        if(noPair == 0 || checkExistsPairing(_baseCurry,_counterCurry) == 0){\r\n            pair[noPair] = Pairing(_baseCurry,_counterCurry,_desc,1);\r\n            pairing.push(noPair);\r\n        }\r\n    }\r\n\r\n    function getNoPairing() public view returns(uint) {\r\n        return pairing.length;\r\n    }\r\n\r\n    function deactivePairing(uint _index) public {\r\n        require(msg.sender == owner,'Only contract owner can deactive pairing support');\r\n        require(pairing.length > _index, 'Invalid pairing index.');\r\n        pair[_index].active = 0;\r\n    }\r\n\r\n    function getNoPairingActive() public view returns(uint) {\r\n        require(pairing.length > 0,'No Pairing exists');\r\n        uint counter = 0;\r\n        for(uint i = 0;i<pairing.length;i++) {\r\n            if(pair[i].active == 1)\r\n                counter++;\r\n        }\r\n        return counter;\r\n    }\r\n\r\n    function activePairing(uint _index) public {\r\n        require(msg.sender == owner,'Only contract owner can active pairing support');\r\n        require(pairing.length >= _index, 'Invalid pairing index.');\r\n        pair[_index].active = 1;\r\n    }\r\n\r\n    function getBlock() public view returns (uint) {\r\n        return now;\r\n    }\r\n\r\n    function getOwner() public view returns(address){\r\n        return owner;\r\n    }\r\n\r\n    function getContractBalance() public view returns(uint){\r\n        return address(this).balance;\r\n    }\r\n\r\n    function getUniqueId() public view returns (address) {\r\n        bytes20 b = bytes20(keccak256(abi.encodePacked(msg.sender, now)));\r\n        uint addr = 0;\r\n        for (uint index = b.length-1; index+1 > 0; index--) {\r\n            addr += uint(uint8(b[index])) * ( 16 ** ((b.length - index - 1) * 2));\r\n        }\r\n        //to-do check if address exists\r\n\r\n        return address(addr);\r\n    }\r\n\r\n    function checkPairing(uint[] memory _pairingList) public view returns(bool) {\r\n        bool check = false;\r\n        if(pairing.length != 0 && _pairingList.length != 0){\r\n            for(uint i = 0; i<_pairingList.length;i++) {\r\n                if(pair[_pairingList[i]].active == 1)\r\n                    check = true;\r\n                else {\r\n                    check = false;\r\n                    break;\r\n                }\r\n            }\r\n        }\r\n        return check;\r\n    }\r\n\r\n    function newLend(uint _ltv,uint _interest, uint _issueAmt, PaymentTerm _paymentTerm, uint[] memory _pairingList ) public payable {\r\n        require(msg.value > _issueAmt,' Message value should be more than the issue amount');\r\n        require(_ltv < 100, ' LTV should be less than and equal 100');\r\n        require(checkPairing(_pairingList) == true, 'Invalid pairing');\r\n        address tempAddr = getUniqueId();\r\n\r\n        lends[tempAddr] = Lend(msg.sender,_ltv,_interest,_issueAmt,_issueAmt,_paymentTerm,2147483647,now,_pairingList,LendStatus.ACTIVE);\r\n\r\n        lendList.push(tempAddr);\r\n        activeLoan[tempAddr] = 0;\r\n    }\r\n\r\n    function checkLend(address _address) public view returns (address, uint,uint,uint,uint,uint,uint,uint,uint[] memory) {\r\n        //string memory retJSON = '{ '+'';\r\n        Lend memory tempLend = lends[_address];\r\n        return (tempLend.lendAddress,tempLend.ltv,tempLend.interest,tempLend.issueAmt,tempLend.currentAmt,uint(tempLend.paymentTerm),tempLend.endDate,tempLend.startDate,tempLend.pairing);\r\n    }\r\n\r\n    function getAllLend() external view returns (address[] memory) {\r\n        return lendList;\r\n    }\r\n\r\n    function checkActiveBorrower(address _address) public view returns(bool) {\r\n        Lend memory tempLend = lends[_address];\r\n        if(tempLend.lendStatus == LendStatus.RUNNING || activeLoan[_address] > 0) {\r\n            return true;\r\n        }\r\n        return false;\r\n    }\r\n\r\n    function closeLend(address _lendId) public payable {\r\n        //Lend memory tempLend = lends[_lendId];\r\n        require(msg.sender == lends[_lendId].lendAddress,'Only lend owner can close the loan.');\r\n        require(lends[_lendId].lendStatus != LendStatus.INACTIVE, ' Loan not active');\r\n        //to-do only allow if there is no active borrower in loan account\r\n        if(lends[_lendId].lendStatus == LendStatus.ACTIVE && lends[_lendId].currentAmt > 0) {\r\n            lends[_lendId].lendStatus = LendStatus.INACTIVE;\r\n            msg.sender.transfer(lends[_lendId].currentAmt);\r\n            lends[_lendId].currentAmt = 0;\r\n        }\r\n        else if (lends[_lendId].lendStatus == LendStatus.RUNNING) {\r\n            lends[_lendId].lendStatus = LendStatus.SUSPEND;\r\n        }\r\n        else if (lends[_lendId].lendStatus == LendStatus.SUSPEND && activeLoan[_lendId] == 0){\r\n            lends[_lendId].lendStatus = LendStatus.INACTIVE;\r\n            msg.sender.transfer(lends[_lendId].currentAmt);\r\n            lends[_lendId].currentAmt = 0;\r\n        }\r\n    }\r\n\r\n    function checkpairingExist(address _lendId,uint _pairingId)  private view returns (bool) {\r\n        for(uint i = 0; i<lends[_lendId].pairing.length; i++) {\r\n            if(lends[_lendId].pairing[i] == _pairingId) {\r\n                return true;\r\n            }\r\n        }\r\n        return false;\r\n    }\r\n\r\n    //Date Related Section - Start\r\n    function calcNextDay(uint _epoch) public view returns (uint) {\r\n        uint x = addmod(_epoch,0,epochDay);\r\n        return (_epoch - x + epochDay);\r\n    }\r\n\r\n    function calcStartDay(uint _epoch) public view returns(uint) {\r\n        return (_epoch - addmod(_epoch,0,epochDay));\r\n    }\r\n\r\n    function calcNextCycle(uint _epoch,uint _period) public view returns(uint) {\r\n        uint nextCycle = 0;\r\n        do {\r\n           nextCycle = (calcNextDay(_epoch) + (convertDayToEpoch(_period)));\r\n        }while(nextCycle <= calcStartDay(now));\r\n        return nextCycle;\r\n    }\r\n\r\n    function getPaymentDay(uint _payTerm) private pure returns (uint) {\r\n        if (_payTerm == 0)\r\n            return 7;\r\n        else if (_payTerm == 1)\r\n            return 30;\r\n        else if (_payTerm == 2)\r\n            return 90;\r\n        else if (_payTerm == 3)\r\n            return 180;\r\n        else\r\n            return 360;\r\n    }\r\n\r\n    function convertDayToEpoch(uint _day) public pure returns(uint) {\r\n        return uint(_day*60*60*24);\r\n    }\r\n\r\n    //Date Related Section - End\r\n\r\n    function calcCollatAmt(uint _lendAmt,uint _ltv) public pure returns (uint) {\r\n        return (10000/_ltv * _lendAmt)/100;\r\n    }\r\n\r\n    function borrowLend(address _lendId, uint _lendAmt, uint _pairingId) public payable {\r\n        //require(msg.value > _lendAmt, 'Message value must be more than lend amount');\r\n        require(lends[_lendId].lendStatus == LendStatus.ACTIVE || lends[_lendId].lendStatus == LendStatus.RUNNING, ' Lend account is inactive/suspended');\r\n        require(_lendAmt <= lends[_lendId].currentAmt && _lendAmt <= lends[_lendId].issueAmt,' Lend amount cannot be more than issue amount and current amount');\r\n        require(msg.value >= calcCollatAmt(_lendAmt,lends[_lendId].ltv), 'Message value have to be more than the loan to value amount of lend amount');\r\n        require(checkpairingExist(_lendId,_pairingId) == true, 'Pairing must exists');\r\n        if(lends[_lendId].lendStatus == LendStatus.ACTIVE) {\r\n            lends[_lendId].lendStatus = LendStatus.RUNNING;\r\n        }\r\n\r\n        lends[_lendId].currentAmt -= _lendAmt;\r\n        msg.sender.transfer(_lendAmt);\r\n        uint current = now;\r\n        address tempAddr = getUniqueId();\r\n        borrows[tempAddr] = Borrow(msg.sender,1,_lendId,_lendAmt,_pairingId,BorrowStatus.ACTIVE,current,2147483647,current,calcNextCycle(current,getPaymentDay(uint(lends[_lendId].paymentTerm))),calcCollatAmt(_lendAmt,lends[_lendId].ltv));\r\n\r\n        borrowList.push(tempAddr);\r\n        activeLoan[tempAddr] += 1;\r\n    }\r\n\r\n    //Calculate interest - Start\r\n\r\n    function interestAmt(uint _interest,uint _payTerm,uint _borrowAmt) public view returns (uint) {\r\n        if(_borrowAmt <= 0)\r\n            return 0;\r\n        uint period = getPaymentDay(_payTerm);\r\n        return uint(uint(_interest) * (period/dayCount) * uint(_borrowAmt));\r\n    }\r\n\r\n    function lateInterestAmt(uint _interest,uint _payTerm,uint _borrowAmt,uint _lastPaymentDate) public view returns(uint) {\r\n        uint period = convertDayToEpoch(getPaymentDay(_payTerm));\r\n\r\n        if((_lastPaymentDate + period) > now ) {\r\n            uint accurIntrDay = now - _lastPaymentDate + period;\r\n            return uint((accurIntrDay/dayCount) * (_interest + lateCharge) * uint(_borrowAmt));\r\n        }\r\n        return 0;\r\n    }\r\n\r\n    function totalInterestAmt(uint _interest,uint _payTerm,uint _borrowAmt,uint _lastPaymentDate) public view returns (uint) {\r\n        return (interestAmt(_interest,_payTerm,_borrowAmt) + lateInterestAmt(_interest,_payTerm,_borrowAmt,_lastPaymentDate));\r\n    }\r\n\r\n    //Calculate interest - End\r\n\r\n    function payInterest(address _borrowId) public payable {\r\n        require(borrows[_borrowId].borrowStatus == BorrowStatus.ACTIVE, 'Invalid borrow');\r\n        require(msg.value >= totalInterestAmt(lends[borrows[_borrowId].lendId].interest,uint(lends[borrows[_borrowId].lendId].paymentTerm),borrows[_borrowId].borrowAmt,borrows[_borrowId].lastPaymentDate),'Insucifficent amount');\r\n        uint current = now;\r\n        uint nextPayDate = borrows[_borrowId].nextPaymentDateBy;\r\n        borrows[_borrowId].lastPaymentDate = current;\r\n        borrows[_borrowId].nextPaymentDateBy = calcNextCycle(nextPayDate,uint(lends[borrows[_borrowId].lendId].paymentTerm));\r\n    }\r\n\r\n    function closeBorrow(address _borrowId) public payable {\r\n        require(msg.sender == borrows[_borrowId].borrowAddress,' Must be borrows borrower');\r\n        require(borrows[_borrowId].collatAmt > 0,' Collateral Amount no more');\r\n        require(activeLoan[borrows[_borrowId].lendId] > 0,' No active loan');\r\n        msg.sender.transfer(borrows[_borrowId].collatAmt);\r\n        borrows[_borrowId].collatAmt = 0;\r\n        activeLoan[borrows[_borrowId].lendId] -= 1;\r\n    }\r\n\r\n    //Test\r\n\r\n    function getMsgSenderBalance(address _sender) public view returns (uint){\r\n        return _sender.balance;\r\n    }\r\n\r\n}",
  "sourcePath": "C:/Users/iy3uu/Documents/GitHub/loancontract-eth/contracts/eth_p2p_loan.sol",
  "compiler": {
    "name": "solc",
    "version": "0.5.12+commit.7709ece9.Emscripten.clang"
  },
  "schemaVersion": "3.0.19",
  "updatedAt": "2019-11-26T09:38:28.391Z",
  "devdoc": {
    "methods": {}
  },
  "userdoc": {
    "methods": {}
  }
}