{
  "contractName": "EthLoan",
  "abi": [
    {
      "constant": true,
      "inputs": [
        {
          "name": "",
          "type": "uint256"
        }
      ],
      "name": "transactionList",
      "outputs": [
        {
          "name": "",
          "type": "address"
        }
      ],
      "payable": false,
      "stateMutability": "view",
      "type": "function"
    },
    {
      "constant": true,
      "inputs": [
        {
          "name": "",
          "type": "uint256"
        }
      ],
      "name": "borrowList",
      "outputs": [
        {
          "name": "",
          "type": "address"
        }
      ],
      "payable": false,
      "stateMutability": "view",
      "type": "function"
    },
    {
      "constant": true,
      "inputs": [
        {
          "name": "",
          "type": "uint256"
        }
      ],
      "name": "lendList",
      "outputs": [
        {
          "name": "",
          "type": "address"
        }
      ],
      "payable": false,
      "stateMutability": "view",
      "type": "function"
    },
    {
      "constant": true,
      "inputs": [
        {
          "name": "",
          "type": "uint256"
        }
      ],
      "name": "pairing",
      "outputs": [
        {
          "name": "",
          "type": "uint256"
        }
      ],
      "payable": false,
      "stateMutability": "view",
      "type": "function"
    },
    {
      "inputs": [],
      "payable": false,
      "stateMutability": "nonpayable",
      "type": "constructor"
    },
    {
      "constant": true,
      "inputs": [
        {
          "name": "_baseCurry",
          "type": "address"
        },
        {
          "name": "_counterCurry",
          "type": "address"
        }
      ],
      "name": "checkExistsPairing",
      "outputs": [
        {
          "name": "",
          "type": "uint8"
        }
      ],
      "payable": false,
      "stateMutability": "view",
      "type": "function"
    },
    {
      "constant": false,
      "inputs": [
        {
          "name": "_baseCurry",
          "type": "address"
        },
        {
          "name": "_counterCurry",
          "type": "address"
        },
        {
          "name": "_desc",
          "type": "string"
        }
      ],
      "name": "addPairing",
      "outputs": [],
      "payable": false,
      "stateMutability": "nonpayable",
      "type": "function"
    },
    {
      "constant": true,
      "inputs": [],
      "name": "getNoPairing",
      "outputs": [
        {
          "name": "",
          "type": "uint256"
        }
      ],
      "payable": false,
      "stateMutability": "view",
      "type": "function"
    },
    {
      "constant": false,
      "inputs": [
        {
          "name": "_index",
          "type": "uint256"
        }
      ],
      "name": "deactivePairing",
      "outputs": [],
      "payable": false,
      "stateMutability": "nonpayable",
      "type": "function"
    },
    {
      "constant": true,
      "inputs": [],
      "name": "getNoPairingActive",
      "outputs": [
        {
          "name": "",
          "type": "uint256"
        }
      ],
      "payable": false,
      "stateMutability": "view",
      "type": "function"
    },
    {
      "constant": false,
      "inputs": [
        {
          "name": "_index",
          "type": "uint256"
        }
      ],
      "name": "activePairing",
      "outputs": [],
      "payable": false,
      "stateMutability": "nonpayable",
      "type": "function"
    },
    {
      "constant": true,
      "inputs": [],
      "name": "getBlock",
      "outputs": [
        {
          "name": "",
          "type": "uint256"
        }
      ],
      "payable": false,
      "stateMutability": "view",
      "type": "function"
    },
    {
      "constant": true,
      "inputs": [],
      "name": "getOwner",
      "outputs": [
        {
          "name": "",
          "type": "address"
        }
      ],
      "payable": false,
      "stateMutability": "view",
      "type": "function"
    },
    {
      "constant": true,
      "inputs": [],
      "name": "getUniqueId",
      "outputs": [
        {
          "name": "",
          "type": "address"
        }
      ],
      "payable": false,
      "stateMutability": "view",
      "type": "function"
    },
    {
      "constant": true,
      "inputs": [
        {
          "name": "_pairingList",
          "type": "uint256[]"
        }
      ],
      "name": "checkPairing",
      "outputs": [
        {
          "name": "",
          "type": "bool"
        }
      ],
      "payable": false,
      "stateMutability": "view",
      "type": "function"
    },
    {
      "constant": false,
      "inputs": [
        {
          "name": "_ltv",
          "type": "uint256"
        },
        {
          "name": "_interest",
          "type": "uint256"
        },
        {
          "name": "_issueAmt",
          "type": "uint256"
        },
        {
          "name": "_paymentTerm",
          "type": "uint8"
        },
        {
          "name": "_pairingList",
          "type": "uint256[]"
        }
      ],
      "name": "newLend",
      "outputs": [],
      "payable": true,
      "stateMutability": "payable",
      "type": "function"
    },
    {
      "constant": true,
      "inputs": [
        {
          "name": "_address",
          "type": "address"
        }
      ],
      "name": "checkLend",
      "outputs": [
        {
          "name": "",
          "type": "address"
        },
        {
          "name": "",
          "type": "uint256"
        },
        {
          "name": "",
          "type": "uint256"
        },
        {
          "name": "",
          "type": "uint256"
        },
        {
          "name": "",
          "type": "uint256"
        },
        {
          "name": "",
          "type": "uint256"
        },
        {
          "name": "",
          "type": "uint256"
        },
        {
          "name": "",
          "type": "uint256"
        },
        {
          "name": "",
          "type": "uint256[]"
        }
      ],
      "payable": false,
      "stateMutability": "view",
      "type": "function"
    },
    {
      "constant": true,
      "inputs": [],
      "name": "getAllLend",
      "outputs": [
        {
          "name": "",
          "type": "address[]"
        }
      ],
      "payable": false,
      "stateMutability": "view",
      "type": "function"
    },
    {
      "constant": true,
      "inputs": [
        {
          "name": "_address",
          "type": "address"
        }
      ],
      "name": "checkActiveBorrower",
      "outputs": [
        {
          "name": "",
          "type": "bool"
        }
      ],
      "payable": false,
      "stateMutability": "view",
      "type": "function"
    },
    {
      "constant": false,
      "inputs": [
        {
          "name": "_lendId",
          "type": "address"
        }
      ],
      "name": "closeLend",
      "outputs": [],
      "payable": true,
      "stateMutability": "payable",
      "type": "function"
    },
    {
      "constant": true,
      "inputs": [
        {
          "name": "_epoch",
          "type": "uint256"
        }
      ],
      "name": "calcNextDay",
      "outputs": [
        {
          "name": "",
          "type": "uint256"
        }
      ],
      "payable": false,
      "stateMutability": "view",
      "type": "function"
    },
    {
      "constant": true,
      "inputs": [
        {
          "name": "_epoch",
          "type": "uint256"
        }
      ],
      "name": "calcStartDay",
      "outputs": [
        {
          "name": "",
          "type": "uint256"
        }
      ],
      "payable": false,
      "stateMutability": "view",
      "type": "function"
    },
    {
      "constant": true,
      "inputs": [
        {
          "name": "_epoch",
          "type": "uint256"
        },
        {
          "name": "_period",
          "type": "uint256"
        }
      ],
      "name": "calcNextCycle",
      "outputs": [
        {
          "name": "",
          "type": "uint256"
        }
      ],
      "payable": false,
      "stateMutability": "view",
      "type": "function"
    },
    {
      "constant": true,
      "inputs": [
        {
          "name": "_day",
          "type": "uint256"
        }
      ],
      "name": "convertDayToEpoch",
      "outputs": [
        {
          "name": "",
          "type": "uint256"
        }
      ],
      "payable": false,
      "stateMutability": "pure",
      "type": "function"
    },
    {
      "constant": true,
      "inputs": [
        {
          "name": "_lendAmt",
          "type": "uint256"
        },
        {
          "name": "_ltv",
          "type": "uint256"
        }
      ],
      "name": "calcCollatAmt",
      "outputs": [
        {
          "name": "",
          "type": "uint256"
        }
      ],
      "payable": false,
      "stateMutability": "pure",
      "type": "function"
    },
    {
      "constant": false,
      "inputs": [
        {
          "name": "_lendId",
          "type": "address"
        },
        {
          "name": "_lendAmt",
          "type": "uint256"
        },
        {
          "name": "_pairingId",
          "type": "uint256"
        }
      ],
      "name": "borrowLend",
      "outputs": [],
      "payable": true,
      "stateMutability": "payable",
      "type": "function"
    },
    {
      "constant": true,
      "inputs": [
        {
          "name": "_interest",
          "type": "uint256"
        },
        {
          "name": "_payTerm",
          "type": "uint256"
        },
        {
          "name": "_borrowAmt",
          "type": "uint256"
        }
      ],
      "name": "interestAmt",
      "outputs": [
        {
          "name": "",
          "type": "uint256"
        }
      ],
      "payable": false,
      "stateMutability": "view",
      "type": "function"
    },
    {
      "constant": true,
      "inputs": [
        {
          "name": "_interest",
          "type": "uint256"
        },
        {
          "name": "_payTerm",
          "type": "uint256"
        },
        {
          "name": "_borrowAmt",
          "type": "uint256"
        },
        {
          "name": "_lastPaymentDate",
          "type": "uint256"
        }
      ],
      "name": "lateInterestAmt",
      "outputs": [
        {
          "name": "",
          "type": "uint256"
        }
      ],
      "payable": false,
      "stateMutability": "view",
      "type": "function"
    },
    {
      "constant": true,
      "inputs": [
        {
          "name": "_interest",
          "type": "uint256"
        },
        {
          "name": "_payTerm",
          "type": "uint256"
        },
        {
          "name": "_borrowAmt",
          "type": "uint256"
        },
        {
          "name": "_lastPaymentDate",
          "type": "uint256"
        }
      ],
      "name": "totalInterestAmt",
      "outputs": [
        {
          "name": "",
          "type": "uint256"
        }
      ],
      "payable": false,
      "stateMutability": "view",
      "type": "function"
    },
    {
      "constant": false,
      "inputs": [
        {
          "name": "_borrowId",
          "type": "address"
        }
      ],
      "name": "payInterest",
      "outputs": [],
      "payable": true,
      "stateMutability": "payable",
      "type": "function"
    },
    {
      "constant": false,
      "inputs": [
        {
          "name": "_borrowId",
          "type": "address"
        }
      ],
      "name": "closeBorrow",
      "outputs": [],
      "payable": true,
      "stateMutability": "payable",
      "type": "function"
    }
  ],
  "bytecode": "0x6080604052610168600a60146101000a81548161ffff021916908361ffff16021790555060c8600b5562015180600c553480156200003c57600080fd5b506040518060400160405280601181526020017f636f6e7374727563746f722076616c7565000000000000000000000000000000815250600090805190602001906200008a929190620000d2565b5033600a60006101000a81548173ffffffffffffffffffffffffffffffffffffffff021916908373ffffffffffffffffffffffffffffffffffffffff16021790555062000181565b828054600181600116156101000203166002900490600052602060002090601f016020900481019282601f106200011557805160ff191683800117855562000146565b8280016001018555821562000146579182015b828111156200014557825182559160200191906001019062000128565b5b50905062000155919062000159565b5090565b6200017e91905b808211156200017a57600081600090555060010162000160565b5090565b90565b613dac80620001916000396000f3fe6080604052600436106101cd5760003560e01c80637d9cdf9a116100f7578063c8707ef811610095578063ec3e5bf411610064578063ec3e5bf414610cd7578063eda8d88714610d40578063f4b901e814610d8f578063f5c0b4fc14610e1a576101cd565b8063c8707ef814610aa3578063cdc3290114610b1e578063d007c64414610c26578063e466532d14610c6a576101cd565b8063920ab09f116100d1578063920ab09f146108955780639c9651bb14610910578063ab63d7f2146109f3578063ae44bfc514610a4a576101cd565b80637d9cdf9a146106c7578063855d63cc146107d1578063893d20e81461083e576101cd565b80634a57a64c1161016f5780636f0de9a01161013e5780636f0de9a0146104ff5780636f2a95991461054e57806371bfbd4e146105a657806375c85c24146105ea576101cd565b80634a57a64c146103e75780634ae1d90f146104365780634c756b5e1461049957806360b25893146104c4576101cd565b806329a9c258116101ab57806329a9c258146102f45780632e97766d146103385780633903a322146103635780633d9f5117146103bc576101cd565b806304ef5b21146101d25780631313a1611461024d578063276d2a7214610288575b600080fd5b3480156101de57600080fd5b5061020b600480360360208110156101f557600080fd5b8101908080359060200190929190505050610e69565b604051808273ffffffffffffffffffffffffffffffffffffffff1673ffffffffffffffffffffffffffffffffffffffff16815260200191505060405180910390f35b34801561025957600080fd5b506102866004803603602081101561027057600080fd5b8101908080359060200190929190505050610ea5565b005b34801561029457600080fd5b5061029d610ff9565b6040518080602001828103825283818151815260200191508051906020019060200280838360005b838110156102e05780820151818401526020810190506102c5565b505050509050019250505060405180910390f35b6103366004803603602081101561030a57600080fd5b81019080803573ffffffffffffffffffffffffffffffffffffffff169060200190929190505050611087565b005b34801561034457600080fd5b5061034d611709565b6040518082815260200191505060405180910390f35b34801561036f57600080fd5b506103a66004803603604081101561038657600080fd5b810190808035906020019092919080359060200190929190505050611711565b6040518082815260200191505060405180910390f35b3480156103c857600080fd5b506103d1611733565b6040518082815260200191505060405180910390f35b3480156103f357600080fd5b506104206004803603602081101561040a57600080fd5b8101908080359060200190929190505050611814565b6040518082815260200191505060405180910390f35b34801561044257600080fd5b506104836004803603606081101561045957600080fd5b8101908080359060200190929190803590602001909291908035906020019092919050505061182d565b6040518082815260200191505060405180910390f35b3480156104a557600080fd5b506104ae611879565b6040518082815260200191505060405180910390f35b3480156104d057600080fd5b506104fd600480360360208110156104e757600080fd5b8101908080359060200190929190505050611886565b005b34801561050b57600080fd5b506105386004803603602081101561052257600080fd5b81019080803590602001909291905050506119d9565b6040518082815260200191505060405180910390f35b6105a46004803603606081101561056457600080fd5b81019080803573ffffffffffffffffffffffffffffffffffffffff16906020019092919080359060200190929190803590602001909291905050506119fb565b005b6105e8600480360360208110156105bc57600080fd5b81019080803573ffffffffffffffffffffffffffffffffffffffff1690602001909291905050506121f9565b005b3480156105f657600080fd5b506106ad6004803603602081101561060d57600080fd5b810190808035906020019064010000000081111561062a57600080fd5b82018360208201111561063c57600080fd5b8035906020019184602083028401116401000000008311171561065e57600080fd5b919080806020026020016040519081016040528093929190818152602001838360200280828437600081840152601f19601f82011690508083019250505050505050919291929050505061264f565b604051808215151515815260200191505060405180910390f35b3480156106d357600080fd5b50610716600480360360208110156106ea57600080fd5b81019080803573ffffffffffffffffffffffffffffffffffffffff1690602001909291905050506126ee565b604051808a73ffffffffffffffffffffffffffffffffffffffff1673ffffffffffffffffffffffffffffffffffffffff16815260200189815260200188815260200187815260200186815260200185815260200184815260200183815260200180602001828103825283818151815260200191508051906020019060200280838360005b838110156107b557808201518184015260208101905061079a565b505050509050019a505050505050505050505060405180910390f35b3480156107dd57600080fd5b50610828600480360360808110156107f457600080fd5b81019080803590602001909291908035906020019092919080359060200190929190803590602001909291905050506128f1565b6040518082815260200191505060405180910390f35b34801561084a57600080fd5b50610853612957565b604051808273ffffffffffffffffffffffffffffffffffffffff1673ffffffffffffffffffffffffffffffffffffffff16815260200191505060405180910390f35b3480156108a157600080fd5b506108ce600480360360208110156108b857600080fd5b8101908080359060200190929190505050612981565b604051808273ffffffffffffffffffffffffffffffffffffffff1673ffffffffffffffffffffffffffffffffffffffff16815260200191505060405180910390f35b6109f1600480360360a081101561092657600080fd5b81019080803590602001909291908035906020019092919080359060200190929190803560ff1690602001909291908035906020019064010000000081111561096e57600080fd5b82018360208201111561098057600080fd5b803590602001918460208302840111640100000000831117156109a257600080fd5b919080806020026020016040519081016040528093929190818152602001838360200280828437600081840152601f19601f8201169050808301925050505050505091929192905050506129bd565b005b3480156109ff57600080fd5b50610a08612d5c565b604051808273ffffffffffffffffffffffffffffffffffffffff1673ffffffffffffffffffffffffffffffffffffffff16815260200191505060405180910390f35b348015610a5657600080fd5b50610a8d60048036036040811015610a6d57600080fd5b810190808035906020019092919080359060200190929190505050612e1f565b6040518082815260200191505060405180910390f35b348015610aaf57600080fd5b50610adc60048036036020811015610ac657600080fd5b8101908080359060200190929190505050612e56565b604051808273ffffffffffffffffffffffffffffffffffffffff1673ffffffffffffffffffffffffffffffffffffffff16815260200191505060405180910390f35b348015610b2a57600080fd5b50610c2460048036036060811015610b4157600080fd5b81019080803573ffffffffffffffffffffffffffffffffffffffff169060200190929190803573ffffffffffffffffffffffffffffffffffffffff16906020019092919080359060200190640100000000811115610b9e57600080fd5b820183602082011115610bb057600080fd5b80359060200191846001830284011164010000000083111715610bd257600080fd5b91908080601f016020809104026020016040519081016040528093929190818152602001838380828437600081840152601f19601f820116905080830192505050505050509192919290505050612e92565b005b610c6860048036036020811015610c3c57600080fd5b81019080803573ffffffffffffffffffffffffffffffffffffffff1690602001909291905050506130c8565b005b348015610c7657600080fd5b50610cc160048036036080811015610c8d57600080fd5b81019080803590602001909291908035906020019092919080359060200190929190803590602001909291905050506135ac565b6040518082815260200191505060405180910390f35b348015610ce357600080fd5b50610d2660048036036020811015610cfa57600080fd5b81019080803573ffffffffffffffffffffffffffffffffffffffff1690602001909291905050506135d0565b604051808215151515815260200191505060405180910390f35b348015610d4c57600080fd5b50610d7960048036036020811015610d6357600080fd5b81019080803590602001909291905050506137ee565b6040518082815260200191505060405180910390f35b348015610d9b57600080fd5b50610dfe60048036036040811015610db257600080fd5b81019080803573ffffffffffffffffffffffffffffffffffffffff169060200190929190803573ffffffffffffffffffffffffffffffffffffffff169060200190929190505050613800565b604051808260ff1660ff16815260200191505060405180910390f35b348015610e2657600080fd5b50610e5360048036036020811015610e3d57600080fd5b810190808035906020019092919050505061390b565b6040518082815260200191505060405180910390f35b60078181548110610e7657fe5b906000526020600020016000915054906101000a900473ffffffffffffffffffffffffffffffffffffffff1681565b600a60009054906101000a900473ffffffffffffffffffffffffffffffffffffffff1673ffffffffffffffffffffffffffffffffffffffff163373ffffffffffffffffffffffffffffffffffffffff1614610f4b576040517f08c379a000000000000000000000000000000000000000000000000000000000815260040180806020018281038252602e815260200180613bfa602e913960400191505060405180910390fd5b806005805490501015610fc6576040517f08c379a00000000000000000000000000000000000000000000000000000000081526004018080602001828103825260168152602001807f496e76616c69642070616972696e6720696e6465782e0000000000000000000081525060200191505060405180910390fd5b60016009600083815260200190815260200160002060030160006101000a81548160ff021916908360ff16021790555050565b6060600480548060200260200160405190810160405280929190818152602001828054801561107d57602002820191906000526020600020905b8160009054906101000a900473ffffffffffffffffffffffffffffffffffffffff1673ffffffffffffffffffffffffffffffffffffffff1681526020019060010190808311611033575b5050505050905090565b600160008273ffffffffffffffffffffffffffffffffffffffff1673ffffffffffffffffffffffffffffffffffffffff16815260200190815260200160002060000160009054906101000a900473ffffffffffffffffffffffffffffffffffffffff1673ffffffffffffffffffffffffffffffffffffffff163373ffffffffffffffffffffffffffffffffffffffff161461116d576040517f08c379a0000000000000000000000000000000000000000000000000000000008152600401808060200182810382526023815260200180613c9b6023913960400191505060405180910390fd5b6002600381111561117a57fe5b600160008373ffffffffffffffffffffffffffffffffffffffff1673ffffffffffffffffffffffffffffffffffffffff16815260200190815260200160002060090160009054906101000a900460ff1660038111156111d557fe5b1415611249576040517f08c379a00000000000000000000000000000000000000000000000000000000081526004018080602001828103825260108152602001807f204c6f616e206e6f74206163746976650000000000000000000000000000000081525060200191505060405180910390fd5b6000600381111561125657fe5b600160008373ffffffffffffffffffffffffffffffffffffffff1673ffffffffffffffffffffffffffffffffffffffff16815260200190815260200160002060090160009054906101000a900460ff1660038111156112b157fe5b14801561130057506000600160008373ffffffffffffffffffffffffffffffffffffffff1673ffffffffffffffffffffffffffffffffffffffff16815260200190815260200160002060040154115b1561143f576002600160008373ffffffffffffffffffffffffffffffffffffffff1673ffffffffffffffffffffffffffffffffffffffff16815260200190815260200160002060090160006101000a81548160ff0219169083600381111561136457fe5b02179055503373ffffffffffffffffffffffffffffffffffffffff166108fc600160008473ffffffffffffffffffffffffffffffffffffffff1673ffffffffffffffffffffffffffffffffffffffff168152602001908152602001600020600401549081150290604051600060405180830381858888f193505050501580156113f1573d6000803e3d6000fd5b506000600160008373ffffffffffffffffffffffffffffffffffffffff1673ffffffffffffffffffffffffffffffffffffffff16815260200190815260200160002060040181905550611706565b6001600381111561144c57fe5b600160008373ffffffffffffffffffffffffffffffffffffffff1673ffffffffffffffffffffffffffffffffffffffff16815260200190815260200160002060090160009054906101000a900460ff1660038111156114a757fe5b1415611516576003600160008373ffffffffffffffffffffffffffffffffffffffff1673ffffffffffffffffffffffffffffffffffffffff16815260200190815260200160002060090160006101000a81548160ff0219169083600381111561150c57fe5b0217905550611705565b60038081111561152257fe5b600160008373ffffffffffffffffffffffffffffffffffffffff1673ffffffffffffffffffffffffffffffffffffffff16815260200190815260200160002060090160009054906101000a900460ff16600381111561157d57fe5b1480156115c957506000600860008373ffffffffffffffffffffffffffffffffffffffff1673ffffffffffffffffffffffffffffffffffffffff16815260200190815260200160002054145b15611704576002600160008373ffffffffffffffffffffffffffffffffffffffff1673ffffffffffffffffffffffffffffffffffffffff16815260200190815260200160002060090160006101000a81548160ff0219169083600381111561162d57fe5b02179055503373ffffffffffffffffffffffffffffffffffffffff166108fc600160008473ffffffffffffffffffffffffffffffffffffffff1673ffffffffffffffffffffffffffffffffffffffff168152602001908152602001600020600401549081150290604051600060405180830381858888f193505050501580156116ba573d6000803e3d6000fd5b506000600160008373ffffffffffffffffffffffffffffffffffffffff1673ffffffffffffffffffffffffffffffffffffffff168152602001908152602001600020600401819055505b5b5b50565b600042905090565b6000606483836127108161172157fe5b04028161172a57fe5b04905092915050565b600080600580549050116117af576040517f08c379a00000000000000000000000000000000000000000000000000000000081526004018080602001828103825260118152602001807f4e6f2050616972696e672065786973747300000000000000000000000000000081525060200191505060405180910390fd5b600080905060008090505b60058054905081101561180c5760016009600083815260200190815260200160002060030160009054906101000a900460ff1660ff1614156117ff5781806001019250505b80806001019150506117ba565b508091505090565b6000600c548061182057fe5b6000830882039050919050565b600080821161183f5760009050611872565b600061184a8461392c565b905082600a60149054906101000a900461ffff1661ffff16828161186a57fe5b048602029150505b9392505050565b6000600580549050905090565b600a60009054906101000a900473ffffffffffffffffffffffffffffffffffffffff1673ffffffffffffffffffffffffffffffffffffffff163373ffffffffffffffffffffffffffffffffffffffff161461192c576040517f08c379a0000000000000000000000000000000000000000000000000000000008152600401808060200182810382526030815260200180613d2b6030913960400191505060405180910390fd5b80600580549050116119a6576040517f08c379a00000000000000000000000000000000000000000000000000000000081526004018080602001828103825260168152602001807f496e76616c69642070616972696e6720696e6465782e0000000000000000000081525060200191505060405180910390fd5b60006009600083815260200190815260200160002060030160006101000a81548160ff021916908360ff16021790555050565b600080600c54806119e657fe5b600084089050600c5481840301915050919050565b600160008473ffffffffffffffffffffffffffffffffffffffff1673ffffffffffffffffffffffffffffffffffffffff168152602001908152602001600020600401548211158015611a8f5750600160008473ffffffffffffffffffffffffffffffffffffffff1673ffffffffffffffffffffffffffffffffffffffff168152602001908152602001600020600301548211155b611ae4576040517f08c379a0000000000000000000000000000000000000000000000000000000008152600401808060200182810382526040815260200180613c286040913960400191505060405180910390fd5b60006003811115611af157fe5b600160008573ffffffffffffffffffffffffffffffffffffffff1673ffffffffffffffffffffffffffffffffffffffff16815260200190815260200160002060090160009054906101000a900460ff166003811115611b4c57fe5b1480611bbd575060016003811115611b6057fe5b600160008573ffffffffffffffffffffffffffffffffffffffff1673ffffffffffffffffffffffffffffffffffffffff16815260200190815260200160002060090160009054906101000a900460ff166003811115611bbb57fe5b145b611c12576040517f08c379a0000000000000000000000000000000000000000000000000000000008152600401808060200182810382526023815260200180613d086023913960400191505060405180910390fd5b611c5e82600160008673ffffffffffffffffffffffffffffffffffffffff1673ffffffffffffffffffffffffffffffffffffffff16815260200190815260200160002060010154611711565b341015611cb6576040517f08c379a000000000000000000000000000000000000000000000000000000000815260040180806020018281038252604a815260200180613cbe604a913960600191505060405180910390fd5b60011515611cc48483613980565b151514611d39576040517f08c379a00000000000000000000000000000000000000000000000000000000081526004018080602001828103825260138152602001807f50616972696e67206d757374206578697374730000000000000000000000000081525060200191505060405180910390fd5b60006003811115611d4657fe5b600160008573ffffffffffffffffffffffffffffffffffffffff1673ffffffffffffffffffffffffffffffffffffffff16815260200190815260200160002060090160009054906101000a900460ff166003811115611da157fe5b1415611e0b5760018060008573ffffffffffffffffffffffffffffffffffffffff1673ffffffffffffffffffffffffffffffffffffffff16815260200190815260200160002060090160006101000a81548160ff02191690836003811115611e0557fe5b02179055505b81600160008573ffffffffffffffffffffffffffffffffffffffff1673ffffffffffffffffffffffffffffffffffffffff168152602001908152602001600020600401600082825403925050819055503373ffffffffffffffffffffffffffffffffffffffff166108fc839081150290604051600060405180830381858888f19350505050158015611ea1573d6000803e3d6000fd5b5060004290506000611eb1612d5c565b90506040518061016001604052803373ffffffffffffffffffffffffffffffffffffffff168152602001600181526020018673ffffffffffffffffffffffffffffffffffffffff16815260200185815260200184815260200160006002811115611f1757fe5b8152602001838152602001637fffffff8152602001838152602001611f9e84611f99600160008b73ffffffffffffffffffffffffffffffffffffffff1673ffffffffffffffffffffffffffffffffffffffff16815260200190815260200160002060050160009054906101000a900460ff166003811115611f9457fe5b61392c565b612e1f565b8152602001611fef86600160008a73ffffffffffffffffffffffffffffffffffffffff1673ffffffffffffffffffffffffffffffffffffffff16815260200190815260200160002060010154611711565b815250600260008373ffffffffffffffffffffffffffffffffffffffff1673ffffffffffffffffffffffffffffffffffffffff16815260200190815260200160002060008201518160000160006101000a81548173ffffffffffffffffffffffffffffffffffffffff021916908373ffffffffffffffffffffffffffffffffffffffff1602179055506020820151816001015560408201518160020160006101000a81548173ffffffffffffffffffffffffffffffffffffffff021916908373ffffffffffffffffffffffffffffffffffffffff160217905550606082015181600301556080820151816004015560a08201518160050160006101000a81548160ff0219169083600281111561210157fe5b021790555060c0820151816006015560e082015181600701556101008201518160080155610120820151816009015561014082015181600a015590505060068190806001815401808255809150509060018203906000526020600020016000909192909190916101000a81548173ffffffffffffffffffffffffffffffffffffffff021916908373ffffffffffffffffffffffffffffffffffffffff160217905550506001600860008373ffffffffffffffffffffffffffffffffffffffff1673ffffffffffffffffffffffffffffffffffffffff168152602001908152602001600020600082825401925050819055505050505050565b600260008273ffffffffffffffffffffffffffffffffffffffff1673ffffffffffffffffffffffffffffffffffffffff16815260200190815260200160002060000160009054906101000a900473ffffffffffffffffffffffffffffffffffffffff1673ffffffffffffffffffffffffffffffffffffffff163373ffffffffffffffffffffffffffffffffffffffff16146122fc576040517f08c379a00000000000000000000000000000000000000000000000000000000081526004018080602001828103825260198152602001807f204d75737420626520626f72726f777320626f72726f7765720000000000000081525060200191505060405180910390fd5b6000600260008373ffffffffffffffffffffffffffffffffffffffff1673ffffffffffffffffffffffffffffffffffffffff168152602001908152602001600020600a0154116123b4576040517f08c379a000000000000000000000000000000000000000000000000000000000815260040180806020018281038252601a8152602001807f20436f6c6c61746572616c20416d6f756e74206e6f206d6f726500000000000081525060200191505060405180910390fd5b600060086000600260008573ffffffffffffffffffffffffffffffffffffffff1673ffffffffffffffffffffffffffffffffffffffff16815260200190815260200160002060020160009054906101000a900473ffffffffffffffffffffffffffffffffffffffff1673ffffffffffffffffffffffffffffffffffffffff1673ffffffffffffffffffffffffffffffffffffffff16815260200190815260200160002054116124cb576040517f08c379a000000000000000000000000000000000000000000000000000000000815260040180806020018281038252600f8152602001807f204e6f20616374697665206c6f616e000000000000000000000000000000000081525060200191505060405180910390fd5b3373ffffffffffffffffffffffffffffffffffffffff166108fc600260008473ffffffffffffffffffffffffffffffffffffffff1673ffffffffffffffffffffffffffffffffffffffff168152602001908152602001600020600a01549081150290604051600060405180830381858888f19350505050158015612553573d6000803e3d6000fd5b506000600260008373ffffffffffffffffffffffffffffffffffffffff1673ffffffffffffffffffffffffffffffffffffffff168152602001908152602001600020600a0181905550600160086000600260008573ffffffffffffffffffffffffffffffffffffffff1673ffffffffffffffffffffffffffffffffffffffff16815260200190815260200160002060020160009054906101000a900473ffffffffffffffffffffffffffffffffffffffff1673ffffffffffffffffffffffffffffffffffffffff1673ffffffffffffffffffffffffffffffffffffffff1681526020019081526020016000206000828254039250508190555050565b6000806000905060006005805490501415801561266e57506000835114155b156126e55760008090505b83518110156126e35760016009600086848151811061269457fe5b6020026020010151815260200190815260200160002060030160009054906101000a900460ff1660ff1614156126cd57600191506126d6565b600091506126e3565b8080600101915050612679565b505b80915050919050565b6000806000806000806000806060612704613a57565b600160008c73ffffffffffffffffffffffffffffffffffffffff1673ffffffffffffffffffffffffffffffffffffffff168152602001908152602001600020604051806101400160405290816000820160009054906101000a900473ffffffffffffffffffffffffffffffffffffffff1673ffffffffffffffffffffffffffffffffffffffff1673ffffffffffffffffffffffffffffffffffffffff168152602001600182015481526020016002820154815260200160038201548152602001600482015481526020016005820160009054906101000a900460ff1660038111156127eb57fe5b60038111156127f657fe5b815260200160068201548152602001600782015481526020016008820180548060200260200160405190810160405280929190818152602001828054801561285d57602002820191906000526020600020905b815481526020019060010190808311612849575b505050505081526020016009820160009054906101000a900460ff16600381111561288457fe5b600381111561288f57fe5b815250509050806000015181602001518260400151836060015184608001518560a0015160038111156128be57fe5b8660c001518760e00151886101000151809050995099509950995099509950995099509950509193959799909294969850565b6000806129056129008661392c565b6137ee565b90504281840111156129495760008184420301905084600b548801600a60149054906101000a900461ffff1661ffff16838161293d57fe5b0402029250505061294f565b60009150505b949350505050565b6000600a60009054906101000a900473ffffffffffffffffffffffffffffffffffffffff16905090565b6006818154811061298e57fe5b906000526020600020016000915054906101000a900473ffffffffffffffffffffffffffffffffffffffff1681565b823411612a15576040517f08c379a0000000000000000000000000000000000000000000000000000000008152600401808060200182810382526033815260200180613c686033913960400191505060405180910390fd5b60648510612a6e576040517f08c379a0000000000000000000000000000000000000000000000000000000008152600401808060200182810382526026815260200180613d5b6026913960400191505060405180910390fd5b60011515612a7b8261264f565b151514612af0576040517f08c379a000000000000000000000000000000000000000000000000000000000815260040180806020018281038252600f8152602001807f496e76616c69642070616972696e67000000000000000000000000000000000081525060200191505060405180910390fd5b6000612afa612d5c565b90506040518061014001604052803373ffffffffffffffffffffffffffffffffffffffff168152602001878152602001868152602001858152602001858152602001846003811115612b4857fe5b8152602001637fffffff815260200142815260200183815260200160006003811115612b7057fe5b815250600160008373ffffffffffffffffffffffffffffffffffffffff1673ffffffffffffffffffffffffffffffffffffffff16815260200190815260200160002060008201518160000160006101000a81548173ffffffffffffffffffffffffffffffffffffffff021916908373ffffffffffffffffffffffffffffffffffffffff1602179055506020820151816001015560408201518160020155606082015181600301556080820151816004015560a08201518160050160006101000a81548160ff02191690836003811115612c4557fe5b021790555060c0820151816006015560e08201518160070155610100820151816008019080519060200190612c7b929190613ad6565b506101208201518160090160006101000a81548160ff02191690836003811115612ca157fe5b021790555090505060048190806001815401808255809150509060018203906000526020600020016000909192909190916101000a81548173ffffffffffffffffffffffffffffffffffffffff021916908373ffffffffffffffffffffffffffffffffffffffff160217905550506000600860008373ffffffffffffffffffffffffffffffffffffffff1673ffffffffffffffffffffffffffffffffffffffff16815260200190815260200160002081905550505050505050565b6000803342604051602001808373ffffffffffffffffffffffffffffffffffffffff1673ffffffffffffffffffffffffffffffffffffffff1660601b81526014018281526020019250505060405160208183030381529060405280519060200120905060008090506000600160140360ff1690505b6000600182011115612e16576002600182601460ff1603030260100a838260148110612df957fe5b1a60f81b60f81c60ff160282019150808060019003915050612dd1565b50809250505090565b600080600090505b612e30836137ee565b612e39856119d9565b019050612e4542611814565b811115612e27578091505092915050565b60048181548110612e6357fe5b906000526020600020016000915054906101000a900473ffffffffffffffffffffffffffffffffffffffff1681565b600a60009054906101000a900473ffffffffffffffffffffffffffffffffffffffff1673ffffffffffffffffffffffffffffffffffffffff163373ffffffffffffffffffffffffffffffffffffffff1614612f38576040517f08c379a0000000000000000000000000000000000000000000000000000000008152600401808060200182810382526031815260200180613bc96031913960400191505060405180910390fd5b600060058054905090506000811480612f5d57506000612f588585613800565b60ff16145b156130c25760405180608001604052808573ffffffffffffffffffffffffffffffffffffffff1681526020018473ffffffffffffffffffffffffffffffffffffffff168152602001838152602001600160ff168152506009600083815260200190815260200160002060008201518160000160006101000a81548173ffffffffffffffffffffffffffffffffffffffff021916908373ffffffffffffffffffffffffffffffffffffffff16021790555060208201518160010160006101000a81548173ffffffffffffffffffffffffffffffffffffffff021916908373ffffffffffffffffffffffffffffffffffffffff1602179055506040820151816002019080519060200190613070929190613b23565b5060608201518160030160006101000a81548160ff021916908360ff16021790555090505060058190806001815401808255809150509060018203906000526020600020016000909192909190915055505b50505050565b600060028111156130d557fe5b600260008373ffffffffffffffffffffffffffffffffffffffff1673ffffffffffffffffffffffffffffffffffffffff16815260200190815260200160002060050160009054906101000a900460ff16600281111561313057fe5b146131a3576040517f08c379a000000000000000000000000000000000000000000000000000000000815260040180806020018281038252600e8152602001807f496e76616c696420626f72726f7700000000000000000000000000000000000081525060200191505060405180910390fd5b61339360016000600260008573ffffffffffffffffffffffffffffffffffffffff1673ffffffffffffffffffffffffffffffffffffffff16815260200190815260200160002060020160009054906101000a900473ffffffffffffffffffffffffffffffffffffffff1673ffffffffffffffffffffffffffffffffffffffff1673ffffffffffffffffffffffffffffffffffffffff1681526020019081526020016000206002015460016000600260008673ffffffffffffffffffffffffffffffffffffffff1673ffffffffffffffffffffffffffffffffffffffff16815260200190815260200160002060020160009054906101000a900473ffffffffffffffffffffffffffffffffffffffff1673ffffffffffffffffffffffffffffffffffffffff1673ffffffffffffffffffffffffffffffffffffffff16815260200190815260200160002060050160009054906101000a900460ff16600381111561330857fe5b600260008573ffffffffffffffffffffffffffffffffffffffff1673ffffffffffffffffffffffffffffffffffffffff16815260200190815260200160002060030154600260008673ffffffffffffffffffffffffffffffffffffffff1673ffffffffffffffffffffffffffffffffffffffff168152602001908152602001600020600801546135ac565b341015613408576040517f08c379a00000000000000000000000000000000000000000000000000000000081526004018080602001828103825260148152602001807f496e7375636966666963656e7420616d6f756e7400000000000000000000000081525060200191505060405180910390fd5b60004290506000600260008473ffffffffffffffffffffffffffffffffffffffff1673ffffffffffffffffffffffffffffffffffffffff16815260200190815260200160002060090154905081600260008573ffffffffffffffffffffffffffffffffffffffff1673ffffffffffffffffffffffffffffffffffffffff168152602001908152602001600020600801819055506135618160016000600260008873ffffffffffffffffffffffffffffffffffffffff1673ffffffffffffffffffffffffffffffffffffffff16815260200190815260200160002060020160009054906101000a900473ffffffffffffffffffffffffffffffffffffffff1673ffffffffffffffffffffffffffffffffffffffff1673ffffffffffffffffffffffffffffffffffffffff16815260200190815260200160002060050160009054906101000a900460ff16600381111561355c57fe5b612e1f565b600260008573ffffffffffffffffffffffffffffffffffffffff1673ffffffffffffffffffffffffffffffffffffffff16815260200190815260200160002060090181905550505050565b60006135ba858585856128f1565b6135c586868661182d565b019050949350505050565b60006135da613a57565b600160008473ffffffffffffffffffffffffffffffffffffffff1673ffffffffffffffffffffffffffffffffffffffff168152602001908152602001600020604051806101400160405290816000820160009054906101000a900473ffffffffffffffffffffffffffffffffffffffff1673ffffffffffffffffffffffffffffffffffffffff1673ffffffffffffffffffffffffffffffffffffffff168152602001600182015481526020016002820154815260200160038201548152602001600482015481526020016005820160009054906101000a900460ff1660038111156136c157fe5b60038111156136cc57fe5b815260200160068201548152602001600782015481526020016008820180548060200260200160405190810160405280929190818152602001828054801561373357602002820191906000526020600020905b81548152602001906001019080831161371f575b505050505081526020016009820160009054906101000a900460ff16600381111561375a57fe5b600381111561376557fe5b8152505090506001600381111561377857fe5b816101200151600381111561378957fe5b14806137d457506000600860008573ffffffffffffffffffffffffffffffffffffffff1673ffffffffffffffffffffffffffffffffffffffff16815260200190815260200160002054115b156137e35760019150506137e9565b60009150505b919050565b60006018603c80840202029050919050565b6000805b6005805490508110156138ff578373ffffffffffffffffffffffffffffffffffffffff166009600083815260200190815260200160002060000160009054906101000a900473ffffffffffffffffffffffffffffffffffffffff1673ffffffffffffffffffffffffffffffffffffffff161480156138e357508273ffffffffffffffffffffffffffffffffffffffff166009600083815260200190815260200160002060010160009054906101000a900473ffffffffffffffffffffffffffffffffffffffff1673ffffffffffffffffffffffffffffffffffffffff16145b156138f2576001915050613905565b8080600101915050613804565b50600090505b92915050565b6005818154811061391857fe5b906000526020600020016000915090505481565b60008082141561393f576007905061397b565b600182141561395157601e905061397b565b600282141561396357605a905061397b565b60038214156139755760b4905061397b565b61016890505b919050565b600080600090505b600160008573ffffffffffffffffffffffffffffffffffffffff1673ffffffffffffffffffffffffffffffffffffffff16815260200190815260200160002060080180549050811015613a4b5782600160008673ffffffffffffffffffffffffffffffffffffffff1673ffffffffffffffffffffffffffffffffffffffff1681526020019081526020016000206008018281548110613a2357fe5b90600052602060002001541415613a3e576001915050613a51565b8080600101915050613988565b50600090505b92915050565b604051806101400160405280600073ffffffffffffffffffffffffffffffffffffffff1681526020016000815260200160008152602001600081526020016000815260200160006003811115613aa957fe5b815260200160008152602001600081526020016060815260200160006003811115613ad057fe5b81525090565b828054828255906000526020600020908101928215613b12579160200282015b82811115613b11578251825591602001919060010190613af6565b5b509050613b1f9190613ba3565b5090565b828054600181600116156101000203166002900490600052602060002090601f016020900481019282601f10613b6457805160ff1916838001178555613b92565b82800160010185558215613b92579182015b82811115613b91578251825591602001919060010190613b76565b5b509050613b9f9190613ba3565b5090565b613bc591905b80821115613bc1576000816000905550600101613ba9565b5090565b9056fe4f6e6c7920636f6e7472616374206f776e65722063616e20616464206e657720737570706f727465642070616972696e674f6e6c7920636f6e7472616374206f776e65722063616e206163746976652070616972696e6720737570706f7274204c656e6420616d6f756e742063616e6e6f74206265206d6f7265207468616e20697373756520616d6f756e7420616e642063757272656e7420616d6f756e74204d6573736167652076616c75652073686f756c64206265206d6f7265207468616e2074686520697373756520616d6f756e744f6e6c79206c656e64206f776e65722063616e20636c6f736520746865206c6f616e2e4d6573736167652076616c7565206861766520746f206265206d6f7265207468616e20746865206c6f616e20746f2076616c756520616d6f756e74206f66206c656e6420616d6f756e74204c656e64206163636f756e7420697320696e6163746976652f73757370656e6465644f6e6c7920636f6e7472616374206f776e65722063616e2064656163746976652070616972696e6720737570706f7274204c54562073686f756c64206265206c657373207468616e20616e6420657175616c20313030a165627a7a72305820eed820833ec368bc6043eaaa0d0dffe09f91307e08729dbe22e13c56c1449b480029",
  "source": "pragma solidity ^0.5.8;\n\ncontract EthLoan {\n    string value;\n\n    enum PaymentTerm{WEEKLY,MONTHLY,QUARTERLY,YEARLY}\n    enum TransactionType{NEW,REPAY,CLOSE,UPDATE,DEFAULT}\n    enum BorrowStatus{ACTIVE,INACTIVE,LATE}\n    enum LendStatus{ACTIVE,RUNNING,INACTIVE,SUSPEND}\n\n    struct Pairing {\n        address baseCurry;\n        address counterCurry;\n        string desc;\n        uint8 active;\n    }\n\n    struct Lend{\n        address lendAddress;\n        uint ltv; //1-100\n        uint interest; // 100 basis point = 1 percent\n        uint issueAmt; // wei\n        uint currentAmt; // wei\n        PaymentTerm paymentTerm;\n        uint endDate;\n        uint startDate;\n        uint[] pairing;\n        LendStatus lendStatus;\n    }\n\n    struct Borrow{\n        address borrowAddress;\n        uint exchRate;\n        address lendId;\n        uint borrowAmt;\n        //Pairing pairing;\n        uint pairing;\n        BorrowStatus borrowStatus; //A - Active, I - Inactive, L - Late\n        uint borrowStartDate;\n        uint borrowEndDate;\n        uint lastPaymentDate;\n        uint nextPaymentDateBy;\n        uint collatAmt;\n    }\n\n    struct Transaction{\n        uint lendId;\n        uint borrowId;\n        uint exchRate;\n        TransactionType transactionType;\n        uint transactionAmt;\n        uint pairing;\n        //Pairing pairing;\n    }\n\n    mapping (address => Lend) lends;\n    //mapping (address => Pairing) pairs;\n    mapping (address => Borrow) borrows;\n    mapping (address => Transaction) transactions;\n    address[] public lendList;\n    uint[] public pairing;//address[] public pairing;\n    address[] public borrowList;\n    address[] public transactionList;\n    mapping (address => uint) activeLoan;\n    mapping (uint => Pairing) pair;\n\n    address owner;\n    uint16 dayCount = 360;\n    uint lateCharge = 200; // 200 basis point = 2 percent\n    uint epochDay = 86400; // 60 x 60 x 24 = Epoch day\n\n    constructor() public {\n        value = \"constructor value\";\n        owner = msg.sender;\n       // pairing.push(Pairing(0x0000000000000000000000000000000000000000,0x0000000000000000000000000000000000000000,'ETH/ETH',1));\n    }\n\n    function strConcat(string memory _a, string memory _b) internal returns (string memory){\n        bytes memory _ba = bytes(_a);\n        bytes memory _bb = bytes(_b);\n        string memory ab = new string(_ba.length + _bb.length);\n        bytes memory bab = bytes(ab);\n        uint k = 0;\n        for (uint i = 0; i < _ba.length; i++) bab[k++] = _ba[i];\n        for (uint i = 0; i < _bb.length; i++) bab[k++] = _bb[i];\n\n        return string(bab);\n    }\n\n    function checkExistsPairing(address _baseCurry, address _counterCurry) public view returns (uint8){\n        for (uint i; i < pairing.length;i++){\n            if (pair[i].baseCurry==_baseCurry && pair[i].counterCurry==_counterCurry)\n                return 1;\n        }\n        return 0;\n    }\n\n    function addPairing(address _baseCurry, address _counterCurry, string memory _desc) public {\n        require(msg.sender == owner,'Only contract owner can add new supported pairing');\n        uint noPair = pairing.length ;\n        if(noPair == 0 || checkExistsPairing(_baseCurry,_counterCurry) == 0){\n            pair[noPair] = Pairing(_baseCurry,_counterCurry,_desc,1);\n            pairing.push(noPair);\n        }\n    }\n\n    function getNoPairing() public view returns(uint) {\n        return pairing.length;\n    }\n\n    function deactivePairing(uint _index) public {\n        require(msg.sender == owner,'Only contract owner can deactive pairing support');\n        require(pairing.length > _index, 'Invalid pairing index.');\n        pair[_index].active = 0;\n    }\n\n    function getNoPairingActive() public view returns(uint) {\n        require(pairing.length > 0,'No Pairing exists');\n        uint counter = 0;\n        for(uint i = 0;i<pairing.length;i++) {\n            if(pair[i].active == 1)\n                counter++;\n        }\n        return counter;\n    }\n\n    function activePairing(uint _index) public {\n        require(msg.sender == owner,'Only contract owner can active pairing support');\n        require(pairing.length >= _index, 'Invalid pairing index.');\n        pair[_index].active = 1;\n    }\n\n    function getBlock() public view returns (uint) {\n        return now;\n    }\n\n    function getOwner() public view returns(address){\n        return owner;\n    }\n\n    /*function getPair() public view returns(string memory){\n       string memory temp = '';\n       for(uint i = 0;i<pairing.length;i++) {\n            if(pair[i].active == 1)\n                //temp = temp.toSlice().concat(pair[i].toSlice());\n                temp = strConcat(temp,string(pair[i].));\n        }\n        return temp;\n    }*/\n\n    function getUniqueId() public view returns (address) {\n        bytes20 b = bytes20(keccak256(abi.encodePacked(msg.sender, now)));\n        uint addr = 0;\n        for (uint index = b.length-1; index+1 > 0; index--) {\n            addr += uint(uint8(b[index])) * ( 16 ** ((b.length - index - 1) * 2));\n        }\n        //to-do check if address exists\n\n        return address(addr);\n    }\n\n    function checkPairing(uint[] memory _pairingList) public view returns(bool) {\n        bool check = false;\n        if(pairing.length != 0 && _pairingList.length != 0){\n            for(uint i = 0; i<_pairingList.length;i++) {\n                if(pair[_pairingList[i]].active == 1)\n                    check = true;\n                else {\n                    check = false;\n                    break;\n                }\n            }\n        }\n        return check;\n    }\n\n    function newLend(uint _ltv,uint _interest, uint _issueAmt, PaymentTerm _paymentTerm, uint[] memory _pairingList ) public payable {\n        require(msg.value > _issueAmt,' Message value should be more than the issue amount');\n        require(_ltv < 100, ' LTV should be less than and equal 100');\n        require(checkPairing(_pairingList) == true, 'Invalid pairing');\n        address tempAddr = getUniqueId();\n\n        lends[tempAddr] = Lend(msg.sender,_ltv,_interest,_issueAmt,_issueAmt,_paymentTerm,2147483647,now,_pairingList,LendStatus.ACTIVE);\n\n        lendList.push(tempAddr);\n        activeLoan[tempAddr] = 0;\n    }\n\n    function checkLend(address _address) public view returns (address, uint,uint,uint,uint,uint,uint,uint,uint[] memory) {\n        //string memory retJSON = '{ '+'';\n        Lend memory tempLend = lends[_address];\n        return (tempLend.lendAddress,tempLend.ltv,tempLend.interest,tempLend.issueAmt,tempLend.currentAmt,uint(tempLend.paymentTerm),tempLend.endDate,tempLend.startDate,tempLend.pairing);\n    }\n\n    function getAllLend() external view returns (address[] memory) {\n        return lendList;\n    }\n\n    function checkActiveBorrower(address _address) public view returns(bool) {\n        Lend memory tempLend = lends[_address];\n        if(tempLend.lendStatus == LendStatus.RUNNING || activeLoan[_address] > 0) {\n            return true;\n        }\n        return false;\n    }\n\n    function closeLend(address _lendId) public payable {\n        //Lend memory tempLend = lends[_lendId];\n        require(msg.sender == lends[_lendId].lendAddress,'Only lend owner can close the loan.');\n        require(lends[_lendId].lendStatus != LendStatus.INACTIVE, ' Loan not active');\n        //to-do only allow if there is no active borrower in loan account\n        if(lends[_lendId].lendStatus == LendStatus.ACTIVE && lends[_lendId].currentAmt > 0) {\n            lends[_lendId].lendStatus = LendStatus.INACTIVE;\n            msg.sender.transfer(lends[_lendId].currentAmt);\n            lends[_lendId].currentAmt = 0;\n        }\n        else if (lends[_lendId].lendStatus == LendStatus.RUNNING) {\n            lends[_lendId].lendStatus = LendStatus.SUSPEND;\n        }\n        else if (lends[_lendId].lendStatus == LendStatus.SUSPEND && activeLoan[_lendId] == 0){\n            lends[_lendId].lendStatus = LendStatus.INACTIVE;\n            msg.sender.transfer(lends[_lendId].currentAmt);\n            lends[_lendId].currentAmt = 0;\n        }\n    }\n\n    function checkpairingExist(address _lendId,uint _pairingId)  private view returns (bool) {\n        for(uint i = 0; i<lends[_lendId].pairing.length; i++) {\n            if(lends[_lendId].pairing[i] == _pairingId) {\n                return true;\n            }\n        }\n        return false;\n    }\n\n    //Date Related Section - Start\n    function calcNextDay(uint _epoch) public view returns (uint) {\n        uint x = addmod(_epoch,0,epochDay);\n        return (_epoch - x + epochDay);\n    }\n\n    function calcStartDay(uint _epoch) public view returns(uint) {\n        return (_epoch - addmod(_epoch,0,epochDay));\n    }\n\n    function calcNextCycle(uint _epoch,uint _period) public view returns(uint) {\n        uint nextCycle = 0;\n        do {\n           nextCycle = (calcNextDay(_epoch) + (convertDayToEpoch(_period)));\n        }while(nextCycle <= calcStartDay(now));\n        return nextCycle;\n    }\n\n    function getPaymentDay(uint _payTerm) private pure returns (uint) {\n        if (_payTerm == 0)\n            return 7;\n        else if (_payTerm == 1)\n            return 30;\n        else if (_payTerm == 2)\n            return 90;\n        else if (_payTerm == 3)\n            return 180;\n        else\n            return 360;\n    }\n\n    function convertDayToEpoch(uint _day) public pure returns(uint) {\n        return uint(_day*60*60*24);\n    }\n\n    //Date Related Section - End\n\n    function calcCollatAmt(uint _lendAmt,uint _ltv) public pure returns (uint) {\n        return (10000/_ltv * _lendAmt)/100;\n    }\n\n    function borrowLend(address _lendId, uint _lendAmt, uint _pairingId) public payable {\n        //require(msg.value > _lendAmt, 'Message value must be more than lend amount');\n        require(_lendAmt <= lends[_lendId].currentAmt && _lendAmt <= lends[_lendId].issueAmt,' Lend amount cannot be more than issue amount and current amount');\n        require(lends[_lendId].lendStatus == LendStatus.ACTIVE || lends[_lendId].lendStatus == LendStatus.RUNNING, ' Lend account is inactive/suspended');\n        require(msg.value >= calcCollatAmt(_lendAmt,lends[_lendId].ltv), 'Message value have to be more than the loan to value amount of lend amount');\n        require(checkpairingExist(_lendId,_pairingId) == true, 'Pairing must exists');\n        if(lends[_lendId].lendStatus == LendStatus.ACTIVE) {\n            lends[_lendId].lendStatus = LendStatus.RUNNING;\n        }\n\n        lends[_lendId].currentAmt -= _lendAmt;\n        msg.sender.transfer(_lendAmt);\n        uint current = now;\n        address tempAddr = getUniqueId();\n        borrows[tempAddr] = Borrow(msg.sender,1,_lendId,_lendAmt,_pairingId,BorrowStatus.ACTIVE,current,2147483647,current,calcNextCycle(current,getPaymentDay(uint(lends[_lendId].paymentTerm))),calcCollatAmt(_lendAmt,lends[_lendId].ltv));\n\n        borrowList.push(tempAddr);\n        activeLoan[tempAddr] += 1;\n    }\n\n    //Calculate interest - Start\n\n    function interestAmt(uint _interest,uint _payTerm,uint _borrowAmt) public view returns (uint) {\n        if(_borrowAmt <= 0)\n            return 0;\n        uint period = getPaymentDay(_payTerm);\n        return uint(uint(_interest) * (period/dayCount) * uint(_borrowAmt));\n    }\n\n    function lateInterestAmt(uint _interest,uint _payTerm,uint _borrowAmt,uint _lastPaymentDate) public view returns(uint) {\n        uint period = convertDayToEpoch(getPaymentDay(_payTerm));\n\n        if((_lastPaymentDate + period) > now ) {\n            uint accurIntrDay = now - _lastPaymentDate + period;\n            return uint((accurIntrDay/dayCount) * (_interest + lateCharge) * uint(_borrowAmt));\n        }\n        return 0;\n    }\n\n    function totalInterestAmt(uint _interest,uint _payTerm,uint _borrowAmt,uint _lastPaymentDate) public view returns (uint) {\n        return (interestAmt(_interest,_payTerm,_borrowAmt) + lateInterestAmt(_interest,_payTerm,_borrowAmt,_lastPaymentDate));\n    }\n\n    //Calculate interest - End\n\n    function payInterest(address _borrowId) public payable {\n        require(borrows[_borrowId].borrowStatus == BorrowStatus.ACTIVE, 'Invalid borrow');\n        require(msg.value >= totalInterestAmt(lends[borrows[_borrowId].lendId].interest,uint(lends[borrows[_borrowId].lendId].paymentTerm),borrows[_borrowId].borrowAmt,borrows[_borrowId].lastPaymentDate),'Insucifficent amount');\n        uint current = now;\n        uint nextPayDate = borrows[_borrowId].nextPaymentDateBy;\n        borrows[_borrowId].lastPaymentDate = current;\n        borrows[_borrowId].nextPaymentDateBy = calcNextCycle(nextPayDate,uint(lends[borrows[_borrowId].lendId].paymentTerm));\n    }\n\n    function closeBorrow(address _borrowId) public payable {\n        require(msg.sender == borrows[_borrowId].borrowAddress,' Must be borrows borrower');\n        require(borrows[_borrowId].collatAmt > 0,' Collateral Amount no more');\n        require(activeLoan[borrows[_borrowId].lendId] > 0,' No active loan');\n        msg.sender.transfer(borrows[_borrowId].collatAmt);\n        borrows[_borrowId].collatAmt = 0;\n        activeLoan[borrows[_borrowId].lendId] -= 1;\n    }\n\n}",
  "sourcePath": "/home/imehy3u/Documents/Project/ETH P2P LOAN/ETHLOAN/loancontract-eth/contracts/eth_p2p_loan.sol",
  "compiler": {
    "name": "solc",
    "version": "0.5.8+commit.23d335f2.Emscripten.clang"
  },
  "schemaVersion": "3.0.11",
  "updatedAt": "2019-10-19T10:39:50.907Z",
  "devdoc": {
    "methods": {}
  },
  "userdoc": {
    "methods": {}
  }
}